S0160000455345353136204D41494E2046572E7372656393
S214012000F04F0020959701008D9801008D980100F2
S21401201000000000000000000000000000000000BA
S214012020000000000000000000000000BD420100AA
S2140120300000000000000000E14301002944010007
S2140120408D9801008D9801008D980100C5740100DE
S214012050F57001008D9801008D9801008D980100A2
S2140120608D980100697B0100817B0100997B01004D
S214012070B17B0100C97B0100E17B0100DD96010017
S214012080F196010005970100F53D0100093E0100AA
S2140120901D3E010000000000000000008D980100B8
S2140120A08D9801008D9801008D9801008D98010092
S2140120B00000000010B5064C2378002B07D1054B15
S2140120C0002B02D0044800E000BF0123237010BD9E
S2140120D07800002000000000E0C20100084B10B5A7
S2140120E0002B03D00749084800E000BF07480368F3
S2140120F0002B00D110BD064B002BFBD09847F9E70B
S214012100000000007C000020E0C20100E0C20100E7
S2140121100000000080B584B000AF78607B681B6863
S214012120FB60FB68DB69072213405A1E9341DBB252
S2140121301800BD4604B080BD80B582B000AF78609F
S214012140C0467B681800044B9847031EF9D1C04669
S214012150BD4602B080BDC0461521010080B584B0E1
S21401216000AF78607B681B68FB60FB681B681B011F
S214012170DB0FDBB21A000B23FB18511E8A411A70C3
S2140121800823FB187A68528B1A807B689B8B9AB25D
S2140121900823FB180821791809888A1A1A807B688F
S2140121A09B8B9BB2013B9AB27B689A830B23FB18ED
S2140121B01B78002B10D07B68DB7A002B1CD07B6849
S2140121C09B8B9BB2012B17D1FB685B688022D202E6
S2140121D01A43FB685A600FE07B68DB7A002B0BD052
S2140121E07B689B8B9BB2002B06D1FB685B688022C9
S2140121F0D2021A43FB685A607B689B8B9BB2002B0A
S2140122000ED17B689B7A002B0AD07B6818000E4B98
S2140122109847FB685B68C02292021A43FB685A60C3
S2140122207B681800084B98477B681A6A0823FB18D6
S2140122301B88D318FA682821525CD2B21A70C0469D
S214012240BD4604B080BDC0463921010080B584B0CA
S21401225000AF78607B681B68FB60FB685B8B9BB29A
S2140122601A000423134004D07B6825221E219954AA
S21401227024E00A23FB187A68528B1A807B689B8BB2
S2140122809AB20A23FB180A21791809888A1A1A8031
S2140122907B689B8B9BB2013B9AB27B689A837B6877
S2140122A01800084B98477B681A6A0A23FB181B8894
S2140122B0D3181B78D9B2FB6828229954BD4604B0BE
S2140122C080BDC0463921010080B584B000AF78607A
S2140122D07B681B68FB60FB681B7EDBB21A00012370
S2140122E013402BD0FB6801221A76FB685B8B9BB2EE
S2140122F01A000223134004D07B68252241219954F9
S2140123001CE0FB685B8B9BB21A000423134015D0BC
S2140123107B682522182199547B6800229A837B6862
S2140123209B7A002B0AD07B681800134B9847FB68F2
S2140123305B68C02292021A43FB685A607B689B8BDB
S2140123409AB27B685A837B6825229B5CDBB2052B9D
S2140123500ED17B6824229B5CDBB2002B04D17B6808
S2140123601800064B984703E07B681800044B984713
S214012370C046BD4604B080BD392101004D22010092
S2140123805D21010080B584B000AFF860B960FB1D27
S2140123901A70FB1D1B78FA6802339B00D3180433AE
S2140123A0BA681A60FB681B7EDBB25AB2FB1D1B784B
S2140123B0012199400B005BB213435BB2DAB2FB68B2
S2140123C01A76C046BD4604B080BD000090B587B001
S2140123D000AF786039607B681B683B613B685A6870
S2140123E07B681A623B685A887B689A837B682422DA
S2140123F0012199547B682522052199543B691B6864
S2140124001B01DB0FDBB21A000F23FB18511E8A419A
S2140124101A703B685B7A002B06D03B689A7A7B6819
S214012420110018003B4B98470F23FB181B78002B15
S2140124300BD03B685B88012B07D13B695B68802228
S214012440D2021A433B695A6005E03B695B68324A2F
S2140124501A403B695A603B681B7A002B45D03B68A3
S2140124601B885A003B685B7A9B0313431A00802340
S2140124701B021A433B695A621723FC187B68180033
S214012480264B9847030023703B695B68224A1A4033
S2140124903B695A601723FB181B78002B07D11723BB
S2140124A0FC187B6818001E4B9847030023701723FF
S2140124B0FB181B78002B14D13B6903229A753B68E5
S2140124C01B881B0A9BB2782213439BB25A003B68B7
S2140124D05B7A9B031343012213431A003B695A623A
S2140124E012E01723FB181B780FE03B6903229A754D
S2140124F03B681B885B0001221A433B685B7A9B039F
S21401250013431A003B695A6200231800BD4607B000
S21401251090BDC046A13D0100FFFFFBFF433D01000A
S214012520E53C010080B582B000AF786039607B6819
S2140125309B8B9BB2002B01D005230CE07B6801220C
S2140125409A727B680122DA723A687B681100180079
S214012550034B984703001800BD4602B080BDC04635
S214012560CD23010080B584B000AF786039607B6808
S2140125701B68FB603B685B7A002B06D03B689A7A47
S2140125807B68110018001E4B9847FB685B681D4A64
S2140125901A40FB685A603B685A687B681A623B6857
S2140125A05A887B689A837B682422002199547B6829
S2140125B0252205219954FB6803229A753B681B7AEC
S2140125C0002B0DD03B681B885A003B685B7A9B0347
S2140125D013431A0080231B021A43FB685A6209E060
S2140125E03B681B885A003B685B7A9B0313431A00BF
S2140125F0FB685A6200231800BD4604B080BDC04681
S214012600A13D0100FFFFFBFF80B582B000AF7860FF
S21401261039607B689B8B9BB2002B01D005230CE0B5
S2140126207B6801229A727B680122DA723A687B68BB
S21401263011001800034B984703001800BD4602B06E
S21401264080BDC0466525010080B582B000AF7860C8
S21401265039607B689B8B9BB2002B01D005230CE075
S2140126607B6800229A727B680122DA723A687B687C
S21401267011001800034B984703001800BD4602B02E
S21401268080BDC0466525010080B586B000AF02005A
S214012690FB1D1A70FB1D1A78934B9200D3587B6171
S2140126A07B691B683B613B691B681B01DB0FDBB267
S2140126B01A000F23FB18511E8A411A700E23FB18AD
S2140126C07A69527E1A707B691B7EDAB20E23FB187A
S2140126D00E21791809780A401A707B695B8B9BB2C8
S2140126E0002B09D17B699B8B9BB2002B04D07B69A5
S2140126F018007E4B984770E07B695B8B9BB2002B82
S21401270039D07B699B8B9BB2002B34D17B69252208
S2140127109B5CDBB2052B2ED17B6924229B5CDBB252
S214012720002B28D13B6903221A757B6900225A8344
S2140127307B692522002199547B699B7A002B0BD05B
S2140127407B6918006A4B98473B695B68C022920216
S2140127501A433B695A6002E03B6901221A760E234E
S214012760FB181B780122134037D07B69DB687A6936
S2140127701000984731E07B695B8B9BB2002B2CD015
S2140127807B699B8B9BB2002B27D03B695B8B9BB2F3
S2140127901A002023134011D10F23FB181B780122A6
S2140127A05340DBB2002B04D17B699B8B9BB2012B80
S2140127B004D07B692522412199540EE07B692422AD
S2140127C09B5CDBB2002B04D17B691800494B984710
S2140127D003E07B691800484B98477B695B8B9BB28B
S2140127E0002B47D07B699B8B9BB2002B42D17B6928
S2140127F025229B5CDBB2052B3CD17B6924229B5CAA
S214012800DBB2012B36D13B691B7EDBB21A000223F9
S214012810134002D03B6902221A763B6903221A75DD
S2140128207B6900225A837B692522002199540E2355
S214012830FB181B78022213400BD07B6924229B5C79
S214012840DBB2012B05D17B691B697A6910009847B9
S21401285010E00E23FB181B78012213400AD07B6977
S21401286024229B5CDBB2002B04D17B69DB687A698E
S214012870100098477B6925229B5CDBB2052B2ED086
S2140128807B6925229B5CDBB2002B28D03B690322A7
S2140128901A757B6900225A837B6900229A837B69B9
S2140128A025229B5CDBB2412B0ED07B699B7A002BE9
S2140128B00AD07B6918000E4B98473B695B68E0229B
S2140128C0D2021A433B695A600E23FB181B78042276
S2140128D0134004D07B695B697A6910009847C0464B
S2140128E0BD4606B080BDC046842F0020C922010027
S2140128F0392101004D2201005D21010080B588B01B
S21401290000AF78601F23FB1800221A70404B180096
S214012910404B98471323FB1818003F4B984703007A
S214012920BB61BB69013303D196203C4B9847F1E765
S2140129301323FB181B780A2B21D1394B1800354B72
S21401294098473849384B64221800384B984703009B
S2140129507B61344B632200219954324B18002D4B76
S21401296098477B69002BECD11F23FB1800221A70B5
S2140129702D4B3222002118002D4B9847CAE713230E
S214012980FB181B780D2BC5D01323FB181B78082BBF
S21401299004D01323FB181B787F2B1CD10C23FB18A8
S2140129A0244A12681A600C23FB181800194B984722
S2140129B01F23FB181B78002B28D01F23FB181A781F
S2140129C01F23FB18013A1A701F23FB181B78164A9F
S2140129D00021D1541AE01F23FB181B78312B0FD886
S2140129E01F23FB181B781322BA18127851B20E4A0D
S2140129F0D1541F23FB181A781F23FB1801321A70B3
S214012A001323FB181800034B984783E7C04681E75A
S214012A102CBE0100C56B0100616C01005955010017
S214012A2070BE0100C800002094000020E93E0100AD
S214012A3093B5010074BE010080B582B000AF0200FC
S214012A40FB1D1A70064BFA1D127811001F220A4050
S214012A50012191400A001A60C046BD4602B080BD01
S214012A6000E100E080B584B000AF78607B681B6849
S214012A70FB60FB68DB69072213405A1E9341DBB2F9
S214012A801800BD4604B080BD80B582B000AF786046
S214012A90C0467B681800044B9847031EF9D1C04610
S214012AA0BD4602B080BDC046652A010080B582B031
S214012AB000AF78607B6864221A607B681B4A5A60A4
S214012AC07B6800229A607B6800221A737B6800226A
S214012AD01A767B68802292031A617B680122524231
S214012AE0DA827B68012252429A827B680022DA618E
S214012AF07B6800221A627B682422002199547B6835
S214012B0000229A627B682C22002199547B682D2230
S214012B10002199547B682E22002199547B68D72284
S214012B201A86C046BD4602B080BDC046480D0000AC
S214012B3080B584B000AF78607B681B68BB600023FB
S214012B40FB607B681800144B9847BB681B68022221
S214012B501A43BB681A607B681B6818000F4B9847BE
S214012B60030018000E4B98470CE0FB680133FB602E
S214012B707B68DB881A00FB689A4203D8BB68102280
S214012B805A8306E0BB685B8B9BB21A001023134086
S214012B90EBD0BD4604B080BD892A0100257B01002B
S214012BA0392A010080B582B000AF78600A00FB1CAC
S214012BB01A707B685B7EDBB25AB2FB1C1B78012164
S214012BC099400B005BB213435BB2DAB27B685A766C
S214012BD0C046BD4602B080BD90B591B000AF00239F
S214012BE0FB633A23FB1800221A703B1D1800214B89
S214012BF098473B1D204ADA613B1D204A1A623B1D5D
S214012C00FA229200DA823B23FB1803221A701EE096
S214012C103A23FC183A1D1A491A4B18001A4B9847C2
S214012C20030023703A23FB181B78002B04D13A23A8
S214012C30FB181B78FB630FE0124B1800134B9847E9
S214012C403B23FB181A783B23FB18013A1A703B23E7
S214012C50FB181B78002BDBD1FB6B002B04D1094B37
S214012C6018000B4B984700E0C046FB6B1800BD46AA
S214012C7011B090BDAD2A0100020008000200090053
S214012C8000080042102A0020493B01007D3C01005B
S214012C90312B010080B584B000AF78600E4B002266
S214012CA01A700D4B01229A600023FB600B4B1B68C8
S214012CB00C22BA1811001800094B9847094B00223C
S214012CC01A70FB68002B03D0074B802252051A604E
S214012CD0C046BD4604B080BD30010020382A002021
S214012CE0794A01002C01002004ED00E080B584B093
S214012CF000AF78600E4B00221A700D4B01229A60CD
S214012D000023FB600B4B1B680C22BA18110018003D
S214012D10094B9847094B00221A70FB68002B03D019
S214012D20074B802252051A60C046BD4604B080BDDE
S214012D3030010020382A0020794A01002C010020A9
S214012D4004ED00E080B584B000AF78600E4B002241
S214012D501A700D4B01225A600023FB600B4B1B6857
S214012D600C22BA1811001800094B9847094B00228B
S214012D701A70FB68002B03D0074B802252051A609D
S214012D80C046BD4604B080BD30010020382A002070
S214012D90794A01002C01002004ED00E080B500AF67
S214012DA01149124B00221800114B98470F4B002176
S214012DB01800104B984710490C4B012218000C4B79
S214012DC098470A4B012118000A4B98470B49074BB5
S214012DD002221800064B9847044B02211800054BA7
S214012DE09847C046BD4680BD952C0100102A00209C
S214012DF085230100A52B0100ED2C0100452D0100C6
S214012E0080B582B000AF00237B60144B9847030067
S214012E107B607B68002B1AD1114B98470120114B20
S214012E2098470200104B1A600322002101200F4B25
S214012E30984702000E4B1A600B4B1B68002B03D001
S214012E400B4B1B68002B03D106237B6000E0C046BA
S214012E507B681800BD4602B080BDC046D92B010074
S214012E609D2D0100394701000C2A0020454601002E
S214012E70382A002090B589B000AF78600023FB6146
S214012E800023BB6100237B6100233B617B68002B31
S214012E9003D07B685B68002B03D108235B42FB6190
S214012EA01FE07B681B789AB2104B1A807B685A68C1
S214012EB00E4B5A607B68DA890C4B5A800F23FC183C
S214012EC00A4A0B4B110018000A4B9847030023705F
S214012ED00F23FB181B78002B03D006235B42FB61F4
S214012EE0C046FB691800BD4609B090BD3C2A0020CB
S214012EF0102A00200926010090B589B000AF78603D
S214012F000023FB610023BB6100237B6100233B613F
S214012F107B68002B03D07B685B68002B03D10823FA
S214012F205B42FB611FE07B681B789AB2104B1A80EC
S214012F307B685A680E4B5A607B68DA890C4B5A805C
S214012F400F23FC180A4A0B4B110018000A4B98472E
S214012F50030023700F23FB181B78002B03D00623D6
S214012F605B42FB61C046FB691800BD4609B090BDD7
S214012F703C2A0020102A00204926010090B589B07D
S214012F8000AF78600023FB610023BB6100237B61F7
S214012F9000233B617B68002B03D07B685B68002BBA
S214012FA003D108235B42FB611FE07B681B789AB262
S214012FB0104B1A807B689A680E4B5A607B689A8918
S214012FC00C4B5A800F23FC180A4A0B4B11001800B1
S214012FD00A4B9847030023700F23FB181B78002B1E
S214012FE003D006235B42FB61C046FB691800BD4661
S214012FF009B090BD3C2A0020102A0020252501009A
S21401300090B583B000AF00237B60094B186800239E
S21401301000220021074CA0470300012B02D01423F5
S2140130205B427B607B681800BD4603B090BDC0461E
S2140130300C2A00207947010080B584B000AF786083
S2140130400023FB60084B1B687A6811001800074BC9
S21401305098470300012B02D01D235B42FB60FB68EF
S2140130601800BD4604B080BD0C2A0020194D010091
S21401307080B584B000AF78600023FB60044B1A680B
S2140130807B681A60FB681800BD4604B080BDC04668
S214013090382A002080B500AF024B1B781800BD46C9
S2140130A080BDC0462C01002080B582B000AF020072
S2140130B0FB1D1A70034BFA1D12781A70C046BD46E6
S2140130C002B080BD2C01002080B584B000AF7860CE
S2140130D039600023FB600023BB600023FB603B6874
S2140130E01800264B98470300FB60FB68002B36D17F
S2140130F00823FB181800224B98470300FB60FB6867
S214013100002B2ED17B6818001E4B98470300FB60EE
S214013110FB68002B28D1BB683A68110018001A4BCF
S21401312098470300012B11D1184B9847031E11D065
S2140131300020174B9847FB68002B03D021235B42E6
S214013140FB6012E003235B42FB600EE003235B425D
S214013150FB600AE00F4B98470300FB6002E0C046A5
S21401316000E0C046FB6805E0C0460A4B98470300EE
S214013170FB60FB681800BD4604B080BD3930010015
S21401318071300100752E0100194D010095300100C6
S214013190A93001000130010080B586B000AFF860AB
S2140131A0B9607A6000237B6100233B6100237B6169
S2140131B07B681800384B984703007B617B69002BBE
S2140131C05BD11023FB181800344B984703007B6132
S2140131D07B69002B53D1FB681800314B98470300DD
S2140131E07B617B69002B4DD13B697A681100180021
S2140131F02C4B98470300012B11D12B4B9847031EEC
S21401320011D00020294B98477B69002B03D021233E
S2140132105B427B6137E003235B427B6133E0032340
S2140132205B427B612FE0FB681800214B9847030047
S2140132307B613B697A68110018001A4B98470300B6
S214013240012B11D1184B9847031E11D00020174BA4
S21401325098477B69002B03D021235B427B6112E0F8
S21401326003235B427B610EE003235B427B610AE042
S214013270104B984703007B6102E0C04600E0C04661
S2140132807B6905E0C0460B4B984703007B617B6971
S2140132901800BD4606B080BD39300100713001000E
S2140132A0F92E0100194D010095300100A9300100E9
S2140132B07D2F01000130010080B582B000AF0023F0
S2140132C07B60214B00221A701F4B00225A701E4B46
S2140132D00222190000201D4B984703007B601A4B01
S2140132E0022219000120194B984703007B60164BF8
S2140132F0022219000220154B984703007B60124BEF
S214013300022219000320114B984703007B600E4BE5
S2140133100222190004200D4B984703007B600A4BDC
S214013320022219000520094B984703007B60064BD3
S214013330022219000620054B984703007B607B6834
S2140133401800BD4602B080BD682A00200134010085
S21401335080B582B000AF00237B60094B00221A7053
S214013360074B08225A70064B022219000020054B13
S214013370984703007B607B681800BD4602B080BD9D
S214013380682A00200134010080B582B000AF002316
S2140133907B60094B01221A70074B00225A70064BBC
S2140133A0022219000020054B984703007B607B68CA
S2140133B01800BD4602B080BD682A00200134010015
S2140133C080B584B000AF78600023FB600A4B022210
S2140133D019000420094B98470300FB60064B1B7835
S2140133E01A00054B5B781B021A437B681A60FB6860
S2140133F01800BD4604B080BD582A0020753401006F
S21401340080B584B000AF39601100FB1D021C1A7034
S2140134103B1D0A1C1A800023FB60114B48221A70C0
S214013420104BFA1D12781A700F483B1D1A883B681C
S21401343019000E4B98473B1D1B8801339AB2084B67
S214013440DA81074B074A5A60054B64211800084B7E
S21401345098470300FB60FB681800BD4604B080BDBA
S214013460482A00205C2A00205D2A00205DB5010064
S214013470C930010080B584B000AF39601100FB1D72
S214013480021C1A703B1D0A1C1A800023FB60124B9B
S21401349048221A70114BFA1D12781A700F4B00222F
S2140134A05A700D4B0122DA810B4B0C4A5A600A4BBB
S2140134B03A1D12889A81084B3A689A60064B642234
S2140134C005211800064B98470300FB60FB681800AF
S2140134D0BD4604B080BDC046482A00205C2A0020B4
S2140134E09931010090B587B000AF78600023FB608A
S2140134F000237B6100233B616420174B9847174BE1
S21401350098476420144B98476420134B9847144BF4
S2140135101800144B9847144B9847134B9847FA23B7
S2140135209B001800114B98470C23FB181800104BF2
S2140135309847FB680F4A10480F21104CA0470E4BC6
S2140135401800084B98470E4B9847FA239B00180023
S214013550064B9847E1E7C046196E0100B9320100F3
S21401356078BE0100C56B01005133010059550100B9
S214013570C133010090BE01004401002019B70100CB
S2140135808933010080B582B000AF78607B68002285
S2140135901A70C046BD4602B080BD000080B582B03C
S2140135A000AF02003960FB1D1A70FB1D1B78012B52
S2140135B00AD0022B0FD0002B14D10E4B0D4A916965
S2140135C03A680A439A610FE00A4B0A4AD1693A6897
S2140135D00A43DA6108E0074B064A116A3A680A4369
S2140135E01A6201E0172300E000231800BD4602B06E
S2140135F080BDC0460004004080B582B000AF786050
S2140136007B6880221A707B6800225A707B680122D0
S2140136109A707B680022DA70C046BD4602B080BD53
S21401362080B500AF054B9B78DBB21A00022313402E
S2140136305A1E9341DBB21800BD4680BD00200041F2
S21401364080B500AF024B9847C046BD4680BDC04618
S214013650496E010080B500AF024B9847C046BD4693
S21401366080BDC0469D6E010080B582B000AF0200ED
S214013670FB1D1A70074AFB1D1B7819001F230B4000
S214013680012199400B0019008023D150C046BD4648
S21401369002B080BD00E100E080B584B000AF786084
S2140136A07B681B68FB60FB68DB69072213405A1EB8
S2140136B09341DBB21800BD4604B080BD80B582B030
S2140136C000AF7860C0467B681800044B9847031E1D
S2140136D0F9D1C046BD4602B080BDC046993601004C
S2140136E080B584B000AF78607B681B68FB607B6840
S2140136F01B6818000D4B9847030018000C4B9847A1
S2140137007B6818000B4B9847FB6883221A75FB6889
S21401371083221A76FB681B68022293431A00FB6811
S2140137201A60C046BD4604B080BDC046257B010078
S21401373069360100BD360100F0B597B000AF78617B
S21401374039610023FB6300233B650023FB643B23B5
S21401375010229446BC44634400221A707B691B689D
S214013760BB637B691B687B6323231022BA18D418BA
S2140137707B6B1800C04B9847030023700C23102264
S2140137809446BC4463441800BC4B98473B69DB69CC
S2140137907B643B691B6A3B647B6C002B06D17B6BAD
S2140137A000211800B64B984703007B647B6CDAB2A5
S2140137B00C2310218C46BC4463441A700C2310223F
S2140137C09446BC44634402225A707B6C1B0CDBB2E9
S2140137D00C2210218C46BC44624411001800A94BEF
S2140137E098473B6C002B06D17B6B01211800A44B3C
S2140137F0984703003B643B6CDAB20C2310218C46DD
S214013800BC4463441A700C2310229446BC4463449F
S21401381002225A703B6C1B0CDBB20C2210218C4628
S214013820BC44624411001800964B98473B699A8A3B
S2140138307B69DA803B69DA8A7B691A813B691B7E80
S214013840002B03D1904B9847031E02D080237B6543
S21401385001E000237B653B691B69002B04D03B69B3
S2140138601B697A6D13437B653B699B687A6D1343CD
S2140138707B653B6924229B5C002B04D07B6D8022F8
S214013880D20513437B653B699B6A002B04D03B69D9
S2140138909B6A7A6D13437B653B692C229B5C002BEC
S2140138A005D13B699A6880239B049A4204D17B6DBB
S2140138B08022120513437B653B692D229B5C002BFE
S2140138C004D07B6D8022120413437B653B692E2254
S2140138D09B5C002B04D07B6D8022D20313437B6557
S2140138E0BB6B1A687B6D1A43BB6B1A60BB6B80227D
S2140138F052005A60232310229446BC4463441B782A
S2140139001433DBB21800614B98470300FB623B6936
S2140139101B68FA2292005343BB623B695B68FA223A
S214013920920053437B623B691B8E3B62584BF86A9D
S214013930984705000E00564BB86A9847B860F9607C
S214013940534BF86A9847534C534A544BA0470300CD
S2140139500C003B607C604E4B386A984702000B00B7
S2140139604C4C38687968A04703000C001800210009
S2140139704B4C00224B4BA04703000C001A002300BF
S214013980444CB868F968A04703000C001A002300ED
S214013990454C28003100A04703000C001D002600FE
S2140139A0BB6A5A003A4B1000984702000B003C4C89
S2140139B028003100A04703000C00180021003A4CF3
S2140139C000223A4BA04703000C001D002600BB6AEC
S2140139D05A002F4B1000984702000B00344C280069
S2140139E03100A04703000C0019002200314B0800EB
S2140139F0110098470300FB633B699A6880239B0488
S214013A009A426AD1224BF86A9847254C02000B006D
S214013A10A04703000C001D0026001D4B786A98473E
S214013A201C4C0022244BA04703000C001A00230064
S214013A301F4C28003100A04703000C00180021008D
S214013A40194C0022194BA04703000C001900220054
S214013A50184B0800110098470300FB64FB6C002B11
S214013A602ED0164B796AF86A984703009A1EFB6CAB
S214013A70D31A3B6531E0C046557A0100F93501009D
S214013A80997801005596010021360100199401002C
S214013A9055B40100C1A8010095D626E80B2E113EAB
S214013AA0399C010000002440C1AD01000000F03F38
S214013AB059A20100EDB3010000000840CD9A0100B3
S214013AC07B6A5A00FB6AD3185A1E7B6A59001D4B43
S214013AD0100098470300013B3B65FB6BFF2B08DC9E
S214013AE0FB6B002B05DB3B6DFF2B02DC3B6D002BDC
S214013AF006DA3B2310229446BC44634440221A70E3
S214013B003B2310229446BC4463441B78402B0ED0C2
S214013B10FB6BFF221A403B6D1B041900FF231B049D
S214013B200B401343FA6C12061A43BB6BDA603B2355
S214013B3010229446BC4463441B781800BD4617B057
S214013B40F0BDC046CD9A010090B58BB000AFF860CD
S214013B50B9607A60FB68BA681A60FB681B687B62AA
S214013B60FB681B6818003B4B984703003B623B6AA7
S214013B700233FB613B6A1433BB610122FB699A4045
S214013B80130019000220344B98471423FB18180021
S214013B90324B98477B681A7B1423FB181A70BB6953
S214013BA0DBB21422BA18110018002D4B9847BB69D6
S214013BB0DBB218002B4B98477B681B7B0021180053
S214013BC0294B98477B6A1B680222134001D01C23AD
S214013BD03BE07B6A1B680122134001D0052334E0D9
S214013BE0FB681B681722BC1818001A4B984703007D
S214013BF023701E4A1723FB181B78110018001C4B54
S214013C0098471723FB181A781A4B9200F968D15077
S214013C10FB6800221A76FB6800225A76FB680022AF
S214013C205A83FB6800229A83FB6825220021995457
S214013C30FB6800221A627B6A14221A607A68FB68A3
S214013C40110018000C4B984703001800BD460BB036
S214013C5090BDC046557A01009D35010085350100AD
S214013C60F5920100399301000D78010089260100C3
S214013C70B97A0100842F00203937010080B584B05D
S214013C8000AF78607B681B68FB607B6818000F4B91
S214013C9098477B6818000E4B98470E4B98477B68F1
S214013CA01B6818000C4B9847030018000B4B9847ED
S214013CB00B4B98477B681800044B9847FB6801221A
S214013CC01A60C046BD4604B080BDC046BD36010080
S214013CD0E136010041360100257B010071940100A7
S214013CE05536010080B584B000AF78607B681B68EC
S214013CF0FB60FB681B7EDBB21A00022313400BD06D
S214013D00FB6802221A76FB685B8B9BB21A000223C1
S214013D10134011D0412310E0FB685B8B9BB21A0065
S214013D200423134008D0FB685B68C02292021A4342
S214013D30FB685A60182300E000231800BD4604B053
S214013D4080BD80B584B000AF78607B681B68BB60BF
S214013D500E23FB1800221A800FE00E23FB180E22FA
S214013D60BA18128801321A807B681B890E22BA188B
S214013D7012889A4201D312230EE0BB681B7EDBB287
S214013D801A000123134006D1BB681B7EDBB21A0062
S214013D9002231340E1D000231800BD4604B080BDC5
S214013DA090B585B000AF78600A00FB1C1A707B687E
S214013DB01B68FB60FB685B688022D2021A43FB68C3
S214013DC05A60FB1C1A78FB685A620B23FC187B6846
S214013DD01800074B984703002370FB6801221A76E8
S214013DE00B23FB181B781800BD4605B090BDC046D6
S214013DF0433D010080B500AF0020024B9847C04606
S214013E00BD4680BD313E010080B500AF0120024BAA
S214013E109847C046BD4680BD313E010080B500AF23
S214013E200220024B9847C046BD4680BD313E010088
S214013E3080B584B000AF0200FB1D1A70FB1D1A7816
S214013E40284B9200D358FB60FB681B689B7BDBB258
S214013E50FA68127E1340DAB2FB68597E0B23FB1810
S214013E600A401A700B23FB181B780122134008D056
S214013E70FB689B68FA6810009847FB681B6801227C
S214013E809A730B23FB181B780222134008D0FB6899
S214013E90DB68FA6810009847FB681B6802229A7371
S214013EA00B23FB181B781022134008D0FB681B69F4
S214013EB0FA6810009847FB681B6810229A730B2358
S214013EC0FB181B782022134008D0FB685B69FA6850
S214013ED010009847FB681B6820229A73C046BD46AF
S214013EE004B080BD6C2A002080B588B000AFF860B1
S214013EF0B9607A600123FB613D4B1B68002B44D1FE
S214013F003B4B3C4A1A603AE0394B1B681B681B68FE
S214013F10BB61BB691800384B984703007B61FA68A0
S214013F207B69D3181B78202B05D0FA687B69D318D8
S214013F301B78002B1ED17A69B969FB6818002F4BD4
S214013F409847031E16D12A4B1B681B681B7B5BB266
S214013F50002B19DBFB681800294B984703001A0051
S214013F60234B1B681B681B7B5BB29A420CD0002359
S214013F70FB6109E01E4B1B685A681D4B1A601C4BFF
S214013F801B68002BC0D100E0C046194B1B68002BF4
S214013F900CD0FB69002B09D17A681A49BB68180056
S214013FA0194B9847124B00221A601CE0104B1B68F5
S214013FB0002B10D00E4B1B681B689B68FA6879684B
S214013FC0B86898470300FB61FB69002B0BD1084BCF
S214013FD000221A6007E07A680C49BB6818000A4B91
S214013FE098470023FB61FB691800BD4608B080BDF9
S214013FF058010020000000207DB701008BB70100AA
S21401400071400100D8BE0100ADB7010030BF01000C
S21401401080B586B000AFF860B9607A60114B1B6856
S214014020002B02D10F4B104A1A600E4B1B681B68FF
S2140140305968BA68FB6818000C4B9847094B1B680F
S2140140405A68084B1A60074B1B68002B02D10023E5
S2140140507B6101E001237B617B691800BD4606B0E8
S21401406080BDC0465C01002000000020ADB7010005
S21401407080B584B000AF78600F23FB1800221A7059
S2140140800023BB6018E07B681B78202B0FD1BB6830
S214014090012B0ED00F23FB181B785BB2DBB201336A
S2140140A0DAB20F23FB181A700123BB6001E000236C
S2140140B0BB607B6801337B607B681B78002BE2D199
S2140140C0BB68012B09D10F23FB181B785BB2DBB24F
S2140140D0013BDAB20F23FB181A700F23FB181B786B
S2140140E05BB21800BD4604B080BD80B582B000AF9B
S2140140F078607B6808331A007B685A607B68012207
S21401410052429A607B6808331A007B68DA607B68E3
S21401411008331A007B681A617B6800221A60C04661
S214014120BD4602B080BD80B582B000AF78607B68C6
S21401413000221A61C046BD4602B080BD80B584B07B
S21401414000AF786039607B685B68FB603B68FA6843
S2140141505A60FB689A683B689A60FB689B683A6895
S2140141605A60FB683A689A603B687A681A617B68AD
S2140141701B685A1C7B681A60C046BD4604B080BDE9
S21401418080B584B000AF786039603B681B68BB605F
S214014190BB68013303D17B681B69FB600CE07B685D
S2140141A00833FB6002E0FB685B68FB60FB685B68EA
S2140141B01A68BB689A42F6D9FB685A683B685A6027
S2140141C03B685B683A689A603B68FA689A60FB6885
S2140141D03A685A603B687A681A617B681B685A1CA1
S2140141E07B681A60C046BD4604B080BD80B584B009
S2140141F000AF78607B681B69FB607B685B687A68E8
S21401420092689A607B689B687A6852685A60FB6815
S2140142105A687B689A4203D17B689A68FB685A6041
S2140142207B6800221A61FB681B685A1EFB681A60CD
S214014230FB681B681800BD4604B080BD80B584B01D
S21401424000AFF860B9607A60FB68043BFB60FB680E
S214014250802252041A60FB68043BFB60BA68FB6864
S2140142601A60FB68043BFB60084AFB681A60FB683F
S214014270143BFB607A68FB681A60FB68203BFB60B6
S214014280FB681800BD4604B080BDC04691420100DF
S21401429080B582B000AF00237B60074B1B680133FB
S2140142A001D072B6FEE772B6C0467B68002BFCD022
S2140142B0C046BD4602B080BD0800002080B500AFF4
S2140142C0C046BD4680BD00000000000000000000A2
S2140142D00B4A13681868203080F30988022080F39F
S2140142E01488BFF36F8F3FBCAE4608BC04BC62B6F1
S2140142F01847C046C046C046C046C046C046C0462F
S21401430078280020C046C04680B500AF0E4B0E4A46
S2140143101268FF2109040A431A600B4B0A4A126805
S214014320FF2109060A431A60084B9847084B0022EA
S2140143301A60084B9847084B9847084B9847002344
S2140143401800BD4680BDC04620ED00E0694401006E
S21401435008000020D1420100015A010091420100EB
S21401436080B500AF034B802252051A60C046BD4699
S21401437080BDC04604ED00E080B500AF72B6064BC6
S2140143801B685A1C044B1A60BFF34F8FBFF36F8F25
S214014390C046BD4680BDC0460800002080B500AFBF
S2140143A0094B1B68002B01D172B6FEE7064B1B6852
S2140143B05A1E054B1A60044B1B68002B00D162B6CF
S2140143C0C046BD4680BDC04608000020EFF3108001
S2140143D072B67047C046180080F310887047C04612
S2140143E0EFF309800E4B1A6820381060F0C044467F
S2140143F04D4656465F46F0C008B572B601F000FB62
S21401440062B60CBC116808681030F0C8A046A94610
S214014410B246BB4680F309882038F0C81847C04624
S21401442078280020C046C04680B582B000AF0A4B4F
S214014430984703007B60094B9847031E03D0084B3F
S214014440802252051A607B681800064B9847C046C2
S214014450BD4602B080BDC046CD4301008D58010067
S21401446004ED00E0D9430100B0B500AF0B4B0022CC
S2140144701A600B4B00221A600A4C00200A4B984720
S2140144800A4BFA22910098470300013B2360034B35
S21401449007221A60C046BD46B0BDC04610E000E027
S2140144A018E000E014E000E01D920100CD9A010042
S2140144B080B584B000AF78600023FB607B6807227C
S2140144C0134004D07B680722934308337B60194B63
S2140144D09847194B1B68002B05D1184B07229343AD
S2140144E01A00154B1A60164B1A687B68D318154AC2
S2140144F0934213D8124B1A687B68D218104B1B686C
S2140145009A420BD90C4B1A680D4B1B68D318FB60EB
S2140145100B4B1A687B68D218094B1A600A4B9847EE
S214014520FB68002B01D1094B9847FB681800BD4674
S21401453004B080BD255701007428002068010020C2
S21401454070280020072700003D5701009D9A0100B2
S21401455080B582B000AF78607B68002B01D072B660
S214014560FEE7C046BD4602B080BD000080B500AF84
S214014570034B1B68034AD31A1800BD4680BDC046CC
S214014580702800200827000080B584B000AF78604E
S21401459039607B68FB60FB68002B01D172B6FEE7D1
S2140145A0234B9847FB681A68FB68D96BFB681B6C42
S2140145B04B43D218FB685A60FB6800229A63FB687B
S2140145C01A68FB689A60FB681A68FB68DB6B591E01
S2140145D0FB681B6C4B43D218FB68DA60FB6844220D
S2140145E0FF219954FB684522FF2199543B68002B13
S2140145F00DD1FB681B69002B13D0FB681033180024
S2140146000C4B9847031E0CD00B4B984709E0FB68F0
S21401461010331800094B9847FB6824331800074BE2
S2140146209847074B984701231800BD4604B080BD44
S21401463079430100615B010061430100EB40010029
S2140146409D43010090B58BB002AFF860B960FB1DC9
S2140146501A70FB68002B01D172B6FEE7BB68002B0F
S21401466002D10023FB6103E0FB68BA685343FB6198
S214014670FB694C3318000C4B98470300BB61BB69C0
S214014680002B0CD0BB694C337B61FB1D1C787A690F
S214014690B968F868BB6900932300044CA047BB695E
S2140146A01800BD4609B090BDB1440100B1460100F5
S2140146B080B584B000AFF860B9607A601A00FB1C60
S2140146C01A70BB68002B03D1BB69BA691A6002E095
S2140146D0BB697A681A60BB69FA68DA63BB69BA684B
S2140146E01A64BB6901211800044B9847BB69002274
S2140146F09A64C046BD4604B080BDC04689450100E7
S21401470090B583B000AF78607B68002B0ED07B68D5
S21401471000225A607B6800221A607B680022DA60F9
S2140147207868002300220021024CA047C046BD46FF
S21401473003B090BD7947010080B586B000AF020096
S214014740FB1D1A7001237B6100233B61FB1D1A7858
S21401475039697B691800064B98470300FB60FB68C4
S2140147601800044B9847FB681800BD4606B080BD8C
S214014770454601000147010080B58AB000AFF860E8
S214014780B9607A603B6000237B62FB683B623B6AF0
S214014790002B01D172B6FEE7BB68002B03D13B6A42
S2140147A01B6C002B01D1012300E00023002B01D15B
S2140147B072B6FEE73B68022B03D13B6ADB6B012B2B
S2140147C001D1012300E00023002B01D172B6FEE7E0
S2140147D0534B9847031E02D17B68002B01D101235E
S2140147E000E00023002B01D172B6FEE74D4B98473F
S2140147F03B6A9A6B3B6ADB6B9A4202D33B68022B9D
S2140148002DD13A68B9683B6A1800474B98470300B0
S214014810FB613B6A9B6C002B0AD03A683B6A11002D
S2140148201800424B9847031E15D0414B984712E09B
S2140148303B6A5B6A002B09D03B6A243318003D4B68
S2140148409847031E07D03A4B984704E0FB69002BB4
S21401485001D0374B9847384B984701235CE07B687B
S214014860002B03D1344B9847002355E07B6A002B7D
S21401487006D11423FB181800304B984701237B629E
S2140148802D4B98472E4B9847264B98473B6A442218
S2140148909B5C5BB2013303D13B6A442200219954ED
S2140148A03B6A45229B5C5BB2013303D13B6A4522DE
S2140148B000219954204B98473A1D1423FB181100E8
S2140148C01800204B9847031E1FD13B6A18001E4B49
S2140148D09847031E12D03B6A10337A6811001800FD
S2140148E01A4B98473B6A1800194B9847194B98473B
S2140148F0031E00D07AE70E4B984777E73B6A18000D
S214014900134B9847134B984770E73B6A1800104BB8
S2140149109847104B984700231800BD460AB080BD43
S214014920995E010079430100394F01003D520100B3
S21401493061430100615B01009D430100215C0100B0
S21401494025570100495C01008D510100C95A01003B
S214014950695001003D57010080B588B000AFF8608E
S214014960B9607A603B60FB68BB61BB69002B01D113
S21401497072B6FEE7BB68002B03D1BB691B6C002B2C
S21401498001D1012300E00023002B01D172B6FEE71E
S2140149903B68022B03D1BB69DB6B012B01D10123E1
S2140149A000E00023002B01D172B6FEE72D4B98479D
S2140149B003007B61BB699A6BBB69DB6B9A4202D3CE
S2140149C03B68022B42D11323FB18BA694521525C7E
S2140149D01A703A68B968BB691800234B98471323C5
S2140149E0FB181B785BB2013324D1BB699B6C002B8F
S2140149F00ED03A68BB69110018001C4B9847031E7D
S214014A0021D07B68002B1ED07B6801221A601AE039
S214014A10BB695B6A002B16D0BB6924331800144BA4
S214014A209847031E0FD07B68002B0CD07B680122B1
S214014A301A6008E01323FB181B780133DBB259B266
S214014A40BB69452299540123FB6101E00023FB6108
S214014A507B691800074B9847FB691800BD4608B0EC
S214014A6080BDC046CD430100394F01003D520100D3
S214014A70615B0100D943010080B588B000AF786062
S214014A8039607B68BB61BB69002B01D172B6FEE75A
S214014A90BB691B6C002B01D072B6FEE7BB691B68B5
S214014AA0002B03D1BB695B68002B01D1012300E019
S214014AB00023002B01D172B6FEE72B4B984703006B
S214014AC07B61BB699B6B3B61BB69DA6B3B699A4255
S214014AD03FD90F23FB18BA694521525C1A703B690E
S214014AE05A1CBB699A630F23FB181B785BB2013310
S214014AF023D1BB699B6C002B0DD0BB69002118002C
S214014B001A4B9847031E21D03B68002B1ED03B68EA
S214014B1001221A601AE0BB695B6A002B16D0BB69DA
S214014B2024331800124B9847031E0FD03B68002B06
S214014B300CD03B6801221A6008E00F23FB181B7893
S214014B400133DBB259B2BB69452299540123FB619B
S214014B5001E00023FB617B691800064B9847FB695F
S214014B601800BD4608B080BDCD4301003D5201008E
S214014B70615B0100D943010080B58AB000AFF860DF
S214014B80B9607A6000237B62FB683B623B6A002B5C
S214014B9001D172B6FEE7BB68002B03D13B6A1B6CE2
S214014BA0002B01D1012300E00023002B01D172B6B6
S214014BB0FEE74C4B9847031E02D17B68002B01D1C0
S214014BC0012300E00023002B01D172B6FEE7464B1D
S214014BD098473B6A9B6BFB61FB69002B1AD0BA684E
S214014BE03B6A11001800414B9847FB695A1E3B6A05
S214014BF09A633B6A1B69002B08D03B6A1033180086
S214014C003B4B9847031E01D03A4B98473A4B98477F
S214014C10012362E07B68002B03D1374B98470023C2
S214014C205BE07B6A002B06D11423FB181800334B7C
S214014C30984701237B62304B9847314B98472A4B64
S214014C4098473B6A44229B5C5BB2013303D13B6AC3
S214014C504422002199543B6A45229B5C5BB2013396
S214014C6003D13B6A452200219954234B98473A1DAC
S214014C701423FB1811001800224B9847031E1ED15F
S214014C803B6A1800204B9847031E11D03B6A243319
S214014C907A68110018001D4B98473B6A18001C4B98
S214014CA098471C4B9847031E91D1124B98478EE7A5
S214014CB03B6A1800164B9847164B984787E73B6A9E
S214014CC01800134B9847134B98473B6A18000E4B36
S214014CD09847031E00D17AE700231800BD460AB0A4
S214014CE080BDC046995E010079430100195001005C
S214014CF0615B0100614301009D430100215C0100ED
S214014D0025570100495C010059510100C95A0100AB
S214014D10695001003D57010080B58AB000AF786048
S214014D20396000237B627B68FB6100233B62FB6981
S214014D30002B01D172B6FEE7FB691B6C002B01D07C
S214014D4072B6FEE7614B9847031E02D13B68002B03
S214014D5001D1012300E00023002B01D172B6FEE74A
S214014D605B4B9847FB699B6BBB61BB69002B1DD0F6
S214014D70BB695A1EFB699A63FB691B68002B04D149
S214014D80544B98470200FB695A60FB691B69002B6C
S214014D9008D0FB69103318004F4B9847031E01D00B
S214014DA04E4B98474E4B984701238BE03B68002BB0
S214014DB008D13B6A002B01D072B6FEE7484B9847F4
S214014DC000237FE07B6A002B06D10C23FB1818001A
S214014DD0444B984701237B62414B9847424B984787
S214014DE03B4B9847FB6944229B5C5BB2013303D182
S214014DF0FB69442200219954FB6945229B5C5BB206
S214014E00013303D1FB69452200219954344B98475D
S214014E103A000C23FB1811001800344B9847031E68
S214014E202ED1FB691800324B9847031E21D0FB692F
S214014E301B68002B0AD1264B9847FB695B68180054
S214014E402C4B984703003B62254B9847FB6924335C
S214014E503A6811001800284B9847FB691800274B41
S214014E609847274B9847031E00D079E71B4B984776
S214014E7076E7FB691800214B9847214B98476FE767
S214014E80FB6918001D4B98471D4B9847FB69180096
S214014E90174B9847031E00D162E73B6A002B10D0E0
S214014EA00B4B9847FB691800164B984703007B612C
S214014EB0FB695B687A6911001800134B9847084B29
S214014EC0984700231800BD460AB080BD995E0100D0
S214014ED07943010065610100615B010061430100E6
S214014EE09D430100215C010025570100495C01003A
S214014EF059510100D15E0100C95A010069500100F3
S214014F003D5701000D4F01007560010080B584B06A
S214014F1000AF78607B685B6A002B06D07B681B6BF2
S214014F201B680522D31AFB6001E00023FB60FB68C7
S214014F301800BD4604B080BD80B586B000AFF860ED
S214014F40B9607A6000237B61FB689B6B3B61FB6801
S214014F501B6C002B0ED1FB681B68002B4ED1FB6827
S214014F605B6818002A4B984703007B61FB680022A8
S214014F705A6043E07B68002B19D1FB689868FB6890
S214014F801A6CBB681900234B9847FB689A68FB6844
S214014F901B6CD218FB689A60FB689A68FB685B68B2
S214014FA09A422BD3FB681A68FB689A6026E0FB6876
S214014FB0D868FB681A6CBB681900164B9847FB68E3
S214014FC0DA68FB681B6C5B42D218FB68DA60FB6828
S214014FD0DA68FB681B689A4207D2FB685A68FB6866
S214014FE01B6C5B42D218FB68DA607B68022B05D12A
S214014FF03B69002B02D03B69013B3B613B695A1C74
S214015000FB689A637B691800BD4606B080BDC04642
S214015010B55F01005DB5010080B582B000AF786074
S21401502039607B681B6C002B18D07B68DA687B685C
S2140150301B6CD2187B68DA607B68DA687B685B6811
S2140150409A4203D37B681A687B68DA607B68D96802
S2140150507B681A6C3B681800024B9847C046BD46F1
S21401506002B080BD5DB5010080B584B000AF786048
S214015070344B98470F23FB187A684521525C1A7007
S21401508022E07B689B6C002B09D07B68002118000E
S2140150902D4B9847031E0FD02C4B98470CE07B688E
S2140150A05B6A002B17D07B6824331800284B98477F
S2140150B0031E01D0254B98470F23FB181B78013B95
S2140150C0DAB20F23FB181A700F23FB181B785BB29A
S2140150D0002BD6DC00E0C0467B684522FF219954B0
S2140150E01C4B9847174B98470E23FB187A684421A8
S2140150F0525C1A7014E07B681B69002B17D07B6822
S21401510010331800124B9847031E01D00F4B9847D7
S2140151100E23FB181B78013BDAB20E23FB181A701C
S2140151200E23FB181B785BB2002BE4DC00E0C046C4
S2140151307B684422FF219954064B9847C046BD46DA
S21401514004B080BD794301003D520100F55C0100C9
S214015150615B01009D43010080B584B000AF7860BB
S214015160084B98477B689B6B002B02D10123FB60A1
S21401517001E00023FB60044B9847FB681800BD461E
S21401518004B080BD794301009D43010080B584B021
S21401519000AF7860094B98477B689A6B7B68DB6B3E
S2140151A09A4202D10123FB6001E00023FB60044B1D
S2140151B09847FB681800BD4604B080BD79430100DE
S2140151C09D43010080B586B000AFF860B9607A6093
S2140151D0FB687B61154B98477B6944229B5C5BB2FD
S2140151E0013303D17B694422002199547B6945220E
S2140151F09B5C5BB2013303D17B6945220021995444
S2140152000B4B98477B699B6B002B06D17B6924333C
S2140152107A68B9681800074B98477B691800064BEF
S2140152209847C046BD4606B080BDC04679430100DA
S2140152309D4301000D5B01006950010080B586B0F9
S21401524000AF786039607B689B6C3B6100237B61B3
S2140152503B69002B01D172B6FEE73B699A6B3B694D
S214015260DB6B9A4201D372B6FEE73B699A6B3B69E8
S214015270DB6B9A422AD20F23FB183A694521525C0E
S2140152801A703A68391D3B691800134B984703009A
S2140152907B610F23FB181B785BB201330DD13B6991
S2140152A05B6A002B12D03B69243318000B4B9847DE
S2140152B0031E0BD001237B6108E00F23FB181B782C
S2140152C00133DBB259B23B69452299547B69180018
S2140152D0BD4606B080BDC046394F0100615B010086
S2140152E090B58DB004AFF860B9603B60BB1D1A8005
S2140152F0BB1D1B889B0018001D4B984703007B6154
S2140153007B69002B10D04C20194B98470300FB619A
S214015310FB69002B03D0FB697A691A6306E07B6997
S2140153201800144B984701E00023FB61FB69002B32
S21401533016D0BB1D1A883C68B968F8680023039329
S214015340FB6902937B6B01933B6B009323000A4C32
S214015350A047FB691800094B98470123BB6102E08F
S21401536001235B42BB61BB691800BD4609B090BD15
S214015370B144010051450100815301007D540100F3
S21401538080B586B000AFF860B9607A603B60BB6AF2
S2140153901A6B7B6836498C4663449B00D3183B6185
S2140153A03B69072293433B613B690722134001D0C7
S2140153B072B6FEE700237B6113E0BA687B69D318F7
S2140153C01878BA6A34217B69D3185B18021C1A70E4
S2140153D0BA687B69D3181B78002B06D07B6901332A
S2140153E07B617B69072BE8D900E0C046BB6A3B229C
S2140153F0002199543B6A042B01D904233B62BB6A02
S2140154003A6ADA62BB6A3A6ADA63BB6A00221A64EB
S214015410BB6A04331800174B9847BB6A1833180049
S214015420144B9847BB6ABA6A1A613B6A0522D21ABC
S214015430BB6A9A61BB6ABA6A5A62BB6A00225A643C
S214015440BB6A4822002199543A68F9683B691800FA
S214015450094B98470200BB6A1A607B6A002B02D090
S2140154607B6ABA6A1A60C046BD4606B080BDC046B1
S214015470FFFFFF3F274101003D42010080B582B09A
S21401548000AF7860294B9847294B1B685A1C284B5C
S2140154901A60284B1B68002B09D1264B7A681A60C4
S2140154A0234B1B68012B10D1234B98470DE0234B50
S2140154B01B68002B09D11F4B1B68DA6A7B68DB6A05
S2140154C09A4202D81B4B7A681A601D4B1B685A1CFD
S2140154D01B4B1A607B68DA6A1A4B1B689A4203D91F
S2140154E07B68DA6A174B1A607B68DA6A13009B00DE
S2140154F09B189B00144A9A187B6804331900100005
S214015500124B9847124B98470C4B1B68002B08D040
S214015510084B1B68DA6A7B68DB6A9A4201D20D4B3C
S2140155209847C046BD4602B080BDC04679430100DB
S2140155305029002078280020315D01005C290020D8
S2140155406C290020582900207C2800203D410100BC
S2140155509D4301006143010080B584B000AF7860CF
S2140155600023FB607B68002B10D00D4B1B68002BC3
S21401557001D072B6FEE70B4B98477B6800211800F6
S214015580094B9847094B98470300FB60FB68002BC3
S21401559001D1074B9847C046BD4604B080BDC04602
S2140155A07829002025570100896101003D57010037
S2140155B06143010080B584B000AF78602B4B9847FB
S2140155C07B68002B02D12A4B1B6800E07B68FB60DE
S2140155D0FB6804331800274B9847FB689B6A002B2F
S2140155E004D0FB6818331800224B9847FB681A1D35
S2140155F0214B11001800214B9847FB6848229B5C01
S214015600DBB2012B03D1FB684822002199541C4BC5
S21401561098471C4B1B68002B05D0144B98471A4B18
S2140156209847174B9847124B1B68FA689A4218D14D
S214015630144B1B68002B08D0144B1B68002B01D0A1
S21401564072B6FEE7124B98470BE00B4B1A68114BEC
S2140156501B689A4203D1064B00221A6001E00E4BEA
S2140156609847C046BD4604B080BDC0467943010098
S21401567078280020ED4101003C2900203D41010031
S2140156809D4301005C290020515E0100782900201D
S2140156906143010050290020015A010090B585B0F0
S2140156A002AFFA235A0016491648174B01930023F6
S2140156B000930023154CA04703007B607B68012BF9
S2140156C003D1134B984703007B607B68012B0DD1F8
S2140156D072B6104B012252421A600F4B01221A6019
S2140156E00E4B00221A600E4B984704E07B6801338C
S2140156F001D172B6FEE7C046BD4603B090BDC046B6
S21401570090BF0100095D010074290020E1520100EB
S2140157103D620100702900205C29002054290020E8
S2140157200943010080B500AF034B1B685A1C024BAE
S2140157301A60C046BD4680BD7829002080B584B079
S21401574000AF0023FB600023BB603A4B1B68002BB5
S21401575001D172B6FEE7384B9847364B1B685A1E86
S214015760344B1A60334B1B68002B5BD1334B1B68E1
S214015770002B57D02FE0324BDB68DB68FB60FB6801
S214015780183318002F4B9847FB68043318002D4B2D
S2140157909847FB68DA6A2C4B1B689A4203D9FB6868
S2140157A0DA6A294B1A60FB68DA6A13009B009B18B9
S2140157B09B00264A9A18FB68043319001000244BF4
S2140157C09847FB68DA6A234B1B68DB6A9A4202D366
S2140157D0214B01221A601A4B1B68002BCBD1FB68A8
S2140157E0002B01D01D4B98471D4B1B687B607B68C7
S2140157F0002B0FD01B4B9847031E02D0164B0122DD
S2140158001A607B68013B7B607B68002BF2D1144BEE
S21401581000221A60104B1B68002B03D00123BB60CB
S214015820114B9847114B9847BB681800BD4604B00A
S21401583080BDC04678290020794301005029002008
S21401584010290020ED410100582900207C28002065
S2140158503D4101007828002064290020515E0100A6
S214015860602900208D580100614301009D4301001D
S21401587080B582B000AF044B1B687B607B68180064
S214015880BD4602B080BDC0465429002080B586B012
S21401589000AF00237B614C4B1B68002B00D083E0DC
S2140158A04A4B1B6801333B61484B3A691A603B69B6
S2140158B0002B17D1464B1B681B68002B01D072B614
S2140158C0FEE7434B1B68FB60424B1A68404B1A606D
S2140158D0404BFA681A60404B1B685A1C3E4B1A60D4
S2140158E03E4B98473E4B1B683A699A424ED3384B1B
S2140158F01B681B68002B01D1012300E00023002B4D
S21401590004D0374B012252421A603FE0304B1B68ED
S214015910DB68DB68BB60BB685B687B603A697B6899
S2140159209A4203D22E4B7A681A602FE0BB68043382
S21401593018002C4B9847BB689B6A002B04D0BB68A9
S21401594018331800274B9847BB68DA6A264B1B6842
S2140159509A4203D9BB68DA6A234B1A60BB68DA6AD3
S21401596013009B009B189B00204A9A18BB680433BF
S214015970190010001E4B9847BB68DA6A1D4B1B685E
S214015980DB6A9A42B3D301237B61B0E7194B1B68EC
S214015990DA6A164913009B009B189B005B58012B83
S2140159A007D901237B6104E0134B1B685A1C124B79
S2140159B01A60124B1B68002B01D001237B617B69A7
S2140159C01800BD4606B080BD782900205429002065
S2140159D0082900200C29002068290020515E0100BA
S2140159E070290020ED410100582900207C28002064
S2140159F03D4101007828002060290020642900200C
S214015A0080B582B000AF2A4B1B68002B03D0294B10
S214015A1001221A6048E0274B00221A60264B1B68B9
S214015A201A68254B1B681B6B9A4208D8224B1A68CA
S214015A30214B1B68343319001000204B9847204B2C
S214015A401B687B6007E07B68002B01D172B6FEE71E
S214015A507B68013B7B601B497A6813009B009B189F
S214015A609B005B58002BEED07A6813009B009B18B6
S214015A709B00144A9B183B603B685B685A683B680E
S214015A805A603B685A683B6808339A4204D13B68BF
S214015A905B685A683B685A603B685B68DA68064B25
S214015AA01A60074B7A681A60C046BD4602B080BDD0
S214015AB0782900206429002078280020B59A010062
S214015AC0582900207C28002080B582B000AF78607D
S214015AD039607B68002B01D172B6FEE7084B1B6864
S214015AE018331A007B6811001800064B98473B686C
S214015AF001211800044B9847C046BD4602B080BD40
S214015B0078280020814101008961010080B584B0B8
S214015B1000AFF860B9607A60FB68002B01D172B6FD
S214015B20FEE70C4B1B6818331A00FB6811001800BF
S214015B30094B98477B68002B02D001235B42BB6070
S214015B407A68BB6811001800044B9847C046BD46EA
S214015B5004B080BD782800203D4101008961010024
S214015B6080B584B000AF78607B68DB68DB68BB60BB
S214015B70BB68002B01D172B6FEE7BB68183318006C
S214015B801F4B98471F4B1B68002B1DD1BB68043366
S214015B9018001B4B9847BB68DA6A1B4B1B689A4276
S214015BA003D9BB68DA6A184B1A60BB68DA6A130055
S214015BB09B009B189B00154A9A18BB680433190072
S214015BC01000134B984707E0BB6818331A00114BB7
S214015BD0110018000E4B9847BB68DA6A0E4B1B681B
S214015BE0DB6A9A4205D90123FB600C4B01221A603D
S214015BF001E00023FB60FB681800BD4604B080BDD1
S214015C00ED41010078290020582900207C28002039
S214015C103D41010010290020782800206429002039
S214015C2080B582B000AF7860054B1A687B681A6051
S214015C30044B1A687B685A60C046BD4602B080BDF8
S214015C40682900205429002080B586B000AF78600E
S214015C5039607B68002B01D172B6FEE73B68002BEA
S214015C6001D172B6FEE71E4B98471E4B1B683B617F
S214015C707B685B683A69D31AFB603B681B68013333
S214015C8002D100237B6124E07B681A68164B1B68EF
S214015C909A4207D07B685A683B699A4202D8012328
S214015CA07B6116E03B681A68FB689A420CD93B6830
S214015CB01A68FB68D21A3B681A607B6818000B4B9F
S214015CC0984700237B6104E03B6800221A600123A9
S214015CD07B61074B98477B691800BD4606B080BDBF
S214015CE0794301005429002068290020215C010025
S214015CF09D43010080B500AF024B01221A60C046E9
S214015D00BD4680BD6429002080B582B000AF7860B2
S214015D10044B9847044B1B68012BF9D9034B984752
S214015D20F6E7C046BD5D01007C2800206143010006
S214015D3080B582B000AF00237B600CE07A68130068
S214015D409B009B189B00144A9B181800134B9847FE
S214015D507B6801337B607B68042BEFD9104B1800FE
S214015D600E4B98470F4B18000C4B98470E4B1800DC
S214015D700A4B98470D4B1800084B98470C4B1800D8
S214015D80064B98470B4B064A1A600B4B054A1A609E
S214015D90C046BD4602B080BD7C280020EB40010015
S214015DA0E0280020F42800201029002024290020C3
S214015DB03C290020082900200C29002080B582B04B
S214015DC000AF1AE0114B9847114BDB68DB687B602C
S214015DD07B68043318000F4B98470F4B1B685A1EFD
S214015DE00D4B1A600D4B1B685A1E0C4B1A600C4B60
S214015DF098477B6818000B4B9847084B1B68002B8D
S214015E00E0D1C046BD4602B080BDC0467943010020
S214015E1024290020ED4101005029002038290020C6
S214015E209D430100295E010080B582B000AF786015
S214015E307B681B6B1800054B98477B681800034B63
S214015E409847C046BD4602B080BDC04651450100D8
S214015E5080B582B000AF0E4B1B681B68002B01D1CA
S214015E60012300E00023002B04D00A4B01225242FA
S214015E701A6008E0064B1B68DB68DB687B607B68A2
S214015E805A68044B1A60C046BD4602B080BDC04683
S214015E90082900207029002080B582B000AF0A4B87
S214015EA01B68002B02D101237B6008E0074B1B68AF
S214015EB0002B02D102237B6001E000237B607B681C
S214015EC01800BD4602B080BD5C290020782900205C
S214015ED080B584B000AF78607B68BB600023FB6050
S214015EE07B68002B56D0BB68DA6A2D4B1B68DB6AD1
S214015EF09A4246D2BB689B69002B06DB284B1B687F
S214015F00DB6A0522D21ABB689A61BB685969BB680D
S214015F10DA6A13009B009B189B00224A9B18994241
S214015F2001D1012300E00023002B22D0BB680433FB
S214015F3018001D4B98471A4B1B68DA6ABB68DA6271
S214015F40BB68DA6A194B1B689A4203D9BB68DA6ADE
S214015F50164B1A60BB68DA6A13009B009B189B00FD
S214015F60104A9A18BB68043319001000104B984762
S214015F7004E00B4B1B68DA6ABB68DA620123FB603C
S214015F8008E0BB68DA6B064B1B68DB6A9A4201D2F3
S214015F900123FB60FB681800BD4604B080BDC04607
S214015FA0782800207C280020ED4101005829002097
S214015FB03D41010080B584B000AF78607B68BB606E
S214015FC00023FB607B68002B44D0254B1B68BA6816
S214015FD09A4201D072B6FEE7BB681B6C002B01D15A
S214015FE072B6FEE7BB681B6C5A1EBB681A64BB68B8
S214015FF0DA6ABB68DB6B9A422CD0BB681B6C002B41
S21401600028D1BB6804331800164B9847BB68DA6B77
S214016010BB68DA62BB68DB6A0522D21ABB689A6182
S214016020BB68DA6A104B1B689A4203D9BB68DA6A06
S2140160300D4B1A60BB68DA6A13009B009B189B0025
S2140160400A4A9A18BB68043319001000084B98478F
S2140160500123FB60FB681800BD4604B080BDC04646
S21401606078280020ED410100582900207C280020D6
S2140160703D41010080B586B000AF786039607B682D
S2140160803B610123FB607B68002B5DD03B691B6C89
S214016090002B01D172B6FEE73B69DA6B3B689A4288
S2140160A002D23B687B6102E03B69DB6B7B613B694B
S2140160B0DA6A7B699A4247D03B691A6CFB689A4256
S2140160C042D1234B1B683A699A4201D172B6FEE768
S2140160D03B69DB6ABB603B697A69DA623B699B694B
S2140160E0002B04DB7B690522D21A3B699A613B6966
S2140160F05969BA6813009B009B189B00154A9B18A8
S214016100994201D1012300E00023002B1CD03B69FA
S21401611004331800104B98473B69DA6A0F4B1B682B
S2140161209A4203D93B69DA6A0C4B1A603B69DA6A10
S21401613013009B009B189B00064A9A183B69043380
S21401614019001000064B9847C046BD4606B080BDF4
S214016150782800207C280020ED41010058290020E5
S2140161603D41010080B500AF064B1B68002B04D0F3
S214016170044B1B681A6C01321A64024B1B68180028
S214016180BD4680BD7828002080B584B000AF786019
S2140161903960214B1B68FB60204B1B6804331800D9
S2140161A01F4B98477B6801330BD13B68002B08D007
S2140161B01A4B1B681A1D1B4B110018001A4B9847E7
S2140161C026E0FA687B68D318BB60144B1B68BA6874
S2140161D05A60BA68FB689A4209D2144B1A680F4B88
S2140161E01B68043319001000114B984710E0114B3F
S2140161F01A680A4B1B680433190010000C4B9847A9
S2140162000D4B1B68BA689A4202D20B4BBA681A60E9
S214016210C046BD4604B080BD542900207828002021
S214016220ED4101003C2900203D4101000C290020E0
S21401623081410100082900207029002090B585B011
S21401624002AF00237B600E4B98470E4B1B68002B5A
S2140162500BD00D490D480E4B0193022300930023EA
S21401626080220C4CA04703007B607B68002B01D189
S21401627072B6FEE77B681800BD4603B090BDC04607
S21401628085670100AC29002098BF0100BD630100AD
S214016290B0290020E152010090B589B000AFF86046
S2140162A0B9607A603B600023FB61FB68002B01D17B
S2140162B072B6FEE71E4B1B68002B33D01023FB186B
S2140162C0BA681A601023FB187A685A601023FB1804
S2140162D0FA689A60BB68052B1ADC164B98470300D0
S2140162E0022B0AD1124B18683A6B1023F9180023B7
S2140162F0114CA0470300FB6114E00D4B18681023F6
S214016300F918002300220C4CA0470300FB6109E0AA
S214016310074B18683A681023F9180023074CA04762
S2140163200300FB61FB691800BD4609B090BDC0467D
S214016330AC290020995E0100794701005949010006
S21401634090B587B002AF78603960184B1B68DB6880
S214016350DB68FB60FB6804331800154B9847FB6845
S214016360DB69012B19D1FB689A697B68D1187B68B8
S2140163703A68F8680F4CA047031E0ED07A68F86892
S21401638000230093002300210B4CA0470300BB60B1
S214016390BB68002B01D172B6FEE7FB685B6AFA6840
S2140163A010009847C046BD4605B090BDA429002000
S2140163B0ED410100256501009962010080B584B0B8
S2140163C000AF7860084B98470823FB181800074B66
S2140163D098470300FB60BA68FB6811001800044B7D
S2140163E09847044B9847EFE7999901009D6401008F
S2140163F0F9630100AD65010080B584B000AF786037
S21401640039601E4B98470823FB1818001C4B984709
S2140164100300FB60BB68002B29D13B68002B0CD125
S2140164207A68FB689A4208D8164B9847FA687B68E0
S21401643011001800144B98471BE03B68002B06D050
S214016440124B1B681B685A425341DBB23B60104B30
S21401645018687A68FB68D31A3A6819000D4B984792
S214016460084B9847031E04D10B4B984701E0054B98
S2140164709847C046BD4604B080BDC04625570100BA
S214016480DD6401003D57010041630100A829002099
S214016490AC290020C55101006143010080B584B0DC
S2140164A000AF78600C4B1B681B685A425341DBB245
S2140164B01A007B681A607B681B68002B05D1064BA7
S2140164C01B68DB681B68FB6001E00023FB60FB6860
S2140164D01800BD4604B080BDA429002080B584B054
S2140164E000AF78600C4B98470300FB600B4B1B68B2
S2140164F0FA689A4205D20A4B98477B6801221A60CD
S21401650002E07B6800221A60044BFA681A60FB6896
S2140165101800BD4604B080BD71580100B4290020A2
S214016520C566010080B586B000AFF860B9607A60D4
S2140165303B6000237B61FB68BA685A60FB68FA68B7
S2140165401A61BA687B689A4212D87A683B68D21A8E
S214016550FB689B699A4202D301237B611BE0104BC7
S2140165601A68FB680433190010000E4B984712E0B6
S2140165707A683B689A4206D2BA683B689A4202D366
S21401658001237B6107E0084B1A68FB680433190096
S2140165901000044B98477B691800BD4606B080BDC5
S2140165A0A829002081410100A429002090B58BB0C4
S2140165B002AF68E00823FB181B68002B63DB082387
S2140165C0FB189B68FB61FB695B69002B04D0FB69C8
S2140165D004331800334B98473B1D1800324B98473D
S2140165E00300BB610823FB181B68092B4AD89A00D5
S2140165F02E4BD3181B689F460823FB185A68FB6965
S2140166009B69D1180823FB185B68BA69F869284C9E
S214016610A047031E37D0FB695B6AFA6910009847EA
S214016620FB69DB69012B2ED10823FB185A68FB692D
S2140166309B69D218F86900230093002300211D4CA2
S214016640A04703007B617B69002B1CD172B6FEE775
S2140166500823FB185A68FB699A61FB699B69002B42
S21401666001D172B6FEE7FB699A69BB69D118BB69AD
S214016670BA69F8690E4CA04705E0FB6918000E4B95
S214016680984700E0C0460D4B1B680822B918002247
S21401669018000B4B9847031E8CD1C046BD4609B067
S2140166A090BDC046ED410100DD640100A0BF0100C0
S2140166B0256501009962010051450100AC290020C1
S2140166C0794B010090B589B002AF3EE0284B1B68BC
S2140166D0DB681B687B61264B1B68DB68DB683B61FC
S2140166E03B6904331800234B98473B695B6A3A6958
S2140166F0100098473B69DB69012B26D13B699A69F3
S2140167007B69D318FB60FA687B699A420ED93B69AC
S214016710FA685A603B693A691A61154B1A683B690F
S214016720043319001000144B98470EE07A69386953
S2140167300023009300230021104CA0470300BB60F8
S214016740BB68002B01D172B6FEE7094B1B681B68BC
S214016750002BBBD1064B1B687B60094B1A68044BA8
S2140167601A60074B7A681A60C046BD4607B090BDEE
S214016770A4290020ED410100814101009962010038
S214016780A829002080B500AF104B9847104B1B6816
S214016790002B15D10F4B18000F4B98470F4B1800C5
S2140167A00D4B98470E4B0B4A1A600E4B0B4A1A605C
S2140167B000220C2102200C4B98470200044B1A6061
S2140167C00A4B9847C046BD4680BDC0467943010086
S2140167D0AC2900207C290020EB40010090290020F4
S2140167E0A4290020A8290020454601009D43010058
S2140167F080B582B000AF78607B681B7C002B0BD025
S2140168007B689B685A1C7B68D968104B10009847B8
S2140168100B001A007B689A607B685B685A1C7B6871
S214016820D9680A4B100098470B001A007B685A601B
S2140168307B685A687B689B68D31A5A425341DAB21E
S2140168407B681A74C046BD4602B080BDD99B010064
S21401685080B582B000AF78607B6800221A747B68CE
S2140168609B685A1C7B68D968054B100098470B003B
S2140168701A007B689A60C046BD4602B080BDC0461D
S214016880D99B010080B584B000AF786039601420D0
S214016890094B98470300FB60FB687A681A60FB683F
S2140168A03A68DA60FB681800044B9847FB681800E2
S2140168B0BD4604B080BDC04649B50100C1680100AF
S2140168C080B582B000AF78607B6800225A607B6832
S2140168D000229A607B6800221A74C046BD4602B048
S2140168E080BD000080B582B000AF78600A00FB1C56
S2140168F01A707B681A687B685B68D318FA1C127872
S2140169001A707B681800034B9847C046BD4602B014
S21401691080BDC046F167010080B584B000AF7860E5
S214016920396001235B42FB607B6818000D4B98477A
S21401693003001A0001235340DBB2002B0DD07B6805
S2140169401A687B689B68D3181A783B681A707B684C
S2140169501800054B98470023FB60FB681800BD46EE
S21401696004B080BD6D6901005168010080B582B038
S21401697000AF78607B681B7C01225340DBB2002BA2
S21401698007D07B685A687B689B689A4201D10123CD
S21401699000E000231A1C01231340DBB21800BD4699
S2140169A002B080BD80B582B000AF0200FB1D1A7038
S2140169B0064BFA1D127811001F220A400121914050
S2140169C00A001A60C046BD4602B080BD00E100E084
S2140169D080B584B000AF78607B681B68FB60FB689D
S2140169E0DB695A1E9341DBB21800BD4604B080BD78
S2140169F080B582B000AF7860C0467B681800044B53
S214016A009847031EF9D1C046BD4602B080BDC046B8
S214016A10D169010080B582B000AF78607B688022C2
S214016A20D2051A607B6800225A607B68FF221A81B1
S214016A307B6800229A727B680022DA727B68962253
S214016A4092011A627B682422012199547B682522CF
S214016A50012199547B682622002199547B682722BC
S214016A60002199547B6800229A627B68882252032F
S214016A70DA607B682C22002199547B682D22002144
S214016A8099547B6800221A637B6800225A637B68EC
S214016A9000229A637B680022DA637B6800225A61CF
S214016AA07B6800221A827B680022DA767B680022E5
S214016AB01A767B6800221A777B6800225A767B68F2
S214016AC013229A767B6800225A77C046BD4602B0EA
S214016AD080BD000080B584B000AF78607B681B681D
S214016AE0FB607B681B681800094B98470300180079
S214016AF0084B98477B681800074B9847FB681B684C
S214016B0002221A43FB681A60C046BD4604B080BD27
S214016B10257B0100A5690100F169010080B582B0FD
S214016B2000AF78600A00FB1C1A707B6831229B5C00
S214016B305AB2FB1C1B78012199400B005BB2134330
S214016B405BB2D9B27B6831229954C046BD4602B0C9
S214016B5080BD000080B500AF80239A000F4B110066
S214016B6018000F4B984702000E4B1A6080239A00BC
S214016B700D4B110018000A4B984702000B4B1A6088
S214016B800B4B98470B4B98470B490C4B01221800AF
S214016B900B4B9847C046BD4680BDC046342D0020ED
S214016BA0856801002C2B0020342B0020382F002074
S214016BB09D6C0100156D0100302B0020F82A002085
S214016BC01984010080B584B000AF78601A4B9847ED
S214016BD07B68002B2AD00023FB600BE0174B18685C
S214016BE07A68FB68D3181B781900154B9847FB6821
S214016BF00133FB607B681800124B98470200FB6864
S214016C009A42EBD8104B01211800104B9847031EEF
S214016C100CD10A4B1B680E4A110018000D4B984701
S214016C200B49094B012218000B4B98470B4B984711
S214016C30C046BD4604B080BD25570100382F002050
S214016C40E56801007DB70100F82A00206184010093
S214016C50342F002019690100D18301003D5701003E
S214016C6080B584B000AF7860084B9847084B1B6826
S214016C707A6811001800074B98470300FB60064B23
S214016C809847FB681800BD4604B080BD2557010033
S214016C902C2B0020196901003D57010080B590B0EA
S214016CA000AF3B001800144B98473B00E12252020C
S214016CB01A623B00C4229203DA603B000122524270
S214016CC01A633B00012252425A633B000B4A9A6305
S214016CD03B000B4ADA63C0463A000A490A4B1800E1
S214016CE00A4B9847031EF7D1074B1800084B9847E5
S214016CF0C046BD4610B080BD156A010003002A00DB
S214016D0003002B0000180042F82A0020D57F01005E
S214016D10D56A010080B500AF0C490D4B0022180062
S214016D200C4B98470C490A4B01221800094B98470F
S214016D30074B00211800094B9847054B0121180005
S214016D40064B9847C046BD4680BDC046A16D0100B2
S214016D50F82A002089830100616D01001D6B010086
S214016D6080B582B000AF7860084B1A68084B1B7874
S214016D7019001000074B98470549074B01221800D8
S214016D80064B9847C046BD4602B080BD2C2B00205E
S214016D90302B0020E5680100F82A00201984010044
S214016DA080B582B000AF7860094B1B68094A1100B4
S214016DB01800094B98470300013305D00549074BD6
S214016DC001221800064B9847C046BD4602B080BD5A
S214016DD0382F0020342F002019690100F82A0020DE
S214016DE0D183010080B582B000AF78607B68002B4C
S214016DF00CD0084B7A685A60064B00229A60C0464F
S214016E00044B1A6880235B021340F9D0C046BD4686
S214016E1002B080BD10E000E080B582B000AF7860BF
S214016E2004E0074B1B681800064B98477B685A1E00
S214016E307A60002BF5D1C046BD4602B080BDC04683
S214016E400C000020E56D010080B582B000AF104B4C
S214016E501B68002B12D1EFF310837B607B68002B3D
S214016E6009D172B6BFF35F8F0A4B00221A700A4B24
S214016E7001221A7002E0084B00221A70044B1B68AC
S214016E805A1C034B1A60C046BD4602B080BDC046C0
S214016E90B829002010000020BC29002080B500AFD2
S214016EA00B4B1B685A1E0A4B1A60094B1B68002BBA
S214016EB00AD1084B1B78DBB2002B05D0064B01220A
S214016EC01A70BFF35F8F62B6C046BD4680BDC0462E
S214016ED0B8290020BC2900201000002080B584B00D
S214016EE000AF0200FB1D1A700F23FB18FA1D127863
S214016EF0D2091A700E23FB18FA1D127852091A705D
S214016F000D4BBB600F23FB181B78002B0FD10F23F3
S214016F10FB181B789B0010229446BC446344083B34
S214016F201A680E23FB181B78DB01D31800E0002338
S214016F301800BD4604B080BD0044004180B582B053
S214016F4000AF0200FB1D1A70FB1D1B781800034BD7
S214016F50984703001800BD4602B080BDDD6E0100F3
S214016F6080B582B000AF78607B6800221A707B68BB
S214016F7001225A707B6800229A70C046BD4602B054
S214016F8080BD000080B584B000AF0200FB1D1A7002
S214016F90BB1D0A1C1A70FB1D1B7818000D4B984769
S214016FA00300FB60FB1D1B781F22134001229A4041
S214016FB01300BB60BB1D1B78002B03D0FB68BA68AF
S214016FC09A6102E0FB68BA685A61C046BD4604B0E1
S214016FD080BDC0463D6F010080B582B000AF3B1D4D
S214016FE018000E4B98473B1D01221A703B1D1900D5
S214016FF017200B4B9847012117200A4B98473B1D3A
S21401700000221A703B1D01225A703B1D19003720C1
S214017010034B9847C046BD4602B080BD616F010074
S214017020B5730100856F010080B584B000AF020022
S214017030FB1D1A700F23FB18FA1D127852091A70DD
S2140170400F23FB181B78002B0CD1094BBB600F23B9
S214017050FB181B789B0010229446BC446344083BF3
S2140170601B6800E000231800BD4604B080BDC04682
S2140170700018004080B584B000AF0200FB1D1A70F6
S214017080FB1D1B7818000B4B98470300FB60FB1D8C
S2140170901B781F22134001229A401300BB60FB6835
S2140170A01B69BA6813405A1E9341DBB21800BD46ED
S2140170B004B080BD2970010080B584B000AF020025
S2140170C0FB1D1A70FB1D1B781800094B984703001F
S2140170D0FB60FB1D1B781F22134001229A40130000
S2140170E0BB60FB68BA681A61C046BD4604B080BD85
S2140170F02970010080B500AF154B00221A7020E000
S214017100134B1B781800134B9847031E13D0104BD4
S2140171101B781800104B98470D4B1B781A000F4B25
S2140171209200D358002B06D0094B1B781A000B4B44
S2140171309200D3589847064B1B780133DAB2044BBA
S2140171401A70034B1B780F2BDAD9C046BD4680BD9B
S2140171503C2F002075700100B9700100402F0020FF
S21401716080B582B000AF78607B6800221A70C04696
S214017170BD4602B080BD000080B582B000AF0200FF
S2140171803960FB1D1A70FB1D1B78012B0AD0022BE0
S2140171900FD0002B14D10E4B0D4A91693A680A4361
S2140171A09A610FE00A4B0A4AD1693A680A43DA61E2
S2140171B008E0074B064A116A3A680A431A6201E078
S2140171C0172300E000231800BD4602B080BDC0466C
S2140171D00004004080B582B000AF0200FB1D1A70AB
S2140171E0064BFA1D127811001F220A400121914018
S2140171F00A001A60C046BD4602B080BD00E100E04C
S21401720080B582B000AF0F4B3B6000237B6011E07E
S2140172107B689B0008229446BC446344083B1B6879
S2140172205B78DBB25BB2002B01DA012306E07B68F8
S21401723001337B607B68002BEAD000231800BD4633
S21401724002B080BD0018004080B584B000AF2D4B61
S2140172507B60402100202C4B98473B0018002B4BAD
S21401726098473B0000221A703B0019000520284B66
S21401727098470520274B98470023FB6018E0FB68DA
S2140172809B0010229446BC4463440C3B1A68FB687E
S2140172909B0010218C46BC4463440C3B1B681B7846
S2140172A0DBB201210B43DBB21370FB680133FB60D9
S2140172B0FB68002BE3D0C046174B9847031EFBD153
S2140172C00B23FB1800221A700DE00B23FB181A780B
S2140172D0124B92000021D1500B23FB181A780B2376
S2140172E0FB1801321A700B23FB181B780F2BECD9F5
S2140172F004200B4B98470B4B9847C046BD4604B03D
S21401730080BDC0460018004079710100617101001E
S214017310F59201003993010001720100402F00200F
S214017320D57101002973010080B582B000AF154BFD
S2140173303B6000237B6018E07B689B000822944634
S214017340BC446344083B1A687B689B0008218C4652
S214017350BC446344083B1B681B78DBB202210B4329
S214017360DBB213707B6801337B607B68002BE3D054
S214017370C046054B9847031EFBD1C046BD4602B02A
S21401738080BDC046001800400172010080B582B081
S21401739000AF78607B6880221A707B6800225A7082
S2140173A07B6801229A707B680022DA70C046BD466F
S2140173B002B080BD80B584B000AF02003960FB1D0D
S2140173C01A700C23FB181800104B98470C23FB1857
S2140173D080221A703B681A780C23FB185A703B6897
S2140173E05A780C23FB189A703B689A780C23FB1882
S2140173F0DA700C23FA18FB1D1B7811001800044BD9
S2140174009847C046BD4604B080BDC0468D73010096
S2140174105596010080B586B000AF7860284B7A6833
S2140174209200D3587B617B691B683B610E23FB1876
S2140174307A69528A1A807B691B8A9AB20E23FB18D4
S2140174400E21791809880A401A803B691B7ADAB23C
S2140174500C23FB181A803B69DB79DBB29AB20C234A
S214017460FB180C21791809880A401A800C23FB188E
S2140174701B88802213400CD00E23FB181B88022287
S214017480134002D07B69DB6898473B6980221A72F9
S21401749011E00C23FB181B88012213400BD00E238E
S2140174A0FB181B880122134002D07B699B68984712
S2140174B03B6901221A72C046BD4606B080BDC04671
S2140174C0802F002080B500AF0020024B9847C046B1
S2140174D0BD4680BD1574010080B582B000AF7860EE
S2140174E07B6800221A70C046BD4602B080BDF0B56A
S2140174F08DB000AFB860F9603A607B60002300246D
S2140175003B627C6200230024BB61FC613F23FB627B
S21401751053E0FB6A203B002B04DB01229A40130058
S2140175207B610BE0FB6A2022D31A0122DA401300AA
S2140175300021FA6A91400A0013437B610122FB6A2B
S2140175409A4013003B61BB69FC69DB186441BB616F
S214017550FC61BB683A691A401500FB687A691A40F3
S21401756016002B00334307D0BB6901221343BB61CE
S214017570FB6900221343FB617A68FB699A4219D8BA
S2140175807A68FB699A4203D13A68BB699A4211D874
S214017590B969FA693B687C68C91AA2410B001400F4
S2140175A0BB61FC613A6A3B6913433B627A6A7B6959
S2140175B013437B62FB6A013BFB62FB6A002BA8DA82
S2140175C03B6A7C6A18002100BD460DB0F0BD80B54F
S2140175D086B000AFF860B9607A601623FB18002207
S2140175E01A80BB683B61BB685A08FB689A4201D2A5
S2140175F0402326E0BB685B083B610AE03A69FB680A
S214017600D31A3B611623FB181A881623FB1801327E
S2140176101A803A69FB689A42F0D21623FB181622A2
S214017620BA181288013A1A801623FB181B88FF2BFA
S21401763001D9402305E07B681622BA1812881A8001
S21401764000231800BD4606B080BD0000F0B5A1B00D
S21401765000AFF864B9647A644322BA181370002341
S21401766000243B677C6700230024BB66FC6600237E
S2140176700024BB67FC6700237B66582340229446A0
S214017680BC4463441A78FB6C5A43BB6C9A4201D9DA
S2140176904023B3E04323FB181B78002B3DD158232E
S2140176A040229446BC4463441B78DBB23B61002312
S2140176B07B61FB6CBB600023FB60524CBA68FB68C5
S2140176C038697969A04703000C001B00FB6500239D
S2140176D0BB65BB6C3B6000237B60B86DF96D3A6897
S2140176E07B68494CA04703000C003B677C67002180
S2140176F001223B6F7C6FC91AA2410B001400BB66C6
S214017700FC66BB6E1B0CFA6E16041E43BB6E1D0494
S2140177103300BB670023FB676AE04323FB181B7833
S214017720012B65D1FB6C3B6300237B63582340220E
S2140177309446BC4463441B78DBB2BB620023FB6205
S214017740304CBA6AFB6A386B796BA04703000C00B1
S214017750BB65FC65BB6C3B6200237B62BB6DFC6D4D
S2140177601A002300386A796A274CA04703000C00E8
S2140177707B667A6E80239B019A4201D940233DE0C5
S214017780BB6CBB610023FB61B969FA690B005B0F37
S2140177901000C000F863F86B1843F8630B00DB00B9
S2140177A0BB63BB6DFC6D1A002300B86BF96B164CFE
S2140177B0A04703000C00BB65FC65BB6DFC6DD9B230
S2140177C07B6EDBB2DB00DAB2172340208446BC4472
S2140177D063448A1A1A70172340229446BC446344B1
S2140177E01B785B031A007B6E1343BB670023FB67A2
S2140177F0BB6FFC6F9AB27B6C1A8000231800BD46E3
S21401780021B0F0BDE59B0100EF74010080B584B0A6
S21401781000AF0200FB1D1A70BB1D0A1C1A701A4B22
S2140178201B7801225340DBB2002B03D1BB1D1B7812
S214017830002B1BD00C23FB181800144B98470C2365
S214017840FB18FA1D12781A700C23FB181900132066
S2140178500F4B984713200F4B98470B4BFA1D127886
S2140178605A70094B01221A70002308E0064B5B7818
S214017870FA1D12789A4201D1002300E01D23180058
S214017880BD4604B080BDC046C0290020D9740100A1
S214017890F59201003993010080B582B000AF78609F
S2140178A00A00FB1C1A707B684D4A93423FD04C4A33
S2140178B0934206D84B4A93420FD04B4A934221D06B
S2140178C089E04A4A934200D15BE0494A934200D19B
