:020000021000EC
:102000008078002085AF02007DB002007DB0020024
:1020100000000000000000000000000000000000C0
:1020200000000000000000000000000021A10100ED
:10203000000000000000000041A2010089A2010090
:102040007DB002007DB002007DB00200D5700200BC
:10205000016602007DB00200C53001007DB00200C3
:10206000093201007977020091770200A977020016
:10207000C1770200D9770200F1770200CDAE0200ED
:10208000E1AE0200F5AE02005D7D0100717D010050
:10209000857D010000000000000000004D2F0100C0
:1020A0007DB00200893001007DB002007DB00200E9
:1020B0000000000010B5064C2378002B07D1054B1B
:1020C000002B02D0044800E000BF0123237010BDA4
:1020D000C002002000000000F4B40300084B10B55B
:1020E000002B03D00749084800E000BF07480368F9
:1020F000002B00D110BD064B002BFBD09847F9E711
:1021000000000000C4020020F4B40300F4B4030093
:102110000000000080B500AFC046BD4680BD80B560
:1021200000AFC046BD4680BD80B500AF284B984784
:10213000284B9847AE20284B9847D520264B9847E8
:102140008020254B9847A820234B98473F20224BBF
:102150009847D320204B984700201F4B984740209A
:102160001D4B9847A1201C4B9847C8201A4B9847F5
:102170008D20194B98471420174B9847A620164BD3
:102180009847A420144B9847A120134B9847C82088
:10219000114B9847DA20104B984712200E4B984766
:1021A00081200D4B98478F200B4B9847D9200A4B25
:1021B0009847F120084B9847DB20074B9847402071
:1021C000054B9847AF20044B9847C046BD4680BD9D
:1021D0001F21010015210100DD21010080B584B01F
:1021E00000AF0200FB1D1A700C23FB1800221A70AE
:1021F0000C23FB18FA1D12785A700C4B3C221A70F3
:102200000A4B0C22BA185A60084B0222DA81074B9B
:1022100000229A60054B00229A81044B6421180029
:10222000034B9847C046BD4604B080BD7C440020A7
:102230002564010080B584B000AF0200FB1D1A7058
:102240000C23FB1840221A700C23FB18FA1D12787D
:102250005A700C4B3C221A700A4B0C22BA185A6066
:10226000084B0222DA81074B00229A60054B0022BC
:102270009A81044B64211800034B9847C046BD4621
:1022800004B080BD7C4400202564010080B582B08C
:1022900000AF7860034B7A681A60C046BD4602B052
:1022A00080BDC046DC02002090B583B000AF0400C2
:1022B00008001100FB1D221C1A70BB1D021C1A70A5
:1022C0007B1D0A1C1A700A4B1968FB1D1A78130033
:1022D0001B019B189B001A00BB1D1B78D318CB1841
:1022E0007A1D12781A70C046BD4603B090BDC04634
:1022F000DC02002080B582B000AF0200FB1D1A7026
:10230000BB1D0A1C1A70094B1968FB1D1A781300B3
:102310001B019B189B001A00BB1D1B78D318CB1800
:102320001B781800BD4602B080BDC046DC0200200C
:10233000B0B584B000AF05000C0010001900FB1D03
:102340002A1C1A70BB1D221C1A707B1D021C1A70DD
:102350003B1D0A1C1A707B1D1B78002B00D1A7E0C7
:10236000BA1D7B1D12781B78D318DAB20F23FB1825
:10237000013A1A70BA1D0F23FB1812781B789A4283
:1023800009D13B1D1A78BB1D1978FB1D1B7818005D
:10239000494B98478DE00F23FB181B781E2B03D960
:1023A0000F23FB181F221A700E23FB18BA1D127878
:1023B000D2081A700D23FB180F22BA181278D2080F
:1023C0001A700C23FB18BA1D127807210A401A70E4
:1023D0000B23FB180F22BA18127807210A401A7033
:1023E0000C23FB181B78FF229A400A23FB181A7053
:1023F0000B23FB181B780722D31AFF221A4109234B
:10240000FB181A700E23FA180D23FB1812781B788C
:102410009A4217D10823FB180A22BA180921791801
:10242000127809780A401A703B1D1C780823FB18A3
:102430001A78FB1D19780E23FB18187823001F4CFF
:10244000A04736E03B1D1C780A23FB181A78FB1DB9
:1024500019780E23FB1818782300184CA0470AE0BF
:102460003B1D1A78FB1D19780E23FB1818781300F2
:10247000FF22124CA0470E23FB180E22BA18127826
:1024800001321A700E23FA180D23FB1812781B78EC
:102490009A42E5D33B1D1C780923FB181A78FB1DD3
:1024A00019780D23FB1818782300044CA04700E08E
:1024B000C046BD4604B0B0BDF92A0100BD2C0100E4
:1024C000B0B584B000AF05000C0010001900FB1D72
:1024D0002A1C1A70BB1D221C1A707B1D021C1A704C
:1024E0003B1D0A1C1A70FA1D7B1D12781B789A423C
:1024F0001BD90A23FB18FA1D12781A70FB1D7A1DCE
:1025000012781A707B1D0A22BA1812781A700923E1
:10251000FB18BA1D12781A70BB1D3A1D12781A707A
:102520003B1D0922BA1812781A707A1DFB1D127809
:102530001B78D31ADAB20A23FB181A703A1DBB1D96
:1025400012781B78D31ADAB20923FB181A700E23FB
:10255000FB18FA1D12781A700D23FB18BA1D127899
:102560001A700A23FB181B787F2B0CD90C23FB183D
:10257000FF221A700A23FB181B785B42DAB20A2387
:10258000FB181A7003E00C23FB1801221A700923B0
:10259000FB181B787F2B0CD90B23FB18FF221A701A
:1025A0000923FB181B785B42DAB20923FB181A7067
:1025B00003E00B23FB1801221A700A23FA180923DF
:1025C000FB18127852B21B785BB29A425BDD09238A
:1025D000FB181A780A23FB181B78D31ADAB20823DF
:1025E000FB181A700F23FB1800221A7041E02023F9
:1025F000FB181A780D23FB1819780E23FB181B788B
:102600001800504B98470823FB181B787F2B14D8D1
:102610000823FB181A780A23FB181B78D31ADAB29E
:102620000823FB181A700B23FB1819780D23FB18CD
:102630000D22BA1812788A181A700823FB181A7813
:102640000923FB181B78D318DAB20823FB181A7079
:102650000C23FB1819780E23FB180E22BA181278D7
:102660008A181A700F23FB181A780F23FB180132EF
:102670001A700F23FB181A780A23FB181B785BB219
:102680009A42B4DD5AE00A23FB181A780923FB1892
:102690001B78D31ADAB20823FB181A700F23FB1821
:1026A00000221A7041E02023FB181A780D23FB1832
:1026B00019780E23FB181B781800224B9847082323
:1026C000FB181B787F2B14D80823FB181A780923D2
:1026D000FB181B78D31ADAB20823FB181A700C23E4
:1026E000FB1819780E23FB180E22BA1812788A18D4
:1026F0001A700823FB181A780A23FB181B78D318C2
:10270000DAB20823FB181A700B23FB1819780D2373
:10271000FB180D22BA1812788A181A700F23FB18AA
:102720001A780F23FB1801321A700F23FB181A783E
:102730000923FB181B785BB29A42B4DDC046BD4644
:1027400004B0B0BDF92A0100B0B584B000AF0500F7
:102750000C0010001900FB1D2A1C1A70BB1D221C46
:102760001A707B1D021C1A703B1D0A1C1A707B1DFF
:102770001B78002B09D13B1D1A78BB1D1978FB1D56
:102780001B7818008F4B984718E10F23FB18002285
:102790001A700E23FB187A1D12781A707B1D1B7895
:1027A0009BB2DB189BB20322D31A9AB20C23FB18FC
:1027B0001A80FAE02023FB181B78032213402DD047
:1027C000FA1D0E23FB1812781B78D318D8B2BA1D45
:1027D0000F23FB1812781B78D31AD9B20F23FB18DA
:1027E0001B780133DAB23B1D1B78774CA047FA1DEA
:1027F0000F23FB1812781B78D318D8B2BA1D0E23FA
:10280000FB1812781B78D31AD9B20E23FB181B7849
:102810000133DAB23B1D1B786B4CA0472023FB1819
:102820001B780C2213402DD0FA1D0E23FB181278B2
:102830001B78D31AD8B2BA1D0F23FB1812781B7855
:10284000D31AD9B20F23FB181B780133DAB23B1D20
:102850001B785D4CA047FA1D0F23FB1812781B78DC
:10286000D31AD8B2BA1D0E23FB1812781B78D31ACC
:10287000D9B20E23FB181B780133DAB23B1D1B784B
:10288000514CA0472023FB181B783022134025D041
:10289000FA1D0E23FB1812781B78D31AD8B20F2317
:1028A000FB181B780133DAB23B1D1C78BB1D19786D
:1028B0002300454CA047FA1D0F23FB1812781B7804
:1028C000D31AD8B20E23FB181B780133DAB23B1DA2
:1028D0001C78BB1D197823003B4CA0472023FB1814
:1028E0001B78C022134025D0FA1D0E23FB18127846
:1028F0001B78D318D8B20F23FB181B780133DAB238
:102900003B1D1C78BB1D197823002F4CA047FA1DD6
:102910000F23FB1812781B78D318D8B20E23FB189C
:102920001B780133DAB23B1D1C78BB1D19782300DC
:10293000254CA0470C23FB1800229B5E002B10DACD
:102940000F23FB181B789BB29B009AB20C23FB1839
:102950001B88D3189BB206339AB20C23FB181A803B
:102960001CE00F23FB181B789AB20E23FB181B7870
:102970009BB2D31A9BB29B009AB20C23FB181B8804
:10298000D3189BB20A339AB20C23FB181A800E2379
:10299000FB180E22BA181278013A1A700F23FB188E
:1029A0000F22BA18127801321A700F23FA180E2368
:1029B000FB1812781B789A4200D8FBE6BD4604B09B
:1029C000B0BDC046F92A01003123010080B582B0B4
:1029D00000AF0200FB1D1A70FB1DFA1D12780F21BB
:1029E0000A401A70FB1D1B78502252421343DBB27F
:1029F0001800034B9847C046BD4602B080BDC04694
:102A0000DD21010080B582B000AF0200FB1D1A700D
:102A1000FB1DFA1D12787F210A401A70FB1D1B78DE
:102A20001B09DBB210221343DBB21800064B984798
:102A3000FB1D1B780F221340DBB21800024B984796
:102A4000C046BD4602B080BDDD21010080B582B028
:102A500000AF0200FB1D1A70FB1DFA1D12783F210A
:102A60000A401A70FB1D1B7840221343DBB218008A
:102A7000024B9847C046BD4602B080BDDD21010033
:102A800090B583B000AF174B1800174B9847174B02
:102A900098470020164B9847FB1D00221A7019E03A
:102AA000BB1D00221A700CE0BB1D1978FB1D1878A5
:102AB000012300220F4CA047BB1D1A78BB1D013219
:102AC0001A70BB1D1B78432BEED9FB1D1A78FB1D1A
:102AD00001321A70FB1D1B78032BE1D9C046BD469D
:102AE00003B090BDE00200208D22010029210100E9
:102AF0004D2A0100ED2B010090B585B000AF040018
:102B000008001100FB1D221C1A70BB1D021C1A704C
:102B10007B1D0A1C1A70FB1D1B78432B5DD8BB1D47
:102B20001B781F2B59D80E23FB18BA1D1278D20818
:102B30001A70BB1D1A780E23FB181B78DB00D31A02
:102B400001229A400D23FB181A700F23FC18FB1D5D
:102B50001A780E23FB181B7811001800214B984798
:102B6000030023707B1D1B78012B04D0022B1DD08A
:102B7000002B0BD025E00F23FB180F22B9180D22D4
:102B8000BA18097812780A431A701AE00D23FB1854
:102B90001B785BB2DB435BB20F22BA18127852B2D9
:102BA00013405AB20F23FB181A700AE00F23FB18C8
:102BB0000F22B9180D22BA18097812784A401A70F3
:102BC000C0460F23FB181A78FB1D19780E23FB183B
:102BD00018780023044CA04700E0C046BD4605B06D
:102BE00090BDC0468D2C0100ED2B0100B0B582B028
:102BF00000AF05000C0010001900FB1D2A1C1A7004
:102C0000BB1D221C1A707B1D021C1A703B1D0A1C66
:102C10001A703B1D1B7801225340DBB2002B0DD0F4
:102C2000BB1D1A78FB1D1B7811001800124B98472A
:102C300003001A007B1D1B78934218D07B1D1A7865
:102C4000BB1D1978FB1D1B7818000C4B9847FB1D0A
:102C50001B7818000A4B9847BB1D1B781800094BBE
:102C600098477B1D1B781800074B984700E0C0462B
:102C7000BD4602B0B0BDC046F5220100A922010048
:102C8000CD290100052A01003522010080B582B05E
:102C900000AF0200FB1D1A70BB1D0A1C1A70BB1D81
:102CA0001A78FB1D1B7811001800034B984703008E
:102CB0001800BD4602B080BDF5220100B0B584B059
:102CC00000AF05000C0010001900FB1D2A1C1A7033
:102CD000BB1D221C1A707B1D021C1A703B1D0A1C96
:102CE0001A700F23FC18BB1D1A78FB1D1B781100EE
:102CF00018001F4B9847030023703B1D1B78012BC6
:102D000004D0022B1BD0002B0AD022E00F23FB188B
:102D10000F22B9187A1D097812780A431A7018E040
:102D20007B1D1B785BB2DB435BB20F22BA181278B3
:102D300052B213405AB20F23FB181A7009E00F2346
:102D4000FB180F22B9187A1D097812784A401A70B8
:102D5000C0460F23FB181A78BB1D1978FB1D187885
:102D60000023044CA047C046BD4604B0B0BDC046D9
:102D70008D2C0100ED2B010080B584B000AF786090
:102D80007B681B68FB60FB685B7EDBB25BB2002B81
:102D900001DA012300E000231800BD4604B080BD25
:102DA00080B584B000AF78607B681B68FB60C0466C
:102DB0007B6818000B4B9847031EF9D1FB681B7BFF
:102DC000DBB202221343DAB2FB681A73C0467B6897
:102DD0001800044B9847031EF9D1C046BD4604B005
:102DE00080BDC046792D010080B584B000AF786009
:102DF0000A00FB1C1A707B681B68FB60FB68FA1CEE
:102E000012789A75C046BD4604B080BD80B584B0C6
:102E100000AF0200FB1D1A70FB1D1A78474B920091
:102E2000D358FB60FB681B681B7EDAB2FB681B682B
:102E3000DB7DDBB21340DBB2BB60BB680122134019
:102E400045D0FB681B6801221A76C046FB68180053
:102E50003B4B9847031EF9D1FB685B69991CFA68E4
:102E60005161FA681268528B92B21A80FB681B8B10
:102E70009BB2013B9BB2FA68191C1183002B08D04E
:102E8000FB685B7F002B22D0FB6818002D4B984716
:102E90001DE0FB68012118002B4B9847FB681B7F46
:102EA000DBB2052B13D1FB6800221A77FB68DB7EAF
:102EB0001A00012313400AD0FB689B7E1A000123ED
:102EC000134004D0FB689B68FA6810009847BB6801
:102ED0000422134014D0FB681B6804221A76FB6896
:102EE000DB7E1A00022313400AD0FB689B7E1A0087
:102EF0000223134004D0FB68DB68FA68100098478F
:102F0000BB680222134014D0FB681B6802221A76A9
:102F1000FB68DB7E1A00042313400AD0FB689B7E0B
:102F20001A000423134004D0FB681B69FA681000E0
:102F30009847C046BD4604B080BDC04690440020BE
:102F4000792D0100A12D0100E92D010080B500AF10
:102F50000020024B9847C046BD4680BD0D2E0100A3
:102F600080B582B000AF0200FB1D1A70074AFB1D3E
:102F70001B7819001F230B40012199400B001900F9
:102F80008023D150C046BD4602B080BD00E100E0C4
:102F900080B584B000AF0200FB1D1A70FB1D1A78CB
:102FA000374B9200D358FB60FB681B68BB60BB6863
:102FB0009B79DBB21A00012313400ED0BB680122BB
:102FC0009A71FB681433002B07D0FB685B7C002BE5
:102FD00003D0FB689B6900209847BB689B79DBB2F4
:102FE0001A000223134047D0BB6802229A71FB6883
:102FF0009B899BB2002B33D0FB689A68FB68DB8906
:103000009BB2591C88B2F968C8815B00D3181B8831
:103010009AB2BB689A81FB689B899BB2013B9AB2CA
:10302000FB689A81FB689B899BB2002B18D1FB68D7
:10303000202200219954BB6802221A71BB68022227
:103040009A7119200F4B9847FB681433002B07D057
:10305000FB689B7C002B03D0FB68DB690020984752
:10306000FB681433002B07D0FB681B7C002B03D0BC
:10307000FB685B6900209847C046BD4604B080BD30
:1030800094440020612F010080B500AF0020024B66
:103090009847C046BD4680BD912F010080B500AF66
:1030A000024B9847C046BD4680BDC04661620200E3
:1030B00080B500AF024B9847C046BD4680BDC046B4
:1030C000B562020080B586B000AF494B9847494BC6
:1030D0001B8C9BB2DAB21723FB180F210A401A701F
:1030E0001723FB181A78444B9200D3583B61414A8E
:1030F0003B691B780F210B40D9B23F23D1543D4986
:103100000F23FB184E228A5C1A703B691B783B4ADE
:103110001B01D31802331B889BB2BB603B691B7831
:10312000374A1B01D31802331B889BB27B60BA68F5
:103130007B68D21A3B695A610F23FB181B78012266
:10314000134016D02B4A4E230121D1543B69102243
:103150005A743B691B7C1A000123134042D03B691F
:103160005B68002B3ED03B695B683A69100098476A
:1031700038E00F23FB181B780222134016D01D4A9B
:103180004E230221D1543B6900225A743B691B7CB7
:103190001A000223134025D03B699B68002B21D0E5
:1031A0003B699B683A69100098471BE00F23FB18A6
:1031B0001B780422134015D00E4A4E230421D1540B
:1031C0003B6906225A743B691B7C1A000423134096
:1031D00008D03B69DB68002B04D03B69DB683A69A7
:1031E00010009847074B9847C046BD4606B080BDC3
:1031F0009D3001000048004140040020A044002010
:10320000F0030020B130010080B582B000AF154B53
:103210001B697B60144B9B693B60124B9A683B684F
:103220001A43104B9A60104B104A9A6108E07B6871
:103230005A687B681B68180090477B689B687B60B6
:103240007B68002BF3D1074BDB683B60054B9B6829
:103250003A68D2431A40034B9A60C046BD4602B05A
:1032600080BDC0460000002000040042FFFF0F0F99
:1032700080B582B000AF02003960FB1D1A70FB1DE3
:103280001B78012B0AD0022B0FD0002B14D10E4B30
:103290000D4A91693A680A439A610FE00A4B0A4A5B
:1032A000D1693A680A43DA6108E0074B064A116AB5
:1032B0003A680A431A6201E0172300E0002318006D
:1032C000BD4602B080BDC0460004004080B500AFDE
:1032D00002210220074B9847074B01221A70C04673
:1032E000054B1B78DBB21A0001231340F8D1C0460E
:1032F000BD4680BD713201000004004280B584B03B
:1033000000AF78607B681B68FB60FB68DB690722A5
:1033100013405A1E9341DBB21800BD4604B080BD75
:1033200080B582B000AF7860C0467B681800044B5F
:103330009847031EF9D1C046BD4602B080BDC046C5
:10334000FD32010080B584B000AF78607B681B68F7
:10335000FB60FB681B681B01DB0FDBB21A000B2351
:10336000FB18511E8A411A700823FB187A68528B89
:103370001A807B689B8B9AB20823FB180821791866
:1033800009888A1A1A807B689B8B9BB2013B9AB290
:103390007B689A830B23FB181B78002B10D07B686B
:1033A000DB7A002B1CD07B689B8B9BB2012B17D147
:1033B000FB685B688022D2021A43FB685A600FE008
:1033C0007B68DB7A002B0BD07B689B8B9BB2002B3E
:1033D00006D1FB685B688022D2021A43FB685A6000
:1033E0007B689B8B9BB2002B0ED17B689B7A002B5A
:1033F0000AD07B6818000E4B9847FB685B68C022B8
:1034000092021A43FB685A607B681800084B984781
:103410007B681A6A0823FB181B88D318FA682821CE
:10342000525CD2B21A70C046BD4604B080BDC046E0
:103430002133010080B584B000AF78607B681B68E1
:10344000FB60FB685B8B9BB21A000423134004D023
:103450007B6825221E21995424E00A23FB187A68F0
:10346000528B1A807B689B8B9AB20A23FB180A2125
:10347000791809888A1A1A807B689B8B9BB2013B5A
:103480009AB27B689A837B681800084B98477B68E0
:103490001A6A0A23FB181B88D3181B78D9B2FB6859
:1034A00028229954BD4604B080BDC0462133010096
:1034B00080B584B000AF78607B681B68FB60FB68F8
:1034C0001B7EDBB21A00012313402BD0FB680122C4
:1034D0001A76FB685B8B9BB21A000223134004D060
:1034E0007B682522412199541CE0FB685B8B9BB2D1
:1034F0001A000423134015D07B6825221821995403
:103500007B6800229A837B689B7A002B0AD07B68B9
:103510001800134B9847FB685B68C02292021A435D
:10352000FB685A607B689B8B9AB27B685A837B6886
:1035300025229B5CDBB2052B0ED17B6824229B5C91
:10354000DBB2002B04D17B681800064B984703E0E0
:103550007B681800044B9847C046BD4604B080BD48
:1035600021330100353401004533010080B584B0BA
:1035700000AFF860B960FB1D1A70FB1D1B78FA687C
:1035800002339B00D3180433BA681A60FB681B7EB1
:10359000DBB25AB2FB1D1B78012199400B005BB2D4
:1035A00013435BB2DAB2FB681A76C046BD4604B07C
:1035B00080BD000090B587B000AF786039607B684F
:1035C0001B683B613B685A687B681A623B685A8893
:1035D0007B689A837B682422012199547B68252289
:1035E000052199543B691B681B01DB0FDBB21A00F4
:1035F0000F23FB18511E8A411A703B685B7A002B1F
:1036000006D03B689A7A7B68110018003B4B9847BC
:103610000F23FB181B78002B0BD03B685B88012B1A
:1036200007D13B695B688022D2021A433B695A602A
:1036300005E03B695B68324A1A403B695A603B6867
:103640001B7A002B45D03B681B885A003B685B7A8D
:103650009B0313431A0080231B021A433B695A62DF
:103660001723FC187B681800264B9847030023702B
:103670003B695B68224A1A403B695A601723FB1872
:103680001B78002B07D11723FC187B6818001E4BF2
:103690009847030023701723FB181B78002B14D1C5
:1036A0003B6903229A753B681B881B0A9BB27822F0
:1036B00013439BB25A003B685B7A9B03134301227E
:1036C00013431A003B695A6212E01723FB181B7858
:1036D0000FE03B6903229A753B681B885B0001225F
:1036E0001A433B685B7A9B0313431A003B695A6297
:1036F00000231800BD4607B090BDC046097D0100FB
:10370000FFFFFBFFAB7C01004D7C010080B582B068
:1037100000AF786039607B689B8B9BB2002B01D037
:1037200005230CE07B6801229A727B680122DA7221
:103730003A687B6811001800034B98470300180093
:10374000BD4602B080BDC046B535010080B584B02D
:1037500000AF786039607B681B68FB603B685B7A10
:10376000002B06D03B689A7A7B68110018001E4B2C
:103770009847FB685B681D4A1A40FB685A603B68C3
:103780005A687B681A623B685A887B689A837B68B0
:103790002422002199547B68252205219954FB6835
:1037A00003229A753B681B7A002B0DD03B681B885F
:1037B0005A003B685B7A9B0313431A0080231B0269
:1037C0001A43FB685A6209E03B681B885A003B6851
:1037D0005B7A9B0313431A00FB685A6200231800AC
:1037E000BD4604B080BDC046097D0100FFFFFBFF60
:1037F00080B582B000AF786039607B689B8B9BB2EC
:10380000002B01D005230CE07B6801229A727B68B3
:103810000122DA723A687B6811001800034B98475E
:1038200003001800BD4602B080BDC0464D37010000
:1038300080B586B000AF0200FB1D1A70FB1D1A7820
:10384000934B9200D3587B617B691B683B613B695A
:103850001B681B01DB0FDBB21A000F23FB18511E84
:103860008A411A700E23FB187A69527E1A707B699E
:103870001B7EDAB20E23FB180E21791809780A4054
:103880001A707B695B8B9BB2002B09D17B699B8B88
:103890009BB2002B04D07B6918007E4B984770E0E8
:1038A0007B695B8B9BB2002B39D07B699B8B9BB276
:1038B000002B34D17B6925229B5CDBB2052B2ED1FA
:1038C0007B6924229B5CDBB2002B28D13B6903225D
:1038D0001A757B6900225A837B692522002199543D
:1038E0007B699B7A002B0BD07B6918006A4B984749
:1038F0003B695B68C02292021A433B695A6002E04E
:103900003B6901221A760E23FB181B780122134013
:1039100037D07B69DB687A691000984731E07B69B2
:103920005B8B9BB2002B2CD07B699B8B9BB2002BBB
:1039300027D03B695B8B9BB21A002023134011D127
:103940000F23FB181B7801225340DBB2002B04D15C
:103950007B699B8B9BB2012B04D07B692522412183
:1039600099540EE07B6924229B5CDBB2002B04D1CE
:103970007B691800494B984703E07B691800484B66
:1039800098477B695B8B9BB2002B47D07B699B8BF5
:103990009BB2002B42D17B6925229B5CDBB2052BBD
:1039A0003CD17B6924229B5CDBB2012B36D13B6985
:1039B0001B7EDBB21A000223134002D03B690222B5
:1039C0001A763B6903221A757B6900225A837B6948
:1039D0002522002199540E23FB181B780222134044
:1039E0000BD07B6924229B5CDBB2012B05D17B6968
:1039F0001B697A691000984710E00E23FB181B78AA
:103A0000012213400AD07B6924229B5CDBB2002B8D
:103A100004D17B69DB687A69100098477B692522AD
:103A20009B5CDBB2052B2ED07B6925229B5CDBB235
:103A3000002B28D03B6903221A757B6900225A8328
:103A40007B6900229A837B6925229B5CDBB2412B38
:103A50000ED07B699B7A002B0AD07B6918000E4B35
:103A600098473B695B68E022D2021A433B695A607F
:103A70000E23FB181B780422134004D07B695B697A
:103A80007A6910009847C046BD4606B080BDC04662
:103A9000F4570020B1340100213301003534010016
:103AA0004533010080B500AFBFF34F8F024B034A8F
:103AB000DA60BFF34F8FFEE700ED00E00400FA0587
:103AC00080B500AF024B9847C046BD4680BDC0469A
:103AD000A53A010080B588B000AF7860964B180019
:103AE000964B9847964B1800944B9847954B180067
:103AF000924B9847944B1800904B9847934B180063
:103B00008E4B9847924B18008C4B9847914B18005E
:103B10008A4B9847904B1800884B98478F4B18005A
:103B2000864B98471F23FB1800221A708C4B1800F5
:103B30008C4B98471023FB1818008B4B98470300B9
:103B4000BB61BB69013303D19620884B9847F1E7ED
:103B50001023FB181B780A2B04D01023FB181B78AA
:103B60000D2B31D1824B18007E4B9847814B0022A0
:103B70001A70814B00221A708049814B3122180043
:103B8000804B98477E4B3122002199547E497B4BD4
:103B9000822218007D4B984703007B617A4B81227B
:103BA00000219954784B18006E4B98477B69002B85
:103BB000ECD11F23FB1800221A70704B3222002117
:103BC0001800734B9847B5E06A4B1B78002B59D00F
:103BD000694B1B78032B0CD8674B1B785A1CD1B24E
:103BE000654A11701A001023FB181978694B995413
:103BF00005E0604B00221A705F4B00221A705E4B8A
:103C00001B78012B96D9644A624B11001800634B54
:103C10009847031E2FD06249584B1B221800614B56
:103C20009847564B18004F4B98471F23FB1800220C
:103C30001A70524B322200211800554B98475049B8
:103C40004E4B312218004F4B98474C4B1800564BA7
:103C500098470300302B06D8494B1800524B984721
:103C60000300DAB200E031221F23FB181A70434B25
:103C700018003C4B98473F4B00221A703E4B0022E5
:103C80001A7057E71023FB181B780D2B00D151E752
:103C90001023FB181B78082B04D01023FB181B786B
:103CA0007F2B1CD10C23FB18404A12681A600C238E
:103CB000FB1818002B4B98471F23FB181B78002B71
:103CC00037D01F23FB181A781F23FB18013A1A70EC
:103CD0001F23FB181B78294A0021D15429E0102307
:103CE000FB181B781B2B06D1224B01221A70224B8A
:103CF00000221A701EE71F23FB181B78312B0ED8E9
:103D00001F23FB181B781022BA1811781B4AD154B4
:103D10001F23FB181A781F23FB1801321A70102377
:103D2000FB1800225A701023FB1818000D4B9847FF
:103D300000E7C046FEE6C046285E0300517E010053
:103D4000A85E0300385E0300485E0300585E03006F
:103D5000685E0300785E0300885E0300985E0300DF
:103D6000E45A030029DE0100C5DE0100D5C10100CF
:103D7000345D030064040020650400209C040020DE
:103D800068040020EF4A0300D0040020C17E010037
:103D90000747030054050020385D0300094A03006B
:103DA0003C5D0300C5490300BF4A0300445D0300B6
:103DB00090B587B000AFF860B9607A601723FB1840
:103DC0001B221A701723FB181B78084A08480F217A
:103DD000084CA047064AB968FB681800054B98478D
:103DE00000231800BD4607B090BDC046485D0300E3
:103DF000540400206149030080B584B000AFF8602E
:103E0000B9607A600220034B984700231800BD4632
:103E100004B080BDB95D010080B584B000AFF8602A
:103E2000B9607A60034B984700231800BD4604B080
:103E300080BDC046C13A010080B584B000AFF860D3
:103E4000B9607A60054AB968FB681800044B984766
:103E500000231800BD4604B080BDC046505D03007D
:103E60006149030090B599B000AFF860B9607A601D
:103E70005F23FC18364B9847030023705F23FB1821
:103E80001B78002B5DD01023FB1801211800314B4B
:103E900098470300BB65BB6D002B50D11023FB1866
:103EA0001A785723FB1803210A401A701023FB18B5
:103EB0001A785623FB1892081A705623FB181B78A1
:103EC000DB08DBB29A005623FB181B7807210B4056
:103ED000D3183B655723FB181B78022B15D13B6D7C
:103EE000002B00DA0733DB109A003B6D1A490B40B8
:103EF00004D5013B082149420B430133D318174A2B
:103F0000B968F868164CA04719E05723FB181B78CE
:103F1000032B14D13B6D002B00DA0733DB109A0022
:103F20003B6D0D490B4004D5013B082149420B4331
:103F30000133D3180B4AB968F868094CA04701232C
:103F400002E00023FB6000231800BD4619B090BDBD
:103F5000F57001005D71010007000080685D0300DD
:103F600061490300845D030080B58AB000AFF8604A
:103F7000B9607A601023FB1800221A701023FB1816
:103F800001225A701023FB1802229A701023FB188A
:103F90000322DA701023FB1804221A711023FB1875
:103FA00005225A711023FB1806229A711023FB1860
:103FB0000722DA711023FB1808221A721023FB184B
:103FC00009225A721023FB18FF229A721023FB1841
:103FD0001800094B984703007B627B6A012B05D1CF
:103FE000064AB968FB681800054B9847002318007B
:103FF000BD460AB080BDC046ED5D01009C5D03007A
:104000006149030090B58BB002AFF860B9607A6087
:104010000023FB61494A7B6801211800484B9847FF
:104020000200484B1A60484A7B6802211800444B42
:1040300098470200454B1A60454A7B6803211800E7
:104040003F4B98470200434B1A60434A7B68042168
:1040500018003B4B98470200404B1A60394B1A68D6
:10406000364B1B68D31800221A70384B1A68364B2F
:104070001B68D31800221A70364B1A68344B1B6821
:10408000D31800221A70354B1A68334B1B68D318AB
:1040900000221A702B4B1B681800314B9847020006
:1040A0001B23FB181A70294B1B6818002C4B9847D0
:1040B00002001A23FB181A70264B1B681800284BA5
:1040C000984702001923FB181A70244B1B6818002C
:1040D000234B984702001823FB181A701723FB186C
:1040E00000221A701823FB181C781923FB181A7861
:1040F0001A23FB1819781B23FB1818780023009348
:104100002300184CA047184B98470300FB61FB693C
:10411000002B07D0154AB968FB681800144B984764
:10412000002306E0134AB968FB681800104B984753
:1041300000231800BD4609B090BDC04658050020B8
:10414000E97F01005C050020600500206405002077
:10415000680500206C050020700500207405002013
:1041600055460300BD690100C1680100B85D030048
:1041700061490300D85D030080B586B000AFF860E8
:10418000B9607A6000237B6100200D4B98470300E3
:104190007B617B69002B07D00A4AB968FB6818006D
:1041A000094B9847002306E0084AB968FB681800E5
:1041B000054B984700231800BD4606B080BDC04699
:1041C000E5670100F45D0300614903000C5E030034
:1041D00080B586B000AFF860B9607A6000237B617B
:1041E0000F4A7B68012118000E4B984702000E4BC6
:1041F0001A600D4B1A680A4B1B68D31800221A70FC
:10420000094B1B681800094B984702001323FB1841
:104210001A70074B984700231800BD4606B080BDB2
:1042200078050020E97F01007C0500205546030049
:10423000B16F010080B588B000AF7860574B1800AF
:10424000574B9847002214210220564B98470200F2
:10425000554B1A60002203210220524B984702005E
:10426000524B1A600022012105204E4B9847020054
:104270004F4B1A604C4B1B68002B07D04B4B1B68F5
:10428000002B03D04A4B1B68002B03D1494B18006D
:10429000434B9847484B00221A70474B1B78012B21
:1042A0003CD002DC002B06D06AE0022B52D0032B5C
:1042B00000D169E064E03E4B1B681F22B9180A2256
:1042C00018003E4B98470300012B27D11F23FB18F2
:1042D0001B78022B0CD002DC012B05D01AE0032B3B
:1042E0000CD0042B10D015E0334B01221A7015E0CE
:1042F000334B9847304B00221A700FE0314B9847F0
:104300002D4B03221A7009E02F4B98472A4B0322AA
:104310001A7003E0284B00221A70C046224B1B681B
:104320000822B9180A221800244B98470300012BD1
:104330002CD1264B19000120254B9847254B984737
:104340000823FB181800244B98471B4B02221A70B5
:10435000C0461BE0214B9847031E19D0204B9847BD
:10436000030018001F4B98470300012B04D01E4B7D
:1043700019000120164B98470F4B00221A7007E0D6
:104380000D4B00221A7004E0C04602E0C04600E077
:10439000C0462820154B98477FE7C046B85E03000B
:1043A00029DE0100C9A40100800500208405002049
:1043B00088050020D85E03000045002029B00100D8
:1043C000B16F01005D6F0100796F0100045F0300B0
:1043D00015DF0100956F0100014701003D47010015
:1043E00051470100ED5D01002C5F0300D5C10100C4
:1043F00090B585B000AF7860064B186879680023E7
:104400000A22054CA0470300FB60FB681800BD466C
:1044100005B090BD8005002071A7010090B585B062
:1044200000AF7860064B1868796800230A22054CB3
:10443000A0470300FB60FB681800BD4605B090BDB7
:104440008805002071A7010090B58BB002AF78609D
:10445000964B1800964B9847964B01221A70964B34
:104460009847012300932E233E2201210120934CE3
:10447000A047FF2300930123142214212420904CF1
:10448000A0478C4B1B78012B00D108E1022B02D0F6
:10449000002B6FD0FFE08B4B00221A708A4B142246
:1044A000FF211800894B9847894B00221A701F235F
:1044B000FC18884B9847030023701F23FB181B78B8
:1044C0000F2B03D91F23FB1810221A701F23FB1870
:1044D0001B78002B07D01F23FB181A787E4B110086
:1044E00018007E4B98477C4B102200211800774B18
:1044F00098470023BB6136E0794ABB69D3181B7823
:10450000FF2B06D1BB69DBB20133DAB2754B1A70EF
:104510002CE00F23FB187249BA698A1812781A70B6
:10452000714B1B78D9B2714B1B78DAB2704B1B7888
:10453000DCB20F23FB18187823006E4CA0476E4B9B
:104540009847FA239B0018006C4B98470F23FB18E1
:104550001878002300220021664CA047664B98473C
:10456000BB690133BB61BB69132BC5DD514B002215
:104570001A7097E01723FC18564B984703002370D6
:10458000554B102200211800504B98471723FB1859
:104590001B780F2B03D91723FB1810221A7017232F
:1045A000FB181B78002B65D01723FB181A784A4B91
:1045B00011001800494B9847031E5BD100233B6153
:1045C00050E0454A3B69D3181B789B08DBB2002BAF
:1045D00000DA0733DB10DBB29B00D9B23E4A3B69FD
:1045E000D3181B789B08DBB207221340DAB20E23E4
:1045F000FB188A181A70384A3B69D3181A780D23A9
:10460000FB1803210A401A700D23FB181B78032B9B
:104610000FD1354B1B78D9B2344B1B78DAB2344BFF
:104620001B78DCB20E23FB1818782300314CA0470E
:1046300015E00E23FB1818780023002200212D4CD2
:10464000A047204B1B7819001F4B0E22BA18127876
:104650005A541C4B1B780133DAB21A4B1A703B695F
:1046600001333B611723FB181A783B699A42A8DC97
:10467000214B9847134B1A781A4B1B789A4203D256
:10468000104B1B78132B0CD9114B01221A70094BBC
:1046900001221A7005E0074B00221A7002E0C046A2
:1046A00000E0C0463220154B9847EAE65C5F030005
:1046B00029DE01003C450020812A0100C1240100BF
:1046C000492701008D05002004450020074703000D
:1046D0008F050020F57001002C4500205D71010060
:1046E000184500208E0500208C05002014000020B5
:1046F00015000020A97201007D730100D5C10100E1
:1047000080B582B000AF7860084A7B68100019005D
:1047100014231A00064B9847064B02221A70064BC8
:1047200000221A70C046BD4602B080BD1845002068
:10473000D14603003C4500208F05002080B500AF26
:10474000024B1B781800BD4680BDC0468F05002077
:1047500080B500AF014B1800BD4680BD0445002068
:1047600080B584B000AF0200FB1D1A700F23FB1848
:10477000FA1D1278D2091A700E23FB18FA1D12784E
:1047800052091A700D4BBB600F23FB181B78002BCE
:104790000FD10F23FB181B789B0010229446BC44BA
:1047A0006344083B1A680E23FB181B78DB01D318FF
:1047B00000E000231800BD4604B080BD0044004165
:1047C00080B582B000AF0200FB1D1A70FB1D1B7884
:1047D0001800034B984703001800BD4602B080BD87
:1047E0006147010080B584B000AF0200FB1D1A7064
:1047F000BB1D0A1C1A70FB1D1B7818000D4B984737
:104800000300FB60FB1D1B781F22134001229A400E
:104810001300BB60BB1D1B78002B03D0FB68BA687C
:104820009A6102E0FB68BA685A61C046BD4604B0AE
:1048300080BDC046C147010080B500AF024B0022D9
:104840001A70C046BD4680BD9D05002080B582B06F
:1048500000AF0200FB1D1A70FB1D1B785BB2DB432F
:104860005BB2064A127852B213405BB2DAB2034B23
:104870001A70C046BD4602B080BDC0469D050020EE
:1048800080B582B000AF0200FB1D1A70054B1A788C
:10489000FB1D1B781343DAB2024B1A70C046BD46AB
:1048A00002B080BD9D05002080B582B000AF02003F
:1048B000FB1D1A70064B1B78FA1D12781340DBB2F1
:1048C0005A1E9341DBB21800BD4602B080BDC046FF
:1048D0009D05002090B585B000AF786039607B6899
:1048E000002B02D03B68002B01D1002313E00F23E3
:1048F000FC1839680A4B002218000A4B984703003D
:104900002370074B1800084B98470F23FB181B78A0
:104910005A425341DBB21800BD4605B090BDC046B7
:10492000D0070020B9D90200B9E3020080B59EB0DB
:1049300000AFF860B960FB1D1A707623FB180122E6
:104940001A807423FB1800221A806E23FB180022A1
:104950001A807223FB1800221A802423FB181800E7
:1049600041231A000021924B98471823FB18180086
:1049700009231A0000218E4B98471423FB180022AC
:104980001A600023BB667123FB1800221A70BB68F3
:10499000002B01D1002306E1BA68FB681100180062
:1049A000844B984703001A0001235340DBB2002BCD
:1049B00001D00123F7E0BB6818007F4B9847030044
:1049C000402B01D90023EEE0BB682E2118007B4B61
:1049D00098470300BB66BB6E002B52D0BB6E18001D
:1049E000754B984702006E23FB181A806E23FB1844
:1049F0001B88072B37D87123FB1801221A70BA6E57
:104A00001823FB18110018006D4B9847BB6818005D
:104A1000694B984702006E23FB181B88D31A3C2B66
:104A200011D97423FB186E22BA1812883C218A1AF5
:104A30001A807423FB181A88B9682423FB181800FD
:104A4000604B98472AE0BA6EBB68D21A7423FB18F1
:104A50001A807423FB181A88B9682423FB181800DD
:104A6000584B98471AE07423FB183C221A80742391
:104A7000FB181A88B9682423FB181800514B984773
:104A80000CE07423FB183C221A807423FB181A884C
:104A9000B9682423FB1818004A4B98477423FB1865
:104AA0001B887422BA18591C11801A002423FB1881
:104AB0002D2199547623FB1800221A807223FB18AB
:104AC00001221A8010E07223FA187223FB181B8847
:104AD000191C8900CB18DB1813807623FB181A8861
:104AE0007623FB1801321A807623FB181B88022BD1
:104AF000E9D97623FB1801221A804BE07623FB18B4
:104B00001A8831491423FB181800304B9847742336
:104B1000FB181B882422BA18D3181422B9180322B0
:104B20001800284B98477123FB181B78002B0CD0DA
:104B30007423FB181B8803332422BA18D3181822B5
:104B4000BA18110018001E4B98472423FA18FB6866
:104B500011001800174B984703001A000123534017
:104B6000DBB2002B0FD0FB1D1A78BB6800211800A8
:104B70000F4B98472423FA18BB6811001800104BFC
:104B8000984701230FE07623FB181A887623FB1839
:104B900001321A807623FA187223FB1812881B88B8
:104BA0009A42ABD300231800BD461EB080BDC0465C
:104BB00007470300D5480100BF4A0300194B030013
:104BC000734A0300EF4A0300845F0300C5490300F2
:104BD00090B583B002AF0120224B984703001A0022
:104BE00001235340DBB2002B05D01F4B19000120DD
:104BF0001E4B984732E002201A4B984703001A00D8
:104C000001235340DBB2002B05D0194B19000120C2
:104C1000164B984722E00420124B9847031E05D0FC
:104C2000144B19000120114B984717E008200D4B39
:104C30009847031E05D0104B190001200B4B9847D5
:104C40000CE00E4B19000120084B98470C490D4809
:104C500000230093002301220B4CA047BD4601B066
:104C600090BDC046A94801008C5F030015DF01001C
:104C7000B85F0300E45F0300106003003C600300C2
:104C800068600300984500200D100300B0B586B0A1
:104C900000AF786039607B68002B02D03B68002B46
:104CA00005D1584B19000120574B9847A6E0082022
:104CB000564B984703001A0001235340DBB2002BE8
:104CC00055D000237B61524B30221A70504B3A2250
:104CD0005A70504B7B6102E07B69013B7B617B69D1
:104CE0001B782F2BF8D17B6918004B4B984703009A
:104CF000012B24D97B6901337B617A69474B110011
:104D00001800474B98474249464B40221800464BF3
:104D100098473F4A454B190001203B4B98471323C6
:104D2000FC183B493F4B0A221800414B98470300AF
:104D300023701323FB181B78002B12D008E03D4B87
:104D400019000120304B984720203B4B984755E0F5
:104D50001323FB181A78394B190001202A4B984766
:104D60004CE0374B00221A600820334B98477B6891
:104D7000002B43D00023FB601323FC180C23FB18EB
:104D80003A68796827482F4DA847030023701323FA
:104D9000FB181B78002B0CD0224B18002A4B98478D
:104DA0002020254B9847294B19000120164B984786
:104DB00024E0234B1A68FB68D218214B1A60204B61
:104DC0001A68234B1B68234901200F4CA0471C4B3A
:104DD0001A681F4B1B689A4210D3124B18001A4BCB
:104DE00098471D4B19000120074B984700211720B9
:104DF0001A4B98471020104B9847C046BD4606B046
:104E0000B0BDC0469460030015DF0100A948010051
:104E10005C00002092600300BF4A03005E00002097
:104E2000734A0300D00700202D490100F8600300F9
:104E3000B9D90200B8600300814801002061030075
:104E4000F8070020E9DE0200B9E302005461030024
:104E5000F407002090610300C4610300E5470100EE
:104E600090B585B000AFF860B9607A60BB68042B7C
:104E700000D977E0BB689A003C4BD3181B689F466B
:104E80003B4B190001203B4B98476BE03A4B190014
:104E90000120384B98470420384B984762E07B68E4
:104EA0001B881A007B685B6835490120314CA0479C
:104EB0007B681B88C82B0DD17B685A68314B1A6000
:104EC000314B00221A607B685A6880239B009A420B
:104ED00043D803E02020294B984743E07B689A6839
:104EE0007B685B6819001000284B98471020234B03
:104EF000984732E07B685A687B681B68190010008D
:104F0000224B98477B681B7A002B28D010201B4B24
:104F1000984724E07B681A681D4B19000120154B47
:104F200098477B681B680B331BD10820194B9847A7
:104F3000031E06D0184B1800184B98470820184B32
:104F400098470420134B9847031E02D00420144BAB
:104F50009847144B9847C04603E0C04602E0C0465D
:104F600000E0C046BD4605B090BDC0467C68030069
:104F7000F861030015DF0100306203008148010081
:104F80005C620300F4070020F80700208D4C01004C
:104F900098620300A9480100D0070020B9E302008D
:104FA0004D480100D14B010080B582B000AF3A609E
:104FB000FB1D021C1A70BB1D0A1C1A703A68BB1D2F
:104FC0001978FB1D1B785BB21800034B9847C0464D
:104FD000BD4602B080BDC0461D0D0300B0B586B011
:104FE00004AF786039603B68FF2213401C003B68C7
:104FF0001B0A1A00FF2313403A68120C1100FF220B
:105000000A403968090E0D00786809490295019235
:105010000093230002000120064CA0473A687B68F9
:1050200011001800044B9847C046BD4602B0B0BD01
:10503000C862030015DF0100810E030090B587B040
:1050400002AF02003960FB1D1A70FB1D1B782C2B70
:1050500002D0322B3DD06FE03B68FB60FB681B78D1
:10506000012B07D1364B19000120364B9847364BA0
:1050700098475EE0FB681B78002B5AD1334B190030
:105080000120304B98470220314B98470820314B84
:105090009847031E06D0304B1800304B9847082025
:1050A0002B4B984704202B4B9847031E02D004201B
:1050B000274B98472A4B012118002A4B98472A4A28
:1050C0002A48FF230093130002220421284CA04702
:1050D0002FE03B68BB60BB681B781800BB680133DE
:1050E0001B781C00BB6802331B781A00BB680333B3
:1050F0001B78204901930092230002000120114CEB
:10510000A04702201C4B98471C4B1B78012B02D157
:105110001B4B98470FE01B4A114B110018001A4B0C
:105120009847031E07D0194B19000120054B9847DB
:1051300001E0C04600E0C046C046BD4605B090BD97
:10514000F862030015DF0100ED240200186303007C
:105150004D480100A9480100D0070020B9E3020032
:10516000FC070020C9F902003C6303004C63030004
:105170001920020050630300814801009C050020B3
:10518000D14B0100705F030095F8020078630300C3
:1051900090B583B000AF294B9847294B19000120E7
:1051A000284B9847FC1D0020274B9847030023708D
:1051B000FB1D1B78012B10D1244B19000120214B22
:1051C0009847234B190001201E4B9847C0460020EA
:1051D000204B98470300022BF9D1FB1D1B78002BB5
:1051E000E0D11D4B19000120164B98478C239A00E3
:1051F0001A4B002118001A4B9847BC1D174B190079
:105200000020184B984703002370BB1D1B780B2B05
:1052100007D1BB1D1A78144B19000120094B984780
:1052200008E0124B19000120064B98470120104B53
:105230009847C046BD4603B090BDC04625ED01006D
:105240009C63030015DF010001F20100D463030039
:10525000FC63030075ED010030640300A00500202D
:105260000747030061D9020054640300846403000B
:105270008148010080B582B000AF3B1D1800084B8B
:1052800098473A1D074B11001800074B9847054BEC
:105290001800064B9847C046BD4602B080BDC046C8
:1052A000B124030040450020D5240300C12503009C
:1052B00080B588B000AF3B001800164B98473B0004
:1052C000802292001A613B00134A5A603B00BC22C4
:1052D000FF321A803B0001229A703A000F4B1100F6
:1052E00018000F4B98470300FB61FB69002B06DA9F
:1052F000FA690C4B190001200B4B9847FEE70B4A4B
:10530000064B110018000A4B9847C046BD4608B02E
:1053100080BDC046450B0300404500209845002055
:10532000910B0300A864030015DF0100614E01002A
:105330007D0C030080B582B000AF3A60FB1D021CFB
:105340001A70BB1D0A1C1A703A68BB1D1978FB1D28
:105350001B785BB21800034B9847C046BD4602B0AD
:1053600080BDC0463DF8020080B582B000AF7860D5
:1053700039603A687B6811001800034B9847C046B3
:10538000BD4602B080BDC04671F8020090B585B040
:1053900000AF78607B685B685A687B685B689B6875
:1053A00019490120194CA0477B681B689B68184964
:1053B00007221800174B9847031E21D17B681B68F2
:1053C0009B680733FB60FB681B78303BDAB20B232A
:1053D000FB181A700B23FB181B781A000E4B1900D0
:1053E00001200A4B98470B23FB1818000B4B9847DA
:1053F0000300012B04D10A4B19000120034B9847ED
:10540000C046BD4605B090BDF064030015DF010045
:10541000F8640300CD4A0300006503001D44010049
:105420001865030090B58BB000AF78600C23FB18B3
:105430001422FF211800484B98477B681B689B6823
:10544000464909221800464B9847031E66D1454B32
:1054500019000120444B98477B685B685A687B6859
:105460005B689B68414901203F4CA0477B681B68F3
:10547000DA687B681B689B683D4901203A4CA0476D
:1054800000237B627B681B689B680933BB6015E067
:105490007C6A631C7B62BB680822B9180A22180068
:1054A000344B98470300DAB20C23FB181A55BB683B
:1054B0001B782C2B0AD1BB680133BB607B6A132B92
:1054C00005DCBB681B78002BE2D100E0C0462A4B0C
:1054D00019000120244B984700233B620DE00C2368
:1054E000FA183B6AD3181B781A00244B19000120C4
:1054F0001D4B98473B6A01333B623B6A132BEEDD41
:105500000C23FB1818001E4B98470300012B1ED1DB
:105510001C4B19000120144B984718E01A4B190036
:105520000120114B98477B685B685A687B685B6811
:105530009B680E4901200C4CA0477B681B68DA6809
:105540007B681B689B680A490120074CA047C0463E
:10555000BD460BB090BDC04607470300346503004D
:10556000CD4A03004065030015DF0100F06403002D
:105570005C650300794C03006465030078650300F3
:10558000F14301007C6503009865030090B58BB082
:1055900006AFF860B9607A60BB68012B3BD0052B81
:1055A00058D0002B00D05BE07B681B68002B25DB0C
:1055B0002D4B190001202D4B98472D492D4AF86895
:1055C00000230593002304930023039300230293F5
:1055D00000230193274B00930B000121264CA04789
:1055E000031E05D0254B19000120204B984737E0BA
:1055F000234B190001201D4B984731E0214A224BD3
:1056000019000120194B98471E4AFB681100180029
:105610001E4B984724E07B681B78002B11D11C4B54
:105620001C49F86800221C4CA0471C4B1C49F86818
:105630000022194CA0471B4B190001200B4B984727
:105640000EE07B681B781A00174B19000120074BEE
:10565000984705E0154B19000120044B9847C046B8
:10566000C046BD4605B090BDC865030015DF01000A
:10567000E4650300F8650300DDF80200046603003A
:105680002C660300705F03004866030095F8020073
:1056900025540100806603007DFA02008D5301004D
:1056A00098660300B0660300C4660300F866030052
:1056B00080B588B000AF3B1D18001F4B98473B1DBD
:1056C0001E4A9A603B1D80229200DA603B1D1C4AF4
:1056D0001A613B1D802292005A613B1D194A1A80B3
:1056E0003B1D194A9A803A1D184B11001800184B9F
:1056F00098470300FB61FB69002B06DAFA69154B3A
:1057000019000120144B9847FEE7144A0F4B110073
:105710001800134B98470300FB61FB69002B06DA66
:10572000FA69104B190001200B4B9847FEE7C04661
:10573000BD4608B080BDC046D5F702003408002041
:10574000340A00205B07000070170000FC070020EF
:1057500025F702000C67030015DF01008D550100DD
:1057600015F802004067030080B584B000AF3B1D10
:1057700018000B4B98473B1D37221A603B1D002237
:105780005A603B1D01221A723B1D0222DA723B1D38
:1057900019000720034B9847C046BD4604B080BDA2
:1057A0000D6902004169020080B500AF064B00227E
:1057B00007211800054B984700210720044B984704
:1057C000C046BD4680BDC046D55701000D650200EC
:1057D0007165020080B500AF084B1B685A1C074B6F
:1057E0001A60064B1B68282B02D9044B01221A6051
:1057F000034B01221A70C046BD4680BD58000020F0
:10580000340C002080B500AF154A164B110018006B
:10581000154B9847031E08D0144B19000120144B58
:10582000984702E00020134B98470E4B34229B5CB4
:10583000002BF7D1104B9847104B01221A70104AD9
:10584000104B11001800104B9847104B9847104B05
:105850009847104B03221A70C046BD4680BDC04613
:10586000705F0300FC070020C9F9020078630300A1
:1058700015DF0100FD1F0200B95502009C05002044
:10588000DD4F0100A94F01000156020069550200D9
:10589000D14B01009005002090B585B000AF06E027
:1058A00000202A4B98472A4B18002A4B9847102073
:1058B000294B984703001A0001235340DBB2002B09
:1058C00009D02020244B984703001A00012353409D
:1058D000DBB2002BE4D1214B9847FA239B00180040
:1058E0001F4B98471F4B00221A703B001E4A13CAD9
:1058F00013C312781A703B0030221A700F23FC1861
:1059000039001A4B0A221800194B984703002370DC
:105910000F23FB181B78002B08D00F23FB181A78D5
:10592000144B19000020144B984703E0134B180048
:10593000134B98470D4B1800124B9847124B0022FF
:105940001A70C046BD4605B090BDC046FD1F02009E
:1059500040450020F1260300A9480100B955020086
:10596000D5C101009C05002098670300D0070020E6
:10597000B9D902007467030015DF010084670300D2
:1059800029DE0100B9E302009005002080B500AFD8
:10599000184B9847184B9847184A194B1100180094
:1059A000184B9847184B9847184B34229B5C0122A0
:1059B0005340DBB2002B0CD0154A144B11001800D9
:1059C000144B9847031E04D0134B19000120134BAE
:1059D00098470E4B34229B5C002B04D0104B1900CF
:1059E00001200E4B98470F4B01221A70C046BD464E
:1059F00080BDC046B9550200B1560100695301008F
:105A0000355301000156020069550200FC070020D1
:105A1000705F030095F802007863030015DF010052
:105A2000A86703009005002080B500AF00200A4B56
:105A300098470A4B18000A4B98470A4B98470A4B5D
:105A400034229B5C002B04D0074B64211800074BC9
:105A50009847C046BD4680BDFD1F0200404500205E
:105A6000F1260300715A0100FC070020C5FA02006C
:105A700090B58BB002AF394B1B680822B9180022D1
:105A80001800374B98470300012B63D1354B364A3A
:105A900003CA03C312881A800023FB612DE0082388
:105AA000FA18FB69D3181B78FF2B2AD00823FA18A1
:105AB000FB69D3181B782D4A380003212C4CA047D2
:105AC0003A00284B110018002A4B9847FB69013314
:105AD0000822BA18D35CFF2B0CD0FB690133132BBF
:105AE00008DC3B002C221A803A001E4B11001800E3
:105AF000204B9847FB690133FB61FB69132BCEDD1B
:105B000000E0C046174B18001B4B984703001A00D3
:105B1000144BD218194B1000190003231A00184B0C
:105B20009847104B19000120164B9847164B190047
:105B30000120144B98470B4B18000F4B984704005B
:105B4000084A1249124800230193012300932300BD
:105B5000104CA047C046BD4609B090BD9805002036
:105B600029B001001800002034650300C467030059
:105B700061490300454A0300BF4A0300C8670300A8
:105B8000D146030015DF0100CC670300D067030096
:105B9000FC07002011FA020090B58DB002AF7860CA
:105BA00064205F4B98475F4B9847002204210520F3
:105BB0005D4B984702005D4B1A60002214210220C1
:105BC000594B984702005A4B1A60584B1B68002BE0
:105BD00003D0574B1B68002B03D1564B1800564B74
:105BE0009847564B1800544B9847554B9847554B80
:105BF0009847554B9847554B9847554B9847554BA9
:105C000098470C23FB18182200211800524B984784
:105C1000524B98470C23FB18514A1A602723FC1853
:105C20000C23FB1818004F4B9847030023702723C1
:105C3000FB181B785BB2002B09D02723FB1800222E
:105C40009A56494B19000120484B9847FEE7484AAD
:105C5000484B19000120454B9847474B9847474A06
:105C6000474B11001800474B9847474A4048FF23CD
:105C70000093130002220421444CA04706E00020B8
:105C8000434B9847434B1800434B98470220434BE4
:105C9000984703001A0001235340DBB2002BEED1DA
:105CA000FA239B0018001E4B98473D4B01221A70A7
:105CB0003B4B1B785BB2012B0BD002DC002B05D0D9
:105CC00010E0022B08D0032B09D00BE0354B98478E
:105CD0000CE0354B984709E0344B984706E0344BCD
:105CE000984703E02E4B00221A70C0460B23FB1886
:105CF00000221A700D4B1B680B22B91800221800E5
:105D00002C4B98470300012B05D10B23FB181B7864
:105D10005AB2234B1A706420014B9847C8E7C0461B
:105D2000D5C1010039480100C9A401009405002033
:105D300098050020E867030029DE010010680300D1
:105D400075520100B1520100B1560100915101009C
:105D500069570100A95701000747030031030200FA
:105D60003D500100091E02002C68030015DF0100F0
:105D70004C63030058680300695502006953010031
:105D800035530100015602003C6303001920020054
:105D9000FD1F020040450020F1260300A948010034
:105DA000900500208D590100295A01000558010075
:105DB0009958010029B0010090B583B000AF0200EE
:105DC000FB1D1A70FB1D1B78032B06D8054B1868AA
:105DD000F91D00230A22044CA047C046BD4603B06B
:105DE00090BDC0469405002071A7010090B585B014
:105DF00000AF7860064B1868796800230A22054CCA
:105E0000A0470300FB60FB681800BD4605B090BDCD
:105E10009805002071A7010080B582B000AF020094
:105E2000FB1D1A70064BFA1D127811001F220A4042
:105E3000012191400A001A60C046BD4602B080BDF3
:105E400000E100E080B584B000AF78607B681B683B
:105E5000FB60FB68DB69072213405A1E9341DBB2EB
:105E60001800BD4604B080BD80B582B000AF786038
:105E7000C0467B681800044B9847031EF9D1C04602
:105E8000BD4602B080BDC046455E010080B582B00F
:105E900000AF78607B6864221A607B681B4A5A6096
:105EA0007B6800229A607B6800221A737B6800225C
:105EB0001A767B68802292031A617B680122524223
:105EC000DA827B68012252429A827B680022DA6180
:105ED0007B6800221A627B682422002199547B6827
:105EE00000229A627B682C22002199547B682D2223
:105EF000002199547B682E22002199547B68D72277
:105F00001A86C046BD4602B080BDC046480D00009E
:105F100080B584B000AF78607B681B68BB600023ED
:105F2000FB607B681800144B9847BB681B68022213
:105F30001A43BB681A607B681B6818000F4B9847B0
:105F4000030018000E4B98470CE0FB680133FB6020
:105F50007B68DB881A00FB689A4203D8BB68102272
:105F60005A8306E0BB685B8B9BB21A001023134078
:105F7000EBD0BD4604B080BD695E010035770200FC
:105F8000195E010080B582B000AF78600A00FB1C8A
:105F90001A707B685B7EDBB25AB2FB1C1B78012156
:105FA00099400B005BB213435BB2DAB27B685A765E
:105FB000C046BD4602B080BD90B591B000AF002391
:105FC000FB633A23FB1800221A703B1D1800214B7B
:105FD00098473B1D204ADA613B1D204A1A623B1D4F
:105FE000FA229200DA823B23FB1803221A701EE089
:105FF0003A23FC183A1D1A491A4B18001A4B9847B5
:10600000030023703A23FB181B78002B04D13A239A
:10601000FB181B78FB630FE0124B1800134B9847DB
:106020003B23FB181A783B23FB18013A1A703B23D9
:10603000FB181B78002BDBD1FB6B002B04D1094B29
:1060400018000B4B984700E0C046FB6B1800BD469C
:1060500011B090BD8D5E0100020008000200090031
:106060000008004284460020B17A0100E57B01006F
:10607000115F010080B584B000AF78600E4B002244
:106080001A700D4B01229A600023FB600B4B1B68BA
:106090000C22BA1811001800094B9847094B00222E
:1060A0001A70FB68002B03D0074B802252051A6040
:1060B000C046BD4604B080BD380C0020AC46002070
:1060C000F9AD0100350C002004ED00E080B584B08E
:1060D00000AF78600E4B00221A700D4B01229A60BF
:1060E0000023FB600B4B1B680C22BA181100180030
:1060F000094B9847094B00221A70FB68002B03D00C
:10610000074B802252051A60C046BD4604B080BDD0
:10611000380C0020AC460020F9AD0100350C002001
:1061200004ED00E080B584B000AF78600E4B002233
:106130001A700D4B01225A600023FB600B4B1B6849
:106140000C22BA1811001800094B9847094B00227D
:106150001A70FB68002B03D0074B802252051A608F
:10616000C046BD4604B080BD380C0020AC460020BF
:10617000F9AD0100350C002004ED00E080B500AF62
:106180001149124B00221800114B98470F4B002168
:106190001800104B984710490C4B012218000C4B6B
:1061A00098470A4B012118000A4B98470B49074BA7
:1061B00002221800064B9847044B02211800054B99
:1061C0009847C046BD4680BD7560010084460020EA
:1061D0006D350100855F0100CD6001002561010082
:1061E00080B582B000AF00237B60144B984703005A
:1061F0007B607B68002B1AD1114B98470120114B13
:1062000098470200104B1A600322002101200F4B17
:10621000984702000E4B1A600B4B1B68002B03D0F3
:106220000B4B1B68002B03D106237B6000E0C046AC
:106230007B681800BD4602B080BDC046B95F010052
:106240007D61010031A7010080460020C9A4010042
:10625000AC46002090B589B000AF78600023FB61A8
:106260000023BB6100237B6100233B617B68002B23
:1062700003D07B685B68002B03D108235B42FB6182
:106280001FE07B681B789AB2104B1A807B685A68B3
:106290000E4B5A607B68DA890C4B5A800F23FC182E
:1062A0000A4A0B4B110018000A4B98470300237051
:1062B0000F23FB181B78002B03D006235B42FB61E6
:1062C000C046FB691800BD4609B090BDB04600202D
:1062D00084460020F137010090B589B000AF7860A6
:1062E0000023FB610023BB6100237B6100233B6132
:1062F0007B68002B03D07B685B68002B03D10823ED
:106300005B42FB611FE07B681B789AB2104B1A80DE
:106310007B689A680E4B5A607B689A890C4B5A804E
:106320000F23FC180A4A0B4B110018000A4B984720
:10633000030023700F23FB181B78002B03D00623C8
:106340005B42FB61C046FB691800BD4609B090BDC9
:10635000B0460020844600200D37010090B583B080
:1063600000AF00237B60094B186800230022002146
:10637000074CA0470300012B02D014235B427B6033
:106380007B681800BD4603B090BDC0468046002023
:1063900071A7010080B584B000AF78600023FB6076
:1063A000084B1B687A6811001800074B98470300D8
:1063B000012B02D01D235B42FB60FB681800BD4629
:1063C00004B080BD8046002081B4010080B584B057
:1063D00000AF78600023FB60044B1A687B681A608A
:1063E000FB681800BD4604B080BDC046AC46002026
:1063F00080B500AF024B1B781800BD4680BDC0467B
:10640000350C002080B582B000AF0200FB1D1A7071
:10641000034BFA1D12781A70C046BD4602B080BD0B
:10642000350C002080B584B000AF7860396000235F
:10643000FB600023BB6096235B001800274B984746
:106440000300FB60FB68002B38D10823FB18180001
:10645000234B98470300FB60FB68002B30D17B681F
:106460001800204B98470300FB60FB68002B2AD1E3
:10647000BB683A68110018001B4B98470300012BBA
:1064800011D11A4B9847031E11D00020184B984782
:10649000FB68002B03D021235B42FB6014E0032345
:1064A0005B42FB6010E003235B42FB600CE0114B9E
:1064B00098470200FB681343FB6002E0C04600E01F
:1064C000C046FB6805E0C0460A4B98470300FB60E6
:1064D000FB681800BD4604B080BDC046956301004E
:1064E000CD6301005562010081B40100F163010038
:1064F000056401005D63010080B586B000AFF860FF
:10650000B9607A6000237B6100233B6196235B00C6
:106510001800364B984703007B617B69002B55D1EF
:106520001023FB181800324B984703007B617B69EE
:10653000002B4DD1FB6818002E4B984703007B6160
:106540007B69002B47D13B697A68110018002A4B00
:1065500098470300012B18D1284B9847031E06D0FB
:106560000020274B984703235B427B6134E0BB68E4
:106570001800244B9847FB681800234B98470300EA
:106580007B617B69002B04D026E003235B427B61A7
:1065900022E03B697A6811001800174B9847030006
:1065A000012B0AD1154B9847031E0AD00020144B2B
:1065B000984703235B427B610EE003235B427B61D0
:1065C0000AE0124B984703007B6102E0C04600E0FE
:1065D000C0467B6905E0C0460C4B984703007B61D1
:1065E0007B691800BD4606B080BDC04695630100BA
:1065F000CD6301005562010081B40100F163010027
:1066000005640100D5C10100D96201005D6301008C
:1066100080B582B000AF00203B4B984701203B4B38
:10662000984700203A4B984700210020394B984763
:10663000AE20394B984703007B607B68002B04D069
:10664000364B1800364B984703E0364B1800344B56
:106650009847D520304B984703007B607B68002B20
:1066600004D0314B18002E4B984703E02F4B1800F5
:106670002B4B98478020284B9847A820264B9847BB
:106680002F20254B9847D320234B98470020224B9F
:1066900098474020204B98478D201F4B9847142047
:1066A0001D4B9847A6201C4B9847A4201A4B98478F
:1066B000A120194B9847C820174B9847DA20164B52
:1066C00098471220144B98478120134B98478F20EE
:1066D000114B9847D920104B9847F1200E4B984703
:1066E000DB200D4B984740200B4B9847AF200A4BBF
:1066F000984700200E4B984703007B607B6818008A
:10670000BD4602B080BDC046116E0100ED6E0100B5
:10671000BD6D0100DD6D010035670100C87D03001E
:1067200029DE0100E47D0300F87D03001C7E0300E8
:10673000E567010080B584B000AF0200FB1D1A7050
:106740000823FB1800221A700823FB18FA1D127880
:106750005A700C4B3D221A700A4B0822BA185A6024
:10676000084B0222DA81074B00229A81054B6421F3
:106770001800054B98470300FB60FB681800BD46F6
:1067800004B080BDBC4600202564010080B584B003
:1067900000AF0200FB1D1A700823FB1840221A707C
:1067A0000823FB18FA1D12785A700C4B3D221A7000
:1067B0000A4B0822BA185A60084B0222DA81074BAA
:1067C00000229A81054B64211800054B984703006D
:1067D000FB60FB681800BD4604B080BDBC460020CD
:1067E0002564010080B5A6B000AF0200FB1D1A7041
:1067F00000239422BA181360FB1D1B78012B43D190
:1068000000239022BA18136038E09023FB181B680D
:10681000DBB21800244B98470020244B98470C23E8
:10682000FB18802200211800214B984700238C225E
:10683000BA18136016E000201E4B984703009422FC
:10684000BA1813609423FB181B68002B03D0942301
:10685000FB181B6824E08C23FB181B6801338C2277
:10686000BA1813608C23FB181B687F2BE3DD902381
:10687000FB181B6801339022BA1813609023FB1891
:106880001B68072BC1DD08E0C0235A000A4B00211A
:106890001800074B9847094B98479423FB181B682F
:1068A0001800BD4626B080BD4D6901007D6901001C
:1068B000074703008D6701004C0C0020C1680100F0
:1068C00080B582B000AF00233B60FB1D00221A7030
:1068D0002BE0FB1D1B781800184B98470020184B25
:1068E0009847BB1D00221A7016E0FB1D1B789A0109
:1068F000BB1D1B78D318134AD35C1800124B984762
:1069000003003B603B68002B01D03B6812E0BB1DDD
:106910001A78BB1D01321A70BB1D1B783F2BE4D9BE
:10692000FB1D1A78FB1D01321A70FB1D1B78052B0D
:10693000CFD93B681800BD4602B080BD4D6901004B
:106940007D6901004C0C00208D67010080B582B08C
:1069500000AF0200FB1D1A70FB1DFA1D12785021BA
:1069600049420A431A70FB1D1B781800024B9847D6
:10697000C046BD4602B080BD3567010080B582B01B
:1069800000AF0200FB1D1A70FB1D1B781B09DBB258
:1069900010221343DBB20233DBB21800064B9847D8
:1069A000FB1D1B780F221340DBB21800024B9847E7
:1069B000C046BD4602B080BD35670100B0B584B0A9
:1069C00000AF05000C0010001900FB1D2A1C1A70F6
:1069D000BB1D221C1A707B1D021C1A703B1D0A1C59
:1069E0001A707B1D1B780122D31ADAB20F23FB1811
:1069F0001A700E23FB1801221A707B1D1B781A1CBB
:106A0000D201D31ADB18DAB20D23FB181A700C234B
:106A1000FB1800221A700B23FB187A1D12781A70CB
:106A2000BA1D7B1D12781B78D318D9B22023FB180E
:106A30001C783B1D1A78FB1D18782300984CA04742
:106A4000BA1D7B1D12781B78D31AD9B22023FB18EC
:106A50001C783B1D1A78FB1D18782300904CA0472A
:106A6000FA1D7B1D12781B78D318D8B22023FB188F
:106A70001C783B1D1A78BB1D19782300884CA04751
:106A8000FA1D7B1D12781B78D31AD8B22023FB186D
:106A90001C783B1D1A78BB1D19782300804CA04739
:106AA000EEE00F23FB181B787F2B1CD80B23FB1861
:106AB0001B785BB2DBB2013BDAB20B23FB181A7016
:106AC0000D23FB181B780233DAB20D23FB181A7062
:106AD0000F23FB181A780D23FB181B78D318DAB292
:106AE0000F23FB181A700C23FB181B785BB2DBB268
:106AF0000133DAB20C23FB181A700E23FB181B7833
:106B00000233DAB20E23FB181A700F23FB181A781F
:106B10000E23FB181B78D318DAB20F23FB181A7058
:106B20000C23FB181A78FB1D1B78D318D8B20B2343
:106B3000FB181A78BB1D1B78D318D9B22023FB1879
:106B40001C783B1D1A782300554CA0470C23FB18DA
:106B50001B78FA1D1278D31AD8B20B23FB181A78B7
:106B6000BB1D1B78D318D9B22023FB181C783B1D02
:106B70001A7823004A4CA0470C23FB181A78FB1DF7
:106B80001B78D318D8B20B23FB181B78BA1D1278C8
:106B9000D31AD9B22023FB181C783B1D1A78230086
:106BA0003F4CA0470C23FB181B78FA1D1278D31A10
:106BB000D8B20B23FB181B78BA1D1278D31AD9B29E
:106BC0002023FB181C783B1D1A782300344CA04767
:106BD0000B23FB181A78FB1D1B78D318D8B20C2393
:106BE000FB181A78BB1D1B78D318D9B22023FB18C9
:106BF0001C783B1D1A782300294CA0470B23FB1857
:106C00001B78FA1D1278D31AD8B20C23FB181A7805
:106C1000BB1D1B78D318D9B22023FB181C783B1D51
:106C20001A7823001E4CA0470B23FB181A78FB1D73
:106C30001B78D318D8B20C23FB181B78BA1D127816
:106C4000D31AD9B22023FB181C783B1D1A782300D5
:106C5000134CA0470B23FB181B78FA1D1278D31A8C
:106C6000D8B20C23FB181B78BA1D1278D31AD9B2EC
:106C70002023FB181C783B1D1A782300084CA047E2
:106C80000C23FA180B23FB18127852B21B785BB254
:106C90009A4200DA05E7C046BD4604B0B0BDC04622
:106CA000A56C0100B0B582B000AF05000C0010006B
:106CB0001900FB1D2A1C1A70BB1D221C1A707B1D9B
:106CC000021C1A703B1D0A1C1A70FB1D1B783F2BFF
:106CD0006ED8BB1D1B782F2B6AD83B1D1B78012B50
:106CE00022D17B1D1B78012B63D1FB1D1A78BB1DA4
:106CF0001B78DB08D8B203009B01D318FA1D11786A
:106D0000020092018A182C498A5C51B2BA1D12788D
:106D10000720024001209040020052B24A4052B285
:106D2000D1B2254AD15444E07B1D1B78012B1ED1E2
:106D3000FB1D1A78BB1D1B78DB08D8B203009B0132
:106D4000D318FA1D1178020092018A181A498A5C38
:106D500051B2BA1D12780720024001209040020073
:106D600052B20A4352B2D1B2134AD15421E0FB1DB0
:106D70001A78BB1D1B78DB08D8B203009B01D3181F
:106D8000FA1D1178020092018A180B498A5C52B2EE
:106D9000B91D09780720014001208840010049B24F
:106DA000C94349B20A4052B2D1B2034AD15400E0B9
:106DB000C046BD4602B0B0BD4C0C002080B582B0CC
:106DC00000AF0200FB1D1A70034BFA1D12781A70F7
:106DD000C046BD4602B080BDFD44002080B582B0F3
:106DE00000AF0200FB1D1A70BB1D0A1C1A70064B77
:106DF000FA1D12781A70054BBA1D12781A70C04627
:106E0000BD4602B080BDC046F4440020F9440020D5
:106E100080B582B000AF0200FB1D1A70FB1D1B780D
:106E2000042B06D8FB1D1A78294B9200D358002B4F
:106E300001D1002348E0274BFA1D12781A70254B28
:106E40001B781A00224B9200D3581B68DAB2224BEF
:106E50001A70204B1B781A001D4B9200D358043334
:106E60001B68DAB21D4B1A701A4B1B781A00184BAC
:106E70009200D35808331B68DAB2194B1A70154BBD
:106E80001B781A00124B9200D3580C331B68DAB2ED
:106E9000144B1A700F4B1B781A000D4B9200D358ED
:106EA00010331B689BB2642253439AB2094B1B7880
:106EB0001900074B8900CB5814331B689BB2D318B9
:106EC0009AB2094B1A8001231800BD4602B080BD5A
:106ED000A0000020F1440020F3440020F2440020F0
:106EE000F0440020FE440020F644002080B582B02B
:106EF00000AF0200FB1D1A70034BFA1D12781A70C6
:106F0000C046BD4602B080BDF844002080B584B0C4
:106F100000AF786000200E4B98470023FB600BE029
:106F2000FB687A68D31819780A4AFB68D3180A1CD8
:106F30001A70FB680133FB60FA688023FF339A42C2
:106F4000EEDD054B9847C046BD4604B080BDC04647
:106F5000E56701004C0C0020C168010080B500AF5E
:106F6000034B1800034B9847C046BD4680BDC04642
:106F7000C87703000D6F010080B500AF034B180008
:106F8000034B9847C046BD4680BDC04648790300C4
:106F90000D6F010080B500AF034B1800034B9847FD
:106FA000C046BD4680BDC046C87A03000D6F0100D3
:106FB00080B500AF034B1800034B9847C046BD4651
:106FC00080BDC046487C03000D6F010080B582B0D3
:106FD00000AF384B2E221A70364B374A5A60354B69
:106FE0000222DA81334B3A009A60324B01229A81B5
:106FF000304B642200211800304B984703007B601F
:107000007B68002B04D02E4B18002E4B98470CE0C9
:107010003B001B78552B04D02B4B1800294B98476D
:1070200003E02A4B1800274B9847224B284A5A6006
:10703000204B0322DA811F4B64211800254B98470F
:1070400003007B607B68002B03D0234B18001D4B93
:107050009847184B214A5A60164B0322DA81154B88
:10706000642118001B4B984703007B607B68002B52
:1070700003D01B4B1800134B98470E4B194A5A600C
:107080000C4B0422DA810B4B64211800114B9847FA
:1070900003007B607B68002B03D0134B1800094B67
:1070A0009847124B9847124B98477B681800BD468B
:1070B00002B080BDCC460020307E0300F9640100A0
:1070C000487E030029DE0100687E0300747E030011
:1070D000347E030025640100887E0300387E0300AF
:1070E000A87E03003C7E0300D47E0300AD74010043
:1070F000BD73010080B582B000AFFB1C00221A7086
:10710000114B2E221A70104B104A5A600E4B02225D
:10711000DA810D4BFA1C9A600B4B01229A810A4BC3
:107120006422002118000A4B984703007B607B68AB
:10713000002B03D0074B1800074B9847FB1C1B780C
:107140001800BD4602B080BDCC460020447E03003E
:10715000F9640100087F030029DE010080B584B0D6
:1071600000AF78600A00FB1C1A70FB1C1B78002B18
:1071700001D1002326E00823FB18144A12881A8044
:10718000134B2E221A70124B0822BA185A60104B59
:107190000222DA810E4B7A689A60FB1C1B789AB245
:1071A0000B4B9A810A4B642200211800094B984727
:1071B0000300FB60FB68002B03D0074B1800074B54
:1071C0009847FB681800BD4604B080BD2C7F0300C3
:1071D000CC460020F9640100087F030029DE01008D
:1071E00090B587B000AF040008001100FB1D221C01
:1071F0001A70BB1D021C1A707B1D0A1C1A7010230A
:10720000FB187A1D12780121100008401A7801211C
:107210008A43111C021C0A431A70BB1D1B780122F1
:107220009A401300DBB21A1C0F231340DAB210236A
:10723000FB180F210A4090181A781E218A43111C4E
:10724000021C0A431A700C23FB1810221A700C231C
:10725000FB1801225A700C23FB18FA1D12789A7041
:107260001023FB181A780C23FB18DA700C4B2E2213
:107270001A700B4B0C22BA185A60094B0422DA819F
:10728000074B00229A81064B64211800054B984752
:1072900003007B617B691800BD4607B090BDC04606
:1072A000CC46002025640100B0B588B000AF0500D1
:1072B0000C0010001900FB1D2A1C1A70BB1D221C9B
:1072C0001A707B1D021C1A703B1D0A1C1A701023B9
:1072D000FB180E221A701023FB1804225A70102378
:1072E000FB1800229A701023FB180022DA7010237A
:1072F000FB187A1D12781A711023FB18BA1D127828
:107300005A711023FB183A1D12789A710C23FB183E
:10731000174A12881A80FB1D1B789BB21E22BA18CE
:10732000191C0B1CDB185B1813801E23FB181B8811
:107330001B0A9BB2DAB21023FB189A701E23FB18AB
:107340001B88DAB21023FB18DA700A4B1022BA1825
:107350005A60084B0722DA81064B64211800064B5D
:1073600098470300BB61BB691800BD4608B0B0BDBB
:10737000307F0300CC4600202564010080B582B038
:1073800000AF3B000A4A12881A800A4B3A005A6042
:10739000084B0222DA81074B64211800064B9847FC
:1073A00003007B607B681800BD4602B080BDC0460C
:1073B000307F0300CC4600202564010080B582B0F8
:1073C00000AF334B2E221A70314B324A5A60304B89
:1073D0000322DA812E4B00229A812D4B6421180062
:1073E0002D4B984703003B603B68002B03D02B4B91
:1073F00018002B4B984700237B6041E07B68002BF3
:1074000000DA03339B10DBB2DB00DAB27B6825497C
:107410000B4004D5013B042149420B430133DBB24D
:10742000D318DBB20122032118001F4B9847030039
:107430003B607B68002B00DA03339B10DBB2DB0080
:10744000DAB27B6817490B4004D5013B042149425D
:107450000B430133DBB2D318DBB201220221180047
:10746000114B984702003B6813433B603B68002B7D
:1074700003D00A4B18000A4B98477B6801337B60A6
:107480007B680F2BBADDC046BD4602B080BDC0464A
:10749000CC460020407E030025640100347F0300B9
:1074A00029DE010003000080E1710100B0B500AFEA
:1074B000FF23FF22FF210F20094CA047094B9847CB
:1074C000C8235B001800084B9847002300220021C6
:1074D0000F20034CA047034B9847C046BD46B0BDA4
:1074E000A97201007D730100D5C1010080B582B091
:1074F00000AF78607B6800221A70C046BD4602B0BB
:1075000080BD000080B582B000AF02003960FB1D75
:107510001A70FB1D1B78012B0AD0022B0FD0002BF9
:1075200014D10E4B0D4A91693A680A439A610FE0F3
:107530000A4B0A4AD1693A680A43DA6108E0074B04
:10754000064A116A3A680A431A6201E0172300E00A
:1075500000231800BD4602B080BDC04600040040B4
:1075600080B582B000AF78607B6880221A707B683B
:1075700000225A707B6801229A707B680022DA70C0
:10758000C046BD4602B080BD80B500AF054B9B78BC
:10759000DBB21A00022313405A1E9341DBB21800DB
:1075A000BD4680BD0020004180B500AF024B98472A
:1075B000C046BD4680BDC0466162020080B500AFD6
:1075C000024B9847C046BD4680BDC046B56202002A
:1075D00080B582B000AF0200FB1D1A70074AFB1D88
:1075E0001B7819001F230B40012199400B00190043
:1075F0008023D150C046BD4602B080BD00E100E00E
:1076000080B584B000AF78607B681B68FB60FB6866
:10761000DB69072213405A1E9341DBB21800BD46B6
:1076200004B080BD80B582B000AF7860C0467B6892
:107630001800044B9847031EF9D1C046BD4602B05E
:1076400080BDC0460176010080B584B000AF78608F
:107650007B681B68FB607B681B6818000D4B9847B4
:10766000030018000C4B98477B6818000B4B984799
:10767000FB6883221A75FB6883221A76FB681B68F5
:10768000022293431A00FB681A60C046BD4604B04C
:1076900080BDC04635770200D17501002576010016
:1076A000F0B597B000AF786139610023FB63002328
:1076B0003B650023FB643B2310229446BC44634497
:1076C00000221A707B691B68BB637B691B687B6344
:1076D00023231022BA18D4187B6B1800C04B98478C
:1076E000030023700C2310229446BC44634418000A
:1076F000BC4B98473B69DB697B643B691B6A3B6415
:107700007B6C002B06D17B6B00211800B64B984791
:1077100003007B647B6CDAB20C2310218C46BC44E2
:1077200063441A700C2310229446BC446344022222
:107730005A707B6C1B0CDBB20C2210218C46BC44B3
:10774000624411001800A94B98473B6C002B06D1EE
:107750007B6B01211800A44B984703003B643B6CF2
:10776000DAB20C2310218C46BC4463441A700C23FB
:1077700010229446BC44634402225A703B6C1B0C9A
:10778000DBB20C2210218C46BC446244110018006C
:10779000964B98473B699A8A7B69DA803B69DA8A1B
:1077A0007B691A813B691B7E002B03D1904B984764
:1077B000031E02D080237B6501E000237B653B69CB
:1077C0001B69002B04D03B691B697A6D13437B65F1
:1077D0003B699B687A6D13437B653B6924229B5C04
:1077E000002B04D07B6D8022D20513437B653B695F
:1077F0009B6A002B04D03B699B6A7A6D13437B65BF
:107800003B692C229B5C002B05D13B699A68802345
:107810009B049A4204D17B6D8022120513437B6541
:107820003B692D229B5C002B04D07B6D80221204CF
:1078300013437B653B692E229B5C002B04D07B6D40
:107840008022D20313437B65BB6B1A687B6D1A439E
:10785000BB6B1A60BB6B802252005A60232310223C
:107860009446BC4463441B781433DBB21800614B6C
:1078700098470300FB623B691B68FA22920053435E
:10788000BB623B695B68FA22920053437B623B69AF
:107890001B8E3B62584BF86A984705000E00564B0A
:1078A000B86A9847B860F960534BF86A9847534CE8
:1078B000534A544BA04703000C003B607C604E4B86
:1078C000386A984702000B004C4C38687968A0472A
:1078D00003000C00180021004B4C00224B4BA0472A
:1078E00003000C001A002300444CB868F968A04754
:1078F00003000C001A002300454C28003100A0476B
:1079000003000C001D002600BB6A5A003A4B100011
:10791000984702000B003C4C28003100A0470300B0
:107920000C00180021003A4C00223A4BA0470300FB
:107930000C001D002600BB6A5A002F4B1000984710
:1079400002000B00344C28003100A04703000C005B
:1079500019002200314B0800110098470300FB6317
:107960003B699A6880239B049A426AD1224BF86A49
:107970009847254C02000B00A04703000C001D0097
:1079800026001D4B786A98471C4C0022244BA047C8
:1079900003000C001A0023001F4C28003100A047F0
:1079A00003000C0018002100194C0022194BA047BD
:1079B00003000C0019002200184B08001100984722
:1079C0000300FB64FB6C002B2ED0164B796AF86A1F
:1079D000984703009A1EFB6CD31A3B6531E0C04602
:1079E0006576020061750100A974020055A20200CB
:1079F0008975010019A00200A9450300153A03008A
:107A000095D626E80B2E113E8D2D03000000244054
:107A1000153F03000000F03FAD3303004145030074
:107A2000000008404D2A03007B6A5A00FB6AD31805
:107A30005A1E7B6A59001D4B100098470300013BFA
:107A40003B65FB6BFF2B08DCFB6B002B05DB3B6D09
:107A5000FF2B02DC3B6D002B06DA3B231022944601
:107A6000BC44634440221A703B2310229446BC4419
:107A700063441B78402B0ED0FB6BFF221A403B6DFA
:107A80001B041900FF231B040B401343FA6C12065E
:107A90001A43BB6BDA603B2310229446BC44634418
:107AA0001B781800BD4617B0F0BDC0464D2A030034
:107AB00090B58BB000AFF860B9607A60FB68BA68C7
:107AC0001A60FB681B687B62FB681B6818003B4BF5
:107AD000984703003B623B6A0233FB613B6A143305
