:1000000050290020C9180000C5180000C5180000BC
:1000100000000000000000000000000000000000E0
:10002000000000000000000000000000C5180000F3
:100030000000000000000000C51800008101000061
:10004000C5180000C5180000C5180000C51800003C
:10005000C5180000C5180000C5180000C51800002C
:10006000C51800005D0A00006D0A00007D0A00004E
:100070008D0A00009D0A0000AD0A0000C5180000AE
:10008000C5180000C5180000C5180000C5180000FC
:10009000C51800000000000000000000C5180000A6
:1000A000C5180000C5180000C5180000C5180000DC
:1000B0000000000010B5064C2378002B07D1054B3B
:1000C000002B02D0044800E000BF0123237010BDC4
:1000D000700000200000000008260000084B10B54A
:1000E000002B03D00749084800E000BF0748036819
:1000F000002B00D110BD064B002BFBD09847F9E731
:1001000000000000740000200826000008260000FF
:100110000000000070B50020084B98470500084C0F
:10012000FA218900A047074B186007492800A0471B
:10013000064B18600522064B1A6070BD551600006C
:10014000351B00000000002040420F00040000208A
:1001500010E000E030B5084B1C68084A00258021FB
:100160004902013807D3002CFBD054609560136816
:100170000B42FCD0F5E730BD0000002010E000E0AD
:10018000024A1368013313607047C0468C00002098
:10019000F0B583B001AC012565700027A77025700C
:1001A00021001720064EB04780221204054B9A61A9
:1001B0002770657021003720B04703B0F0BDC046FE
:1001C000550600000044004110B51E4AD3690421C1
:1001D0000B43D3611C4B2022FF321A831A7D052367
:1001E000D20701D4180010BD03781B02C022920070
:1001F00013404178C901FF220A4013438178490026
:100200001E220A401343C27892048021C9020A4088
:10021000134302791204C02189020A4013430A4A97
:10022000536093685B035B0F084908249C400C8073
:1002300093684B8043780B71138BDB05DB0F1B013D
:10024000D0E7C0460004004000400041900000207C
:1002500010B50400037C002B05D08368581CE168AE
:10026000074B9847A1606368581CE168044B9847A6
:100270006160A368591A4A424A41227410BDC046BF
:10028000411C000070B505000C001420044B984779
:100290000560C460002343608360037470BDC04682
:1002A000E91C000010B5036842689954014B984757
:1002B00010BDC04651020000027C0023002A05D177
:1002C000436880681B1A58424341DBB218007047EC
:1002D00070B504000D000A4B984700280DD1236823
:1002E000A2689B5C2B7000232374A368581CE168F0
:1002F000044B9847A160002070BD01204042FBE7FD
:10030000B9020000411C000070B582B005000E006B
:1003100000226B46DA80064C6B46991D2800A047E8
:100320000028F9D16B4606331B88337002B070BDCC
:100330002D0E000070B505008CB2034E2100280080
:10034000B0470028FAD170BD010E000010B5064B71
:1003500018680649064B9847431C04D001220349FC
:100360000448054B984710BD200900201C090020B7
:10037000D1020000E0000020410F000070B590B0F5
:100380008025ED0029003F483F4CA0473F4B1860B7
:1003900029003F48A0473F4B18608023DB050093AE
:1003A00000230193FF2269460A8100228B72CB72DF
:1003B000012124206C4621540130215425316354FD
:1003C000013163540A930531635401316354059339
:1003D0002382E3762276227762761323A3766277EE
:1003E000E1235B020893C4239B03039301235B4235
:1003F0000C930D93284B0E93284B0F93284D294CAB
:100400006A4629492800A0470028F9D1244D274BE6
:100410001D60274A274B1A60274A284B1A60284E2E
:10042000336898680021274CA0473368586800213A
:10043000A0472C682000244B98471F2318401E3BE0
:100440008340224A13602A68D369002BFCD12368B9
:10045000022213432360124C00221D4920001D4D2F
:10046000A84701221C492000A8473122A35C032190
:100470000B43A354303A19492000194B984710B048
:1004800070BDC0461C05002085020000140100203C
:100490001C0100202009002003002A0003002B007B
:1004A000E0000020BD0A00000018004244090020BE
:1004B0003503000040090020090300003C0900202A
:1004C0000C000020811E00002D0A000000E100E069
:1004D0004D030000290F00009105000018010020C5
:1004E000610F000070B50A4D2C682000094B984739
:1004F0001F2318401E3B8340802207498B502A68E7
:10050000D369002BFCD1236802229343236070BD82
:10051000E00000202D0A000000E100E0F0B5C64632
:1005200000B505000024002812D0114E114F124BC7
:10053000984603E0295D3868C04701342800B04779
:100540008442F7D301210D480D4B9847002802D073
:1005500004BC9046F0BD0B4C064B186821000A4BBA
:100560009847012221000548084B9847F0E7C0460C
:10057000ED1F000020090020A5020000E00000207F
:10058000810F00001C090020D1020000410F000073
:1005900010B582B00D4C20000D4B98472378082BE6
:1005A0000CD00A4C21780B4B18680B4B9847012252
:1005B00021000A480A4B984702B010BD01A8183321
:1005C0000370183B4370024B9847EAE7180100207C
:1005D0001D05000014010020A5020000E00000201D
:1005E000610F00000C4B1B68002B06D1EFF310834A
:1005F000002B07D00022094B1A70074A13680133F9
:100600001360704772B6BFF35F8F0022044B1A70FD
:100610000132024B1A70F0E7980000209C00002085
:1006200008000020084B1A68013A1A601B68002B6A
:1006300009D1064B1B78002B05D00122044B1A7000
:10064000BFF35F8F62B67047980000209C000020C7
:100650000800002000B583B001AB80221A700A7830
:100660005A704A789A708A78DA701900014B984764
:1006700003B000BD65180000F0B5DE4657464E4693
:100680004546E0B587B08046049116001F00002261
:10069000002300218B463F24012021000096019772
:1006A0005C4603944446059413E02024641A050034
:1006B000E540A84614E0009C019D121BAB415C463E
:1006C0004D462C43A346039C45462C4303940139D5
:1006D00025D3202464420C19E7D40500A540A84680
:1006E00004008C40A14692185B4114001D00059E39
:1006F0004F463E40B446049E47463E40B24666469C
:1007000057463E4303D00600264332002B00009C90
:10071000019D9D42DBD8CED19442D8D8CBE7039B34
:100720005846190007B03CBC90469946A246AB46D5
:10073000F0BD10B5490840230024814202D21800C0
:1007400010BD1C00091A631C9BB28842F9D94023D2
:10075000FF2CF4D814800023F1E70000F0B583B03B
:100760000F00160008AA117804004C434022BC4236
:1007700002D9100003B0F0BD002B14D10200080014
:100780000021194CA04701003A0000230020174C1B
:10079000A04700220123121A8B41120C1B041A439A
:1007A00032800022E5E70022012BF9D10A00002364
:1007B00000210D4CA04702000B000092019338006D
:1007C00000210A4CA047050080239B01402298424B
:1007D000CFD8790FF800009A019BA047EA00821A4F
:1007E000D2B252032A43DBE74D1C00007906000019
:1007F00010B582B004000E4B1B78002B07D00029E7
:1008000005D10B4B5B78834210D01D200CE001A971
:100810000C701320074B98471320074B9847044B45
:100820005C7001221A70002002B010BD0020FBE7AE
:10083000A00000206D170000E1160000404B984218
:1008400031D00AD93F4B98424DD03F4B98425AD0B5
:100850003E4B984237D0002070473D4B98420CD019
:100860003C4B9842F7D1012917D000295DD00229CD
:1008700015D0032915D00020EEE7012907D0002963
:1008800051D0022905D0032905D00020E4E73248E1
:10089000E2E73248E0E73248DEE73248DCE7324858
:1008A000DAE73248D8E7012907D000293FD00229EA
:1008B00005D0032905D00020CEE72D48CCE72D48F0
:1008C000CAE72D48C8E7012907D0002931D00229FD
:1008D00005D0032905D00020BEE72848BCE72848FA
:1008E000BAE72848B8E7012907D0002923D0022910
:1008F00005D0032905D00020AEE72348ACE7234804
:10090000AAE72348A8E7012907D0002915D0022922
:1009100005D0032905D000209EE71E489CE71E480D
:100920009AE71E4898E71E4896E7032094E71D487B
:1009300092E71D4890E71D488EE71D488CE7C046AA
:100940000010004200180042001C00420014004247
:1009500000080042000C00420300050003000600EE
:10096000030007000300010003001E0003001F0036
:100970000300090003000A0003000B00030011003C
:10098000030012000300130003000D0003000E001B
:1009900003000F00030017000300180003001900F4
:1009A00003000400030008000300100003000C0013
:1009B0000300160030B587B00B4B6A4632CB32C20B
:1009C00032CB32C2009B83420BD001239A0069468E
:1009D0005258824206D00133062BF7D1002007B0CF
:1009E00030BD0023D8B2FAE7C424000070470000ED
:1009F000F0B50A4B1B78002B0CD1094F094E0A4D5C
:100A00000024DE515A1914600433182BF9D1012245
:100A1000024B1A708000024BC150F0BDA2000020B2
:100A2000A4000020ED0900002409002000B583B0D7
:100A300009236A46137001335370013393700133F5
:100A4000D3700133137101335371034B98476B46D5
:100A5000185603B000BDC046B509000010B5024BE2
:100A60001B680020984710BDA400002010B5024B61
:100A70005B680120984710BDA400002010B5024B10
:100A80009B680220984710BDA400002010B5024BBF
:100A9000DB680320984710BDA400002010B5024B6E
:100AA0001B690420984710BDA400002010B5024B1C
:100AB0005B690520984710BDA4000020F0B5DE4614
:100AC00057464E464546E0B591B005000C0016006D
:100AD00029600800BC4B9847020023680520DB070B
:100AE00006D511B03CBC90469946A246AB46F0BD37
:100AF000236817309B07F4D4B449086A971C012374
:100B0000BB4003430B620FA92D27F35D0B7014321A
:100B1000D3B202931800AE4B98470298AD4B98475A
:100B2000F05D0021AC4B9847F37A6B712423F35CA2
:100B3000AB712523F35CEB71F37E2B72337F6B7209
:100B40002B6898461800A04B9847143000220E23BB
:100B500006A98C4663441A80328A02928023DB0104
:100B60009A4200D19EE00FD9C023DB01029A9A423B
:100B700000D192E080231B029A4200D01FE10323A0
:100B800006930023079308E080239B019A4200D03C
:100B900015E1102306930F3B079333680593F36821
:100BA000039373690493337E9B462623F35C9A4632
:100BB00073689946002B00D1A0E080235B0599451E
:100BC00000D184E0737E002B02D0B37E4246937343
:100BD0002A68029FD369002BFCD10E3306AA9446E3
:100BE00063441B8842469381059B039A1343049AEE
:100BF00013434A4613431F435B461B021F4353469E
:100C00005B071F432723F35C002B01D104331F43F1
:100C1000737E9B02327F52021343727F1202134390
:100C20002422B25C520413432522B25C1204134303
:100C3000B17AF27A114319433389FF2B00D181E055
:100C400080225204174319432C23F35C002B03D159
:100C5000624B9B789B0701D580231F432A68D36989
:100C6000002BFCD1434659602A68D369002BFCD184
:100C700043461F600EAB80221A7000225A70DA7051
:100C80009A70336B0A93736B0B93B36B0C93F36B88
:100C900002930D9300270AAE63E008230693073BF7
:100CA00007937AE733680593F368039373690493B2
:100CB000337E9B462623F35C9A4673689946002B45
:100CC00018D080235B05994501D0002025E027231B
:100CD000F35C002B00D075E7336A1F00C0B2404BB5
:100CE000984701000E2206AB9C46624438003D4BFB
:100CF000984712E008230693002307932723F35C09
:100D0000002B0ED0069B0093079B0E2206A98C4653
:100D10006244B16A306A344FB847002800D0E0E638
:100D200050E7336A1F00C0B22D4B98470100069B65
:100D30000093079B0E2206A88446624438002A4F7F
:100D4000B847EAE7F37E002B00D17DE78023DB0480
:100D50001F4379E72000254B984707E00137042F10
:100D60000DD0F9B2BB0098590028F3D0431CF5D040
:100D70000EA90870000CC0B21D4B9847EEE7002387
:100D8000EB602B616B61AB61EB612B62AB626B6201
:100D90000022EB85AB853033EA540133EA5401334A
:100DA000EA540133EA542868074B98470400114974
:100DB000114B9847A400114BE550002091E61023F9
:100DC000069300230793E8E6B509000000040040FD
:100DD0006D170000E1160000F1070000002000413F
:100DE00089170000330700005D0700003D08000080
:100DF000651800009D0F0000F10900002409002083
:100E0000C2791C23002A01D118007047C28D92B20A
:100E1000173B002AF8D10368DA69002AFCD119854A
:100E200002211A7E0A42FCD00023EDE782791C23BE
:100E3000002A01D118007047828D92B2173B002A18
:100E4000F8D10268107E4007F4D5D369002BFCD19D
:100E5000538BDBB298061DD0980703D5022353832A
:100E60001833E7E7580703D5042353831A33E1E720
:100E7000D80703D5012353831233DBE7D80603D504
:100E8000102353833233D5E79B0603D520235383A6
:100E90002133CFE7138D0B800023CBE7F8B5060095
:100EA0000C00150007680A4B9847F38D9BB2002B86
:100EB00003D0084B98470520F8BDF585054B9847AA
:100EC000B46205223323F254323BBB750020F3E7B2
:100ED000E505000025060000F8B504000D00160029
:100EE00007680F4B9847A38D9BB2002B03D00D4B87
:100EF00098470520F8BDA6850A4B984765620522EC
:100F00003223E2542E3BBB75237A002B01D02023E1
:100F1000BB75637A0020002BECD00823BB75E9E792
:100F2000E505000025060000931C9B00C3185960CE
:100F30003021012393401A00435C1343435470470C
:100F400010B51723002A01D1180010BDC47905334C
:100F5000002CF9D0014B98470300F5E79D0E0000E7
:100F600010B51723002A01D1180010BD847905336C
:100F7000002CF9D0014B98470300F5E7D90E00008B
:100F8000002903D0012905D0172002E03223C05CDC
:100F9000C0B270473323C05CC0B2FAE7F8B5800036
:100FA000624BC5582C68E369002BFCD1237EA67DDB
:100FB0001E403023EB5C3122AF5C1F40F30722D58B
:100FC000EB8D9BB2002B1CD0AA6A1378DBB2511CAC
:100FD000A962697901290ED09BB2DB05DB0D23855F
:100FE000EB8D013B9BB2EB85002B0CD101332375BC
:100FF0000133A37507E0517809020B430232AA625C
:10100000EBE701232375B30706D5022323750022DE
:101010003133EA54FB071AD4730765D5AB8D9BB205
:10102000002B5FD0638BDBB21A0714D43F2213402E
:10103000002B34D09A0711D51A223223EA54303BC0
:1010400063837B0750D528006B6998474CE02800E4
:10105000EB689847E0E737221340E9E75A0705D5E0
:101060001E223223EA542E3B6383EAE7DA0705D5D2
:1010700013223223EA54313B6383E2E7DA0605D5D3
:1010800042223223EA54223B6383DAE720221A42C7
:10109000D7D021323223EA54123B6383D1E7238D28
:1010A000DB05DB0DDAB2696A0A706A6A511C696293
:1010B0006979012910D0AB8D013B9BB2AB85002B28
:1010C00012D10433237500222E33EA54BB070BD50B
:1010D00028002B69984707E01B0A53706B6A01339D
:1010E0006B62E8E704232375F30604D51023237508
:1010F0002376FB060ED4B30604D52023237523766E
:101100003B070BD4330704D5082323752376BB068E
:1011100008D4F8BD2800EB699847ECE72800AB69D4
:101120009847EFE72B6A28009847F2E72409002048
:1011300010B5082803D880001C4B1B589F46002080
:1011400032E01B4B18692FE01A4B1B6A9B059B0F63
:101150001948D84028E0164B586925E0144B1B6805
:1011600000209B0720D513491022CB681A42FCD0DF
:101170000F4B1A6824231340042B01D00F4813E0AF
:1011800000200F4B98470A4B9B681B041B0C5843CD
:101190000AE05023074AD35C00205B0704D5044BC8
:1011A000D86801E08020000210BDC046DC240000A9
:1011B000BC0000200008004000127A00006CDC0235
:1011C0008917000070B50C490B6A0478857840785F
:1011D0000122104080014026B34303432A40D2013C
:1011E000802083431343032222401202034803401A
:1011F00013430B6270BDC04600080040FFFCFFFFB8
:10120000F0B5DE4657464E464546E0B50100264B52
:101210009B469B8A457800784242424191468878B5
:10122000CA7894460A7990464E7B0F7B8C7B8A68FD
:101230001E494A6101214A46920091460422934385
:101240004A46134342460A40D2009046082293433E
:101250004246134362460A401201944610229343C9
:1012600062461343084040012022934303430F404A
:10127000BF01402083433B430E40F601403083438F
:101280003343793805402D02094803402B43214060
:101290000903084803400B435A4693823CBC9046DE
:1012A0009946A246AB46F0BD00080040BC000020B5
:1012B000FFF8FFFFFFEFFFFF10B5037A9B061B0C43
:1012C00042899205920D134318494B608379C27984
:1012D000134342888488224313434278D201134344
:1012E0000B600378042B11D0202B0ED1037B9B06BF
:1012F000028A1343C28912040D490A4013430B4A60
:10130000936011680B4B0B43136010BD037B9B066E
:10131000028A1343C289120405490A401343034A4F
:101320009360136804210B431360EEE7BC000020B8
:101330000000FF0324040000082803D88000254B88
:101340001B589F46172044E0234A136A02210B438F
:10135000136200203DE0204A936902210B43936110
:10136000002036E01C4A138A02210B43138200201E
:101370002FE0194A938A02210B439382002028E030
:1013800016490B68022213430B60134B9A84190011
:101390000E32CB681A42FCD0104A91680E4BD962CB
:1013A00052689A6200229A8419001032CB681A425D
:1013B000FCD00A4B1B689BB2074A9384002008E0CC
:1013C000054944228B5C022003438B54002000E03B
:1013D000002070470025000000080040BC000020ED
:1013E000F0B58FB0C222D200454B9A60454A53688F
:1013F0001E218B431A390B435360022201AB1A7032
:101400000024414DE0B201A9A8470134252CF9D1AF
:101410000AA8002303708370802212028260C370C6
:101420000122027183730621417043730273374BAB
:1014300098470520364B984731490222CB681A421B
:10144000FCD005AB00210022598099809A71DA7195
:101450003F3159813B3919705A702E4B1B689B0ED6
:101460003F2B4BD005A80372B723DB000382032375
:1014700003731C33C381284B984704A8012585704A
:10148000002606704570254B98470620204FB84728
:10149000234B984701AC029566702672667205234D
:1014A0002370210001201F4B984701201E4B9847B5
:1014B000257021000020144B984700201B4B9847B3
:1014C0000720B8470E49D022CB681340D02BFBD160
:1014D000174A0023137253729372D37201A9012227
:1014E0004A604B704B7207330B700A7200200D4B31
:1014F000984700200C4B98470FB0F0BD203BB1E758
:1015000000080040004000416D170000011200007B
:101510003913000024608000B9120000C5110000DA
:10152000351500005915000011160000E1160000E5
:1015300000040040064A936908210B43936101228D
:10154000044B1A7019000B781342FCD17047C04647
:1015500000040040000C004070B5060004000D7847
:101560002D0205434B78002B02D08023DB021D4364
:101570004B7A002B02D080231B031D4348680128AF
:1015800010D9431E184234D1022830D90223002238
:1015900001325B009842FBD81202324314008023D0
:1015A0005B031D430B7A002B02D080239B031D435A
:1015B000134A53785BB2002BFBDB124B9847124B5C
:1015C0001E700F4A53785BB2002BFBDB0C4B9C6008
:1015D0001A0053785BB2002BFBDB094A5368802169
:1015E00049020B401D435560084B984770BD0022CF
:1015F000D2E70402344380239B021D43D2E7C04656
:10160000000C0040E5050000080C00402506000025
:1016100010B504000B4A53785BB2002BFBDB0A4B7E
:1016200098470A4B1C70074A53785BB2002BFBDBD0
:10163000044A516880235B020B435360044B984774
:1016400010BDC046000C0040E5050000040C004041
:101650002506000070B504001A4A53785BB2002BCF
:10166000FBDB194B9847194B1C70164A53785BB239
:10167000002BFBDB134E7068C004C00E144B984760
:101680000500124B1C707668F602F60F114B1C70A9
:101690000C4A53785BB2002BFBDB0A4B9C6824029C
:1016A000240C0D4B9847002E07D1012C07D921009F
:1016B00028000A4B9847050001E00134E540280066
:1016C00070BDC046000C0040E5050000040C004061
:1016D00031110000080C004025060000351B0000F9
:1016E00010B50400064B9847064B1C70064A5388F9
:1016F0008021C9010B435380044B984710BDC0465D
:10170000E5050000020C0040000C0040250600002A
:1017100010B504000F4B98470F4B1C700F4A5388AD
:101720001B05180F53880E490B40538053880D49F1
:101730000B40538011008022D2014B881342FCD110
:1017400006494A8803020648024013434B80064B71
:10175000984710BDE5050000020C0040000C004059
:10176000FFF0FFFFFFBFFFFF2506000010B50C785C
:1017700024020443024B9847A4B2024B5C8010BD84
:1017800011170000000C004010B50400064B9847EC
:10179000064B1C70064B5C882405240F054B9847AC
:1017A0002000054B984710BDE5050000020C0040E5
:1017B000000C0040250600005516000030B5D37817
:1017C000002B35D11378802B29D01B06802464028E
:1017D000234354780225AC4306D19478002C20D1C1
:1017E0008024A402234341605478013C012C1CD97D
:1017F0000D042D0CA024E4052C431C4384620D0C25
:10180000D02424062C431C438462D478002C22D19B
:101810005B031CD59378012B1ED0416117E0002398
:10182000D7E7C024E4022343DDE70D4C2340DFE784
:1018300041600C04240CA023DB05234383620C0CC1
:10184000D0231B0623438362D378002B03D1537824
:10185000013B012B02D930BD8161F8E78160FAE7D5
:10186000FFFFFBFF10B50A00C1090023002904D1C6
:101870004309DB0105498C4663441F2420400121B4
:1018800081401800024B984710BDC04600440041FB
:10189000BD1700007047000010B5054B9847054B79
:1018A0009847054B9847054B9847054B984710BDFF
:1018B000E113000091010000951800009518000048
:1018C00095180000FEE70000F8B52A4A2A4B9A4214
:1018D00011D01A00294B9A420DD2294A03339B1A80
:1018E0009B0801339B000022234822498C588450D6
:1018F00004329A42FAD1234A234B9A420AD2D34362
:1019000021495B1803218B4304339B18002102C239
:101910009342FCD11D4AFF211D4B8B439360FD393F
:1019200090235B001B4AD1501B4AD3780325AB435D
:1019300002242343D370D3780C27BB4308263343B8
:10194000D370164B987B302290432022104398731B
:10195000997BB943314399739A7BAA4322439A7383
:101960000F4A536880210B4353600E4B98470E4B30
:101970009847FEE7082600000000002070000020C5
:1019800004000020700000204C09002000ED00E061
:10199000000000000070004100500041004800417C
:1019A00000400041A11C0000791A0000F0B5C646B5
:1019B00000B50C00904600280FD1002A11DD8F18C9
:1019C000094E0A4D306821002B6898470134BC420B
:1019D000F8D1404604BC9046F0BD01235B429846D6
:1019E000F7E78046F5E7C046440900203C0900209F
:1019F000F0B5C64600B50E0015000138022810D813
:101A0000002A11D000240C4B98460C4F434618680E
:101A1000315D3B689847002808DB0134A542F5D1C9
:101A200006E00124644203E0140001E00124644262
:101A3000200004BC9046F0BD44090020400900206D
:101A40000300064A1268002A04D0044A1068C3182A
:101A5000136070470249014A1160F6E7D400002084
:101A60005029002001204042704780239B014B6099
:101A70000020704700207047B0B582B000AF1E4B09
:101A800098471E4B98471E4B98471E4C01252570C2
:101A9000BFF35F8F62B600223A701B4B5B68DB06B8
:101AA0001B0FBB70FA703A717A703800174B984769
:101AB0002570BFF35F8F62B6154AD36902210B43CD
:101AC000D3611448144CA0471448A0471448A047B9
:101AD0006420144B9847144B984790235B021A6874
:101AE00082F30888114A9360114B1B6898470020C5
:101AF000BD4602B0B0BDC0469918000015010000F7
:101B00007D0300000800002000400041C9010000E2
:101B100000040040242500001D05000040250000B1
:101B20006825000055010000E504000000ED00E01C
:101B300004200100002243088B4274D303098B4226
:101B40005FD3030A8B4244D3030B8B4228D3030C8D
:101B50008B420DD3FF22090212BA030C8B4202D32F
:101B60001212090265D0030B8B4219D300E0090A57
:101B7000C30B8B4201D3CB03C01A5241830B8B4260
:101B800001D38B03C01A5241430B8B4201D34B0349
:101B9000C01A5241030B8B4201D30B03C01A5241AE
:101BA000C30A8B4201D3CB02C01A5241830A8B4233
:101BB00001D38B02C01A5241430A8B4201D34B021C
:101BC000C01A5241030A8B4201D30B02C01A524180
:101BD000CDD2C3098B4201D3CB01C01A5241830934
:101BE0008B4201D38B01C01A524143098B4201D36E
:101BF0004B01C01A524103098B4201D30B01C01A99
:101C00005241C3088B4201D3CB00C01A5241830812
:101C10008B4201D38B00C01A524143088B4201D33F
:101C20004B00C01A5241411A00D20146524110469F
:101C30007047FFE701B5002000F006F802BDC0467E
:101C40000029F7D076E770477047C046F0B5CE461A
:101C5000474615042D0C2E0080B50704140C3F0CCC
:101C60009946030C7E435D43674363437F19340CFD
:101C7000E4199C46A54203D980235B029846C444DC
:101C80004B46514343433604360C250C240465442B
:101C9000A4195918491920000CBC90469946F0BD6A
:101CA00070B500260C4D0D4C641BA410A64209D142
:101CB000002600F099FC0A4D0A4C641BA410A642B1
:101CC00005D170BDB300EB5898470136EEE7B3007D
:101CD000EB5898470136F2E7F4250000F4250000A0
:101CE000F4250000F825000010B5034B010018682A
:101CF00000F056F810BDC0460C000020030082180A
:101D0000934200D1704719700133F9E770B50500AF
:101D1000002910D00C1F2368002B00DAE4182800DB
:101D200000F022FB1D4A1368002B05D1636014608C
:101D3000280000F01AFB70BDA34209D92168601881
:101D40008342F3D118685B6841182160EEE7130005
:101D50005A68002A01D0A242F9D919685818A0423D
:101D60000BD120680918581819608242E0D1106818
:101D70005268411819605A60DAE7A04202D90C2370
:101D80002B60D5E721686018824203D11068526841
:101D90004118216062605C60CAE7C046D80000203C
:101DA000032370B5CD1C9D43083506000C2D1ED2B3
:101DB0000C25A9421DD8300000F0D6FA254A146837
:101DC0002100002919D1244C2368002B03D13000B5
:101DD00000F044F820602900300000F03FF8431C78
:101DE0002CD10C233000336000F0BFFA03E0002D4B
:101DF000DFDA0C233360002070BD0B685B1B1AD444
:101E00000B2B03D90B60CC18256003E08C420ED15C
:101E100063681360300000F0A8FA200007220B303E
:101E2000231D9043C31AE7D05A42E250E4E74B68BF
:101E300063600C00EEE70C004968C2E70323C41C92
:101E40009C43A042E0D0211A300000F007F8431C68
:101E5000DAD1C6E7D8000020DC000020002370B5EE
:101E6000064C050008002360FFF7EAFD431C03D180
:101E70002368002B00D02B6070BDC04648090020AD
:101E80004A424A41802310B55200DB0000F002F8BC
:101E900010BD0000F0B51D004F4B85B01E6804005A
:101EA0000F000092002E05D0B369002B02D1300044
:101EB00000F09CF9494B9C4250D17468009B022B66
:101EC00005D0012B00D984E0002D00DA81E021004B
:101ED000300000F01DF9616B002908D02300443365
:101EE000994202D03000FFF711FF00236363002303
:101EF000A3616360A3891B0603D521693000FFF746
:101F000005FFA389364A1340A381009B022B5AD0B8
:101F100003AB02AA2100300000F0FEF9A3891843A8
:101F2000A081002D24D1029D2800FFF7DDFE019540
:101F3000071E42D1029B0193AB4239D1012040429E
:101F40000223A2891343A3810023A3602300473304
:101F5000236023610123636105B0F0BD214B9C42E6
:101F600001D1B468AAE7204B9C42A7D1F468A5E749
:101F7000002FD9D0B369002B02D1300000F036F920
:101F8000009B012B03D1A389009A1A43A281082048
:101F9000A389276027616561184018D00120184087
:101FA0000023984211D06D42A360A5611800D3E7C9
:101FB0000198FFF799FE071EC0D08023A289019DDA
:101FC0001343A381D6E70020BAE7A560C4E7A06069
:101FD000C2E701204042BFE70C000020A825000016
:101FE0005CF3FFFFC8250000882500000023C25CC9
:101FF0000133002AFBD1581E70470000F7B58A89CB
:1020000005000C00130760D44B68002B04DC0B6C3C
:10201000002B01DC0020FEBDE76A002FFAD0002370
:102020002E682B6080235B011A4034D0606DA38939
:102030005B0706D56368C01A636B002B01D0236C65
:10204000C01A0200216A00232800E76AB847A18964
:10205000431C06D12B681D2B31D82C4ADA40D307FC
:102060002DD50023636023692360CB0405D5431C71
:1020700002D12B68002B00D16065616B2E600029B6
:10208000C8D023004433994202D02800FFF73EFE17
:1020900000206063BFE70123216A2800B847431C82
:1020A000C5D12B68002BC2D01D2B01D0162B01D11E
:1020B0002E60AFE74023A2891343A381ABE74023FF
:1020C0000B430120A3814042A5E70F69002FA1D057
:1020D0000B680F60DB1B01930023920700D14B6953
:1020E000A360019B002B00DC94E7019B3A00216A6E
:1020F0002800A66AB047002803DC4023A2891343C6
:10210000DFE7019B3F181B1A0193EAE7010040201B
:102110000B6970B505000C00002B01D1002070BDCB
:10212000002804D08369002B01D100F05FF80B4B2D
:102130009C4209D16C680C22A35E002BEED02100DA
:102140002800FFF75BFFEAE7054B9C4201D1AC6832
:10215000F1E7044B9C42EED1EC68ECE7A8250000C7
:10216000C82500008825000010B5024900F0B2F82B
:1021700010BDC04611210000002310B5040003600B
:102180004360836081814366C281036143618361EF
:10219000190008225C30FFF7B1FD054B2462636231
:1021A000044BA362044BE362044B236310BDC0469F
:1021B0006D23000095230000CD230000F9230000CB
:1021C00070B568254A1E55430E0029007431FFF78B
:1021D000E7FD041E08D000212A00016046600C3093
:1021E000A0606832FFF78AFD200070BD836913B5D7
:1021F0000400002B28D18364C3640365134B144A85
:102200001B6882620193984201D1012383612000FF
:1022100000F020F86060200000F01CF8A0602000B2
:1022200000F018F80022E06004216068FFF7A4FFC6
:1022300001220921A068FFF79FFF02221221E06816
:10224000FFF79AFF0123A36113BDC0468425000058
:1022500069210000F8B51E4B07001E68B369002B0A
:1022600002D13000FFF7C2FF4836B4687368013B03
:1022700004D53368002B07D03668F6E70C22A55E3C
:10228000002D0DD06834F2E704213800FFF798FFE5
:1022900030600028F0D10C2304003B602000F8BD22
:1022A000012320005B42E3810233A3816566256040
:1022B000A560656025616561A561082229005C3023
:1022C000FFF71CFD6563A563A564E564E6E7C0460A
:1022D00084250000F7B5040007000026019148346A
:1022E000002C01D13000FEBD6368A5680093009BFF
:1022F000013B009301D52468F2E7AB89012B08D993
:102300000E22AB5E013304D029003800019B9847B0
:1023100006436835EBE7000070B50E001D000E2384
:10232000C95E90B01400002907DA00232B60B3893E
:102330001B0611D48023DB000FE001AA00F088F80F
:102340000028F2DBF022029B12021340054A9B1880
:102350005A4253412B60EDE740230020236010B028
:1023600070BDC04600E0FFFF7047704770B50C00BD
:102370000E25495F00F092F8002803DB636D1B18FF
:10238000636570BDA389024A1340A381F9E7C04683
:10239000FFEFFFFFF8B51F008B8905000C0016004A
:1023A000DB0505D50E23C95E0022022300F062F88A
:1023B000A389054A28001340A38132000E23E15E61
:1023C0003B0000F01FF8F8BDFFEFFFFF70B50C00F9
:1023D0000E25495F00F04EF8A389421C03D1054A3F
:1023E0001340A38170BD802252011343A381606515
:1023F000F8E7C046FFEFFFFF10B50E23C95E00F0FF
:1024000015F810BD70B50500080011000022064C3B
:1024100022601A00FFF7ECFA431C03D12368002B5B
:1024200000D02B6070BDC04648090020002370B565
:10243000064C050008002360FFF714FB431C03D182
:102440002368002B00D02B6070BDC04648090020D7
:10245000002370B5064C0500080011002360FFF74B
:1024600004FB431C03D12368002B00D02B6070BDFC
:102470004809002070B50500080011000022064C34
:1024800022601A00FFF7F6FA431C03D12368002BE1
:1024900000D02B6070BDC0464809002070B5050013
:1024A000080011000022064C22601A00FFF77EFA95
:1024B000431C03D12368002B00D02B6070BDC046A5
:1024C0004809002000080042000C004200100042B1
:1024D0000014004200180042001C0042421100009B
:1024E0003E1100003E110000A4110000A4110000E4
:1024F00056110000481100005C110000921100000C
:10250000641300004413000044130000D0130000C3
:1025100056130000721300004813000080130000DF
:10252000C0130000455345353136202D20454E540B
:10253000455220424F4F544C4F41444552000000F9
:102540000C0A0D2D2D2053442F4D4D432043617215
:1025500064204578616D706C65206F6E20466174F3
:102560004673202D2D0A0D00455345353136202D5B
:10257000204558495420424F4F544C4F41444552F6
:10258000000000001000002000000000000000001B
:10259000000000000000000000000000000000003B
:1025A000000000000000000000000000000000002B
:1025B000000000000000000000000000000000001B
:1025C000000000000000000000000000000000000B
:1025D00000000000000000000000000000000000FB
:1025E0000000000000000000F8B5C046F8BC08BCC0
:1025F0009E467047DD000000F8B5C046F8BC08BC38
:082600009E467047B500000082
:10260800401F00000800000001000000100000202A
:1026180000000000A8250000C8250000882500004B
:1026280000000000000000000000000000000000A2
:102638000000000000000000000000000000000092
:102648000000000000000000000000000000000082
:102658000000000000000000000000000000000072
:102668000000000000000000000000000000000062
:00000001FF
