:020000021000EC
:1020000028740020CDF30100B1F30100B1F3010009
:1020100000000000000000000000000000000000C0
:1020200000000000000000000000000095610100B9
:10203000000000000000000071620100B5620100B4
:10204000B1F30100B1F30100B1F30100A9D4010023
:1020500029D10100B1F3010081220100B1F3010097
:1020600035230100D1D80100E1D80100F1D80100E9
:1020700001D9010011D9010021D9010081F301002A
:1020800091F30100A1F30100894C0100994C01007A
:10209000A94C010000000000000000001521010013
:1020A000B1F30100D9210100B1F30100B1F3010046
:1020B0000000000010B5064C2378002B07D1054B1B
:1020C000002B02D0044800E000BF0123237010BDA4
:1020D000B00200200000000000B80200084B10B55C
:1020E000002B03D00749084800E000BF07480368F9
:1020F000002B00D110BD064B002BFBD09847F9E711
:1021000000000000B402002000B8020000B8020085
:102110000000000070B52F4B1D682B681A7EDC7D17
:102120001440E20716D4630708D504232A681376FF
:10213000EB7E9B0702D5AB7E9B0742D4A30708D555
:1021400002232A681376EB7E5B0702D5AB7E5B0722
:102150003BD470BD01221A762A68537E5BB2002BF5
:10216000FBDB69698B1C6B61538B9BB20B802B8BE8
:10217000013B9BB22B83002B11D06B7F002BD2D065
:102180002A68537E5BB2002BFBDB137B02210B43DF
:1021900013732A68537E5BB2002BFBDBC3E701237A
:1021A0002A6893752B7F052BBDD100232B77EB7EFF
:1021B000DB07B8D5AB7EDB07B5D52800AB68984701
:1021C000B1E72800EB689847B8E72B6928009847E3
:1021D000BFE7C0461440002070B5274B1C68256837
:1021E000AB79DB0707D50123AB712300143302D091
:1021F000637C002B31D1AB799B0738D50223AB71BF
:10220000A3899BB2002B2CD0E3899BB25A1C92B2BB
:10221000E2815B00A268944663441B889BB2AB8159
:10222000A389013B9BB2A381A3899BB2002B18D148
:1022300000222033E2541E3B2B71AB7180218904B4
:102240007E330E4AD1502300143310D0A37C002BD0
:102250000AD00020E369984706E00020A369984768
:10226000C9E72300143302D0237C002B00D170BDBA
:10227000636900209847FAE71840002000E100E079
:1022800010B5264B984726490B8C0F2213409B0014
:102290002448185803781A403F23CA540F33CA5CA5
:1022A000D2B203781B012049C91849881F4CE31892
:1022B0005B88CB1A4361D3070FD501214E23184AFF
:1022C000D1543E3B4374037CDB0703D54368002BAA
:1022D00000D09847164B984710BD93070DD50221A3
:1022E0004E230F4AD15400234374037C9B07F1D53E
:1022F0008368002BEED09847ECE75307EAD504211A
:102300004E23074AD154483B4374037C5B07E1D515
:10231000C368002BDED09847DCE7C04615D001002B
:1023200000480041CC02002020400020E0020020B4
:1023300055D0010010B50B4B1C690B498A69986890
:1023400002439A60094B8B61002C05D020686368BA
:102350009847A468002CF9D1024BD9689A688A433F
:102360009A6010BD0000002000040042FFFF0F0F24
:10237000064A136A02210B4313620122044B1A70AE
:1023800019000B781342FCD17047C046000400408E
:102390000004004201680722CB691A42FCD1704751
:1023A00070B5040006683268458B838BED1AADB2B8
:1023B000838B013B9BB2838313011DD5C37A002B12
:1023C00003D0838B9BB2012B10D0A38B9BB2002B2D
:1023D00002D1A37A002B1CD12000124B9847236A0C
:1023E0005D192823F35CDBB22B7070BD726880230B
:1023F000DB0213437360E8E7C37A002BE5D0838BDD
:102400009BB2002BE1D172688023DB02134373601F
:10241000DBE72000034B98477268C0239B021343FD
:102420007360D9E79523010070B5040005686B8BD4
:102430005B0703D51E222523C25470BD468B838BB8
:10244000F61AB6B2838B013B9BB28383044B984749
:10245000236A9E193378DBB22822AB54EDE7C046DD
:102460009523010070B505000C0006684B7A002B1F
:102470001AD17368134A1340736063682B626388D0
:10248000AB8300222423EA5405320133EA54223B71
:10249000B375237A002B0BD123885B00627A9203F9
:1024A00013437362002070BD897A074B9847E0E7B9
:1024B00023885B00627A9203134380221202134343
:1024C0007362EFE7FFFFFBFF054C0100F8B5050065
:1024D0000C0006684B6803624B8883830122242327
:1024E000C25404320133C25437683F01FF0F4B7AA4
:1024F000002B17D1002F02D06388012B16D07368F0
:10250000204A13407360237A002B15D10323B3753F
:1025100023885B00627A92031343012213437362A0
:102520000020F8BD897A184B9847E3E7726880234A
:10253000DB0213437360E6E723885B00627A920351
:102540001343802212021343736228000F4B9847F3
:1025500073680C4A134073600028E2D128000C4BCA
:1025600098470028DDD10323B37523881B0A7822FE
:1025700013435B00627A920301210A43134373629F
:10258000CFE7C046FFFFFBFF054C0100D94B010020
:10259000A94B0100931C9B00C3185960037E0121C5
:1025A00091400B43DBB203767047000010B5838B7C
:1025B0009BB20522002B01D0100010BD01338372A5
:1025C000C372024B98470200F6E7C046CD240100D3
:1025D00010B5838B9BB20522002B01D0100010BDDB
:1025E00001338372C372024B98470200F6E7C0467C
:1025F0006524010010B5838B9BB20522002B01D00E
:10260000100010BD83720133C372024B9847020061
:10261000F6E7C0466524010070B58000754BC458CC
:1026200025682B681B01DA0F637E267E1E40638BB4
:102630009BB2002B03D1A38B9BB2002B23D1638BC6
:102640009BB2002B08D0A38B9BB2002B04D1253367
:10265000E35C052B00D16DE0638B9BB2002B24D093
:10266000A38B9BB2002B20D06B8B9B0600D581E007
:10267000002A04D0A38B9BB2012B00D17AE0412227
:102680002523E25411E02B7EDB0707D501232B76AF
:102690006B8B9B072ED541222523E254A38B9BB243
:1026A00063832523E35C052B38D0638B9BB2002B1F
:1026B00007D0A38B9BB2002B03D12533E35C052B02
:1026C00064D02523E35C052B13D02523E35C002B8A
:1026D0000FD003232B7500236383A3832533E35C8F
:1026E000412B03D0A37A002B00D075E0730700D5EF
:1026F0007BE070BD6B8B5B07D0D518222523E2549D
:102700000023A383A37A002BC8D020003A4B98471C
:102710006A68C0239B0213436B60BFE71F33E35C0F
:10272000002B03D02000354B9847BEE72000344BE8
:102730009847BAE71F33E35C002B00D08CE70333E4
:102740002B750023638325330022E254A37A002BE8
:1027500007D101232B76F307A7D5E368200098471C
:10276000A3E72000244B98476A68C0239B021343C9
:102770006B60F0E72423E35C002B03D12000204BA7
:10278000984792E720001D4B98478EE71F33E35C84
:10279000012B96D12B7E9B0701D502232B76032399
:1027A0002B750023638325330022E254B30703D53E
:1027B0002423E35C012B0BD0F30700D481E724230F
:1027C000E35C002B00D07CE7E3682000984778E7C3
:1027D00023692000984774E72000074B98476A68F0
:1027E000E023DB0213436B6080E7636920009847B6
:1027F0007FE7C0469853002095230100A1230100E4
:1028000029240100BFF34F8F024A034BDA60BFF364
:102810004F8FFEE70400FA0500ED00E0F8B5060072
:102820000F00064D1B23064A0F212800054CA04728
:102830002A0039003000A0470020F8BD30030020F6
:10284000506D0200F959020010B5024A024B984738
:10285000002010BDB46B0200F959020010B502202F
:10286000014B9847002010BD713C010070B590B03D
:1028700004000D00214B98470023002802D11800C6
:1028800010B070BD012168461D4B984701230028F8
:10289000F5D16B461B7803221A409B08D8088000AC
:1028A00007210B40C018022A15D00123032AE6D1C4
:1028B000C117043213000B401B18DB109B00490F9B
:1028C00040181040401A1B180E4A290020000E4CD8
:1028D000A0470123D3E7C6170B0033401B18DB10BA
:1028E0009A00760F83190B409B1BD318074A2900C7
:1028F0002000054CA0470123C1E7C0465545010013
:10290000A54501009C6B0200F9590200806B020092
:10291000F0B5C64600B582B05748584CA047584855
:10292000A0475848A0475848A0475848A04758488B
:10293000584B98470024584F564B984626E09730FE
:10294000564B984722E05648C0470024554B1C7010
:10295000554B1C70554D0E2255492800554B984734
:10296000AC73554C554E322221005148B0470500FA
:1029700000223123E2542000464B9847002DF2D12B
:102980000F2200214A484E4B9847002401A8B8471F
:10299000431CD4D001AB1B780A2BD4D00D2BD2D042
:1029A000404A1278002A3FD03F4A1278032A13D8AF
:1029B000511CC9B23C480170424883540129E5D9F1
:1029C00041494048414B984700280BD10023354AE4
:1029D0001370354A1370D9E70023324A1370324A14
:1029E0001370D3E7324C1B2239492000394B9847EA
:1029F0002000284B98470F2200212000304B984799
:102A00000E222A4920002B4B98472000324B984732
:102A10000E240D2803D825482F4B98470400E4B214
:102A200023481C4B9847D1E7082B0FD07F2B0DD0A4
:102A30001B2B19D00E2C03D81D4A13550134E4B2B8
:102A400001A800234370134B98479FE7234B1B6853
:102A5000009368460F4B9847002C97D0013CE4B296
:102A60000022134B1A5591E701220E4B1A700022D7
:102A70000D4B1A708AE7C046786D0200F14C0100D8
:102A8000406D0200886D0200686D0200586D020002
:102A9000F06C0200DD8A0100618B0100657C0100A1
:102AA0008C760200400300204103002058030020E0
:102AB00048030020875B020068030020354D0100B9
:102AC0009F57020044030020346D0200A15A020007
:102AD000386D02005D5A0200575B02007C6B0200F9
:102AE00070B586B04848494B98470022142102200F
:102AF000474CA047474D2860002203210220A047F1
:102B0000454B1860002201210520A047434B186067
:102B10002B68002B0CD0404B1B68002B08D00028E2
:102B200006D000223E4B1A701C003A4E3D4D15E077
:102B30003D48364B9847F4E7384B18680A2217216E
:102B40006944384B9847012815D00A2269463068F5
:102B5000A847012839D00520344B98472378012B0A
:102B6000F3D0002BE8D0022B3BD0032BF3D0002274
:102B70002B4B1A70EFE717236B441B78022B14D0F2
:102B8000DAB2022A09D9032B15D0042B19D1284B0C
:102B900098470322224B1A70D7E7012B11D1254BFE
:102BA000984700221E4B1A70CFE7224B984701220C
:102BB0001B4B1A70C9E7204B98470322184B1A7019
:102BC000C3E70022164B1A70BFE71C491C4B9847FD
:102BD0001C4B984768461C4B98470222104B1A70B2
:102BE000B9E71A4B98470028B5D0194B9847194BAD
:102BF0009847012803D018490120114B984700221B
:102C0000074B1A70A7E7C046986D0200DD8A0100E5
:102C10009D6601009C030020A0030020A403002067
:102C200080400020756E0100B86D0200657C0100D7
:102C3000054501004145010019450100E46D020010
:102C40008D8B01002D450100ED2E0100192F010093
:102C5000252F01009D3C01000C6E020010B5010003
:102C6000034B186800230A22024CA04710BDC0463F
:102C70009C030020D967010010B50100034B1868C0
:102C800000230A22024CA04710BDC046A403002026
:102C9000D9670100F0B5CE46474680B583B0002322
:102CA0000193104B984764200F4B98470F4B984760
:102CB0000F4B99460F4F104B984601A8C847019EED
:102CC0000A213000B847C4B2E543EDB21421300008
:102CD000B847C1B22A002000C047FA200001074BC4
:102CE0009847EAE7AD410100C19B0100FD410100A9
:102CF0001D420100E53A02002D2F0100657C010014
:102D0000F0B5DE464F464646C0B56648664B984726
:102D10000122664B1A709B4658E00024644B1C70DD
:102D20001422FF216348644B9847644B1C70644B2A
:102D30009847011C102800D91021C9B2002954D18C
:102D4000102200215F485C4B98475F4B1C78FF2C9A
:102D50004FD05E4B1978C9B25D4B1A78D2B25D4B39
:102D60001B78DBB220005C4EB0475C4DA847FA20D0
:102D7000C0005B4B98470023002200212000B04791
:102D8000A8470124504B984643461D5DFF2D31D086
:102D90004E4B1978C9B24E4B1A78D2B24D4B1B78B4
:102DA000DBB228004C4FB8474C4EB047FA20C00069
:102DB0004B4B98470023002200212800B847B0471A
:102DC0000134142CE0D10022384B1A703220444BCD
:102DD00098475B461B78012BF8D0002B0ED0022BB6
:102DE0009BD00022314B1A70F0E736483D4B984794
:102DF000A6E7002401343C4B1C70E4E7304B9847B5
:102E00000400102200212F482B4B9847261C102C21
:102E100000D91026F6B2002E0DD1254B1B78324A70
:102E200012789A4201D9132BD0D90123234A137067
:102E30001E4A1370CAE7310022482A4B98470028DF
:102E4000EBD1002E2BDD1F4D761907239846224B20
:102E50009946174F0EE01D4B1978C9B21C4B1A78D2
:102E6000D2B21C4B1B78DBB220001B4CA0470135B3
:102E7000AE4214D02B789A08D408A40041460A40E8
:102E8000A418DB439B07E6D000230022002120008A
:102E9000C8473B78074AD45401333B70E7E70F4BF0
:102EA0009847BAE73C6E0200DD8A0100BC40002072
:102EB000AA030020844000209F570200A90300209D
:102EC00055450100AC40002098400020AB03002095
:102ED0001500002014000020414601007946010041
:102EE000657C0100A5450100A803002010B5010084
:102EF00014220548054B98470222054B1A70002200
:102F0000044B1A7010BDC04698400020695702005B
:102F1000BC400020A9030020014B18787047C04630
:102F2000A90300200048704784400020034B18701C
:102F3000034B1970034B1A707047C046AB03002057
:102F40001500002014000020024B1A78104318705E
:102F50007047C046AD030020064B1A6801321A6064
:102F60001B68282B02D90122024B1A600122024B56
:102F70001A7070479C000020D803002030B583B041
:102F8000040042689368526810490120104DA84718
:102F900023689C6807220F4920000F4B98470028A0
:102FA00001D003B030BDE279303AD2B26B46DC1DBD
:102FB000DA710A490130064B98472000084B9847C0
:102FC0000128EED10749024B9847EAE7F86E020064
:102FD0008D8B0100006F0200655B0200086F02002C
:102FE000792C0100206F0200F0B587B00400142294
:102FF000FF2101A82F4B98472368986809222E4982
:103000002E4B9847002843D12D4901302D4DA8471C
:103010006268936852682C490120A8472268936827
:10302000D2682A490120A84723689B681800093004
:1030300000905B7A002B13D001AC17256D44244E11
:103040000A226946B0472070009B1A782C2A07D1C3
:10305000581C0090AC4203D001345B78002BEFD1B8
:103060001C490120174B984701AC06AF1A4E154D6D
:10307000227831000120A8470134A742F8D101A8E5
:10308000164B9847012813D115490E4B98470FE06E
:10309000144901200B4DA8476268936852680A4999
:1030A0000120A84722689368D26808490120A847F0
:1030B00007B0F0BD9F570200646E0200655B02001E
:1030C000706E02008D8B0100F86E02008C6E0200A3
:1030D000115D0200946E0200A86E02005D2C0100DA
:1030E000AC6E0200C86E020010B5014B984710BDCF
:1030F0005D1C020010B5014B984710BD511C020029
:1031000010B582B0154B1B78DA0712D59A0715D582
:103110005A0718D41B071BD411490120114B98479B
:1031200000230093012210491048114CA04702B01F
:1031300010BD104901200B4B9847F8E70E490120BC
:10314000084B9847F3E70D490120064B9847EEE7F7
:103150000B490120034B9847E9E7C046AD03002027
:10316000B07202008D8B0100DC7202001841002059
:10317000812D0200007202002C72020058720200BF
:103180008472020000B587B06846134B9847134B12
:10319000029380239B000393114A04920593114BE1
:1031A0006A461380104B938069461048104B98472D
:1031B000021E07DB0F490D480F4B9847021E06DB26
:1031C00007B000BD0D4901200D4B9847FEE70D49A2
:1031D00001200B4B9847FEE7251C02001404002039
:1031E000140600205B07000070170000DC030020BD
:1031F000711B020009320100411C02003C6F0200F9
:103200008D8B0100706F020030B587B0040001297A
:1032100030D0052944D0002901D007B030BD136853
:10322000002B1CDB21490120214B9847214A002318
:103230000593049303930293019300921E4B012183
:1032400020001E4CA047002804D01D490120184B27
:103250009847E2E71B490120154B9847DDE71A4DD7
:103260002A001A490120124B984729002000184BC8
:103270009847D2E71278002A0DD1164B1649174D00
:10328000A847174B002217492000A84716490120DC
:10329000074B9847C1E715490120054B9847BCE704
:1032A00013490120024B9847B7E7C04688700200D7
:1032B0008D8B0100B8700200A4700200951C020002
:1032C000C8700200F0700200747002000C710200FD
:1032D000691C0200E92F010044710200991D0200DF
:1032E0007D2F01005C710200747102008871020080
:1032F000BC71020070B584B005000C00FF22130001
:103300000B40090E0291210C11400191210A0A4043
:103310000092020004490120044EB0472100280019
:10332000034B984704B070BDD07102008D8B010033
:103330005128020010B5014B984710BD7D340200A2
:10334000F0B5D64600B59AB00190029100280DD094
:1033500000290BD0874B1B781B0700D5C5E0864B97
:1033600030221A700A325A70844C08E084490120D5
:10337000844B98471AB004BC9246F0BD0400601E0E
:1033800003782F2BFAD1804B9847012800D8C1E051
:10339000794FB81C21007D4B98474122002109A894
:1033A0007B4CA0470922002106A8A04700230593D3
:1033B000784C002239002000774B98470700200006
:1033C000764B9847002F7DD16B486F4B984740282C
:1033D00078D82E216848724B9847041E3BD06A4B20
:1033E0009847070086B2072E21D8210006A8674B10
:1033F00098476148644B98473F043F0CC71B3C2FDC
:103400000AD93C27BF1BBFB23A005B4909A8654BEC
:10341000984701239A4612E05749641AA7B2240438
:10342000220C09A85F4B984701239A4607E03C22EB
:10343000514909A85B4B984700239A463C277C1CBE
:10344000A4B22D2209ABDA550126E31C09AA944641
:103450006344039319E03C22474909A8514B98471C
:1034600000239A463C27EAE74A4F002209A9380080
:10347000494B984705003800484B9847002D17D115
:103480000136494BB2B29A421CD83200474905A8CE
:10349000474B984709AB1819032205A9414B984798
:1034A0005346002BE0D006A90398384B9847DBE73A
:1034B000314C402200212000354B984709A92000BB
:1034C000324B98472C4C22003A4901202D4B98470B
:1034D0000A2221002F48304B9847002822D1002291
:1034E000354B1A600820354B98470023099309ABE8
:1034F000029A01992748324CA047002818D0254845
:10350000264B984720202D4B98472E4901201D4BD4
:1035100098472FE72C4901201A4B98472020274B2A
:10352000984727E7020029490120164B984721E7D1
:10353000214C236809998C4663441A002360244D6A
:103540002B68244901200F4EB04722682B689A420D
:1035500000D20FE70F48114B98471F490120094B34
:103560009847802212041D4B5A611020134B984734
:1035700000E7C046AD03002058000020067302009B
:10358000087302008D8B0100575B02000B5B020089
:103590009F570200B0030020D10B02001D10020053
:1035A000B15B0200875B0200E70300002C7302009E
:1035B0005D5A02003473020014080020492F0100F4
:1035C000590D0200D07302005C7302009C7302006C
:1035D000D40300200C740200407402000044004137
:1035E00070B51400042907D889002D4B5B589F46FD
:1035F0002C4901202C4B984770BD2C4901202A4BA7
:10360000984704202A4B9847F6E7128863682949AF
:103610000120254DA8472388C82B10D16168264B6F
:1036200019600022254B1A6080239B009942E3D841
:10363000A068234B984710201D4B9847DCE72020BB
:103640001B4B9847D8E7116850681D4B9847237A61
:10365000002BD1D01020164B9847CDE7126819499E
:103660000120114B984723680B33C5D1164B1B78AB
:103670001B0706D4144B1B785A070BD4134B9847DF
:10368000BAE71348134B98470F4A137808218B4326
:103690001370EFE7042293430B4A1370EEE7C04622
:1036A000506E0200A46F02008D8B0100DC6F0200DF
:1036B000492F010008700200D403002014080020E4
:1036C0004133010044700200AD03002001310100CC
:1036D000B00300201D10020010B582B02C2803D0CA
:1036E000322837D002B010BD0B78012B1DD0002B33
:1036F000F8D128490120284B9847284A13780221FD
:103700008B4313701B0717D4244B1B785A071CD408
:1037100001212348234B9847FF230093224B022289
:103720000D212248224CA047DCE7224901201A4BF8
:103730009847214B9847D5E72048214B9847174A8F
:10374000137808218B431370DEE704229343134A56
:103750001370DDE74B780A78C8780190897800917A
:10376000184901200C4CA0470220174B9847174BD3
:103770001B78012B0AD016490948164B9847002898
:10378000B0D015490120044B9847ABE7134B98473D
:10379000A8E7C046E07502008D8B0100AD03002054
:1037A000DC0300202D1D02000476020018760200C2
:1037B000BDAE0100C0750200D9AE0100B00300200B
:1037C0001D10020028760200492F0100AC030020E2
:1037D00074700200691C0200507602000131010081
:1037E00010B584B001AC2000074B984737230193F4
:1037F00000236360013323720133E3722100072049
:10380000024B984704B010BD01D2010015D201004F
:1038100010B5002207210448044B984700210720D7
:10382000034B984710BDC046592F0100BDD0010081
:10383000E9D00100F0B5C64600B592B06420C84B8F
:1038400098470022C74B1A7004210520C64DA8478F
:10385000C64C2060002214210220A847C44B1860E7
:103860002368002B40D000283ED0C248C24B984766
:1038700005AC2000C14B9847C14D21002800C14B29
:1038800098472800C04B98472000C04B984780239A
:103890009B0023616560BC23FF332380BB3BFF3B60
:1038A000A3702100BA48BB4B9847021E20DBBA49DF
:1038B000B748BA4B9847BA4B9847BA4B9847BA4B58
:1038C0009847182200210CA8B84B9847B84B984746
:1038D000B84B0C930CA8B84B9847021E0DD0B749B3
:1038E0000120B74B9847FEE7B648A34B9847BCE783
:1038F000B5490120B24B9847FEE7B44C2200B449C9
:103900000120AF4B9847B34B9847B349B348B44BEA
:103910009847FF230093B34B02220D212000B24CA5
:10392000A047904B1B789B070AD4B04E944DB04CE7
:103930000020B0472800A0478A4B1B789B07F7D58B
:10394000FA208000864B98470122AA4B1A701E006D
:10395000A64B984626E0002B00D0F8E0A64B9847EF
:103960008F4B98479C499D489D4B9847994B98474A
:103970003423A24AD35C002B52D0A1490120904BA2
:10398000984701229B4B1A7005A900230B70774BB7
:10399000186800229B4B9847012800D1DBE0642087
:1039A0006F4B98473378012B4BD05AB2012AD2DDA6
:1039B000022B00D19CE0032B00D0C8E0694B1B78A0
:1039C00030221A420BD1894D6D4C894F0020A847F7
:1039D0002000B847634B1B7830221A42F6D0864B42
:1039E0009847FA2080005E4B98470022864B1A7059
:1039F00005A9864B0A0031CB31C21B7813700A220D
:103A00008348844B9847002800D09AE082485A4B5C
:103A100098477F48814B98470022764B1A70B3E74E
:103A20007F4910007F4B9847002805D13423734A03
:103A3000D35C002BA5D0A0E77B490120604B9847C1
:103A4000F4E70020C0474E48694B9847484B186838
:103A5000002205A96B4B9847012809D03423674AF7
:103A6000D35C002B90D064211000704B98478BE7FB
:103A70006F4A704B03CB03C21B88138005AB1F78C2
:103A8000FF2F18D000246C4D05E003A92C230B80D8
:103A900067486A4B98473B00694A032103A8A84737
:103AA00003A96348654B9847013405ABE75CFF2FDA
:103AB00001D0142CE9D15E4C2000624FB847201889
:103AC00003226149614B9847210001203C4DA847E2
:103AD0005F490120A8472000B84703000022019257
:103AE0000132009222005B4944485B4CA047B5E795
:103AF0004B494248594B984700281DD134233F4A2F
:103B0000D35C002B07D0394D170034240020A84780
:103B10003B5D002BFAD1384B984701223A4B1A7083
:103B20004F4950482E4B98472A4B98474E4B984741
:103B30000322304B1A7027E73B490120204B98475E
:103B4000DCE70200494900201D4B984761E700224D
:103B5000284B1A7018E705AB1A78264B1A701EE727
:103B6000657C0100AD0300209D6601002008002057
:103B70001C0800209C740200DD8A0100C53602008A
:103B8000C0400020D13602007D370200DD26020051
:103B90001841002005270200E1350100B927020085
:103BA00085310100E1370100113801009F57020003
:103BB000019C0100D936010019AB0100007502001B
:103BC0008D8B010074740200B87402001876020034
:103BD0002C75020089C90100E9300100F5300100AF
:103BE00009CA010004760200BDAE010045AC010027
:103BF0000538020018080020CDC90100DC030020B0
:103C000050750200756E0100AC030020B075020013
:103C1000B0030020D10B02009C7502001D100200B1
:103C200074700200691C020050760200BD1D020083
:103C300018000020646E0200F9590200DD5A0200EB
:103C40006C750200575B0200707502006957020034
:103C50008C760200747502005D1D02002D1D0200AD
:103C6000F532010035330100013101008C7502008D
:103C700010B582B06B46D871032801D902B010BDCF
:103C8000044B186800230A2269460731024CA047FA
:103C9000F4E7C04620080020D967010010B50100F4
:103CA000034B186800230A22024CA04710BDC046EF
:103CB0001C080020D967010010B582B000240194CF
:103CC000074B186801A9074B9847074B1C70019BCD
:103CD000002B03D080225205044B1A6002B010BDA5
:103CE0002C420020656E01002408002004ED00E055
:103CF00010B582B000240194074B186801A9074B46
:103D00009847074B1C70019B002B03D08022520563
:103D1000044B1A6002B010BD2C420020656E0100F9
:103D20002408002004ED00E010B582B000240194C6
:103D3000074B186801A9074B9847074B1C70019B5C
:103D4000002B03D080225205044B1A6002B010BD34
:103D50002C420020656E01002408002004ED00E0E4
:103D600070B50C4C00220C4920000C4DA847637E16
:103D70000122134363760A492000A847637E02228A
:103D80001343637607492000A847637E0422134348
:103D9000637670BD04420020B93C01009525010006
:103DA000F13C0100293D010070B58EB001AB6422E9
:103DB0000192334A0292002203921A731A768021EA
:103DC0008903059101214942998225315A540B9268
:103DD00008315A5401315A5401315A54D7321A8693
:103DE000284A0892284A0992FA229200DA82032489
:103DF000264D274E01AA27492800B047002806D0A3
:103E00002248254B9847013CE4B2002CF2D11F4BCD
:103E10001C680722E3691A42FCD12368022213437B
:103E200023601A4D28681D4B98471F2318401E3BDE
:103E300083401B4A1360E88800231021628B0A42EA
:103E400004D101338342F9D310236383154B984780
:103E50000120154B9847154C2060032200210120BA
:103E6000134B9847134B18602368002B04D0002392
:103E7000002802D1063300E0062318000EB070BD02
:103E8000480D000002000800020009000442002062
:103E90003948010000080042314B0100A1D801005F
:103EA00000E100E0613D0100016B010000420020E3
:103EB0009D6601002C42002010B5002812D04368F6
:103EC000002B12D00A4902780A804B60C3894B80CC
:103ED0000848094B98470023002801D1180010BD5D
:103EE000063BFBE708235B42F8E708235B42F5E764
:103EF0003042002004420020D125010010B50028E6
:103F000012D04368002B12D00A4902780A804B6015
:103F1000C3894B800848094B98470023002801D1EA
:103F2000180010BD063BFBE708235B42F8E70823B7
:103F30005B42F5E73042002004420020F5250100F5
:103F400010B5002813D04368002B13D00B49037819
:103F50000B8083684B6083894B800948094B9847E5
:103F60000023002801D1180010BD063BFBE7082301
:103F70005B42F8E708235B42F5E7C0463042002089
:103F800004420020AD25010010B5074B186800233E
:103F900000220021054CA0470023012801D1180070
:103FA00010BD143BFBE7C04600420020D96701006A
:103FB00010B50100054B1868054B984700230128F0
:103FC00001D1180010BD1D3BFBE7C0460042002098
:103FD0008171010070B505000C0008000F4B984777
:103FE000002800D070BD0E4B1E6828000D4B98476E
:103FF000002805D1210030000B4B9847012802D042
:104000000A4B9847EEE70A4B1B78002B03D000229F
:10401000074B1A70F4E7054B9847E3E7B13F0100FF
:104020002C420020B93E010081710100893F01004E
:104030002408002070B5050014001000184B9847A4
:10404000002800D070BD174B1E682800164B9847FB
:10405000002805D121003000144B9847012802D0D8
:10406000134B9847EEE7134B1B78002B03D000222D
:10407000104B1A70F4E728000F4B984721003000CE
:104080000A4B98470128EBD10A4B1B78002B03D031
:104090000022084B1A70E3E7054B9847D2E7C04669
:1040A000B13F01002C420020B93E010081710100A6
:1040B000893F010024080020413F010070B5050040
:1040C00014001000184B9847002800D070BD174B03
:1040D0001E682800164B9847002805D121003000A3
:1040E000144B9847012802D0134B9847EEE7134B27
:1040F0001B78002B03D00022104B1A70F4E7280025
:104100000F4B9847210030000A4B98470128EBD10C
:104110000A4B1B78002B03D00022084B1A70E3E7F0
:10412000054B9847D2E7C046B13F01002C42002022
:10413000FD3E010081710100893F0100240800203B
:10414000413F010070B51500074C10232370074E46
:104150003070701C064B98470135E581666064211C
:104160002000044B984770BD3C4200205042002084
:1041700069570200D53F010010B5094B10241C708F
:10418000084C2070002060700130D8815C609A81FA
:104190009960642205211800034B984710BDC04662
:1041A0003C42002050420020BD40010070B5114C3F
:1041B0000023237063700222210000200E4DA847C7
:1041C000022221000120A847022221000220A84744
:1041D000022221000320A847022221000420A84730
:1041E000022221000520A847022221000620A8471C
:1041F00070BDC0465C4200204541010010B5054934
:1042000000230B7008334B7002220020024B9847AA
:1042100010BDC0465C4200204541010070B505005C
:10422000054C022221000420044B984763781B02AE
:10423000227813432B6070BD4C420020794101006D
:1042400000B583B001AB00221A70587005483D21BB
:10425000017043600223C38182812731024B98475A
:1042600003B000BD60420020D53F010000B583B01F
:1042700001AB40221A7058700648033A027043603E
:104280000223C381002383816421034B984703B039
:1042900000BDC04660420020D53F010010B5B023EC
:1042A0001843014B984710BD4142010070B505000D
:1042B0000009102318430230C0B2034CA0470F205E
:1042C0002840A04770BDC04641420100F8B5CE4627
:1042D000474680B50E4D403500270E4B99460E4B94
:1042E00098460E4E3800C8470020C0472C00403C7E
:1042F0002078B047002807D10134AC42F8D101370B
:10430000FFB24035062FEDD10CBC90469946F8BD62
:10431000280800209D420100AD4201006D420100CD
:10432000F0B5CE46474680B5A1B001280DD0C022D9
:10433000520000211248134B9847134B9847002016
:1043400021B00CBC90469946F0BD00260F4B994613
:104350000F4B98460B4FF0B2C8470020C047802251
:1043600000216846B84780240A4D0020A84700284D
:10437000E6D1013C002CF8D10136082EEBD1DFE765
:10438000280800209F570200CD4201009D420100F5
:10439000AD4201006D420100002304281AD88300B9
:1043A0000E4A9B58002B17D00D4A10700D4A1978F1
:1043B00011700D4A197911700C4A197A11700C4A52
:1043C000197B1170642219694A435B699B18094A79
:1043D00013800123180070470023FBE7A000002092
:1043E0007140002073400020724000207040002087
:1043F0007E4000207640002010B50020294B9847D1
:104400000122294B1A700023284A1370284A13707E
:10441000284A1370AE20284B9847002839D02748E7
:10442000274B9847D520244B9847002835D125485D
:10443000234B98478020204CA047A820A0472F203E
:10444000A047D320A0470020A0474020A0478D20B0
:10445000A0471420A047A620A047A420A047A12041
:10446000A047C820A047DA20A0471220A0478120FB
:10447000A0478F20A047D920A047F120A047DB20EC
:10448000A0474020A047AF20A04700200E4B9847F0
:1044900010BD0E480A4B9847C4E70D48084B984793
:1044A000C8E7C04699430100784000207D400020C5
:1044B00074400020794000204142010074760200DF
:1044C000DD8A0100C87602002143010090760200D7
:1044D000A476020010B504000020074B9847002383
:1044E0000648C0214900E25C1A5401338B42FAD1DC
:1044F000034B984710BDC046214301002808002007
:10450000CD42010010B50248024B984710BDC0468D
:10451000948A0200D544010010B50248024B984726
:1045200010BDC04608880200D544010010B50248FD
:10453000024B984710BDC046DC760200D54401000E
:1045400010B50248024B984710BDC0465C78020087
:10455000D544010000B583B06B460022DA71073301
:104560000B482E3202700B4A42600222C2818360E5
:104570000123838162320021074B9847002803D131
:104580006B46D87903B000BD0448054B9847F7E760
:10459000704200202C8D020035400100008D020089
:1045A000DD8A010010B582B00023002902D1180075
:1045B00002B010BD01AA0C4B1B8813800B4B2E249C
:1045C0001C705A600222DA8198609981623200215F
:1045D0001800074B98470400031EE8D00548064B17
:1045E00098472300E3E7C046148C02007042002085
:1045F00035400100008D0200DD8A010010B582B057
:10460000012423008B400F211940490001231A4047
:104610000A4301AB102119705C709870DA7006487B
:104620002E22027043600423C3810023838154310E
:10463000024B984702B010BD70420020D53F0100E8
:1046400030B583B00E246D462C700A3C6C702A7114
:104650006971AB714300C018030AAB70E87004487D
:1046600045600723C3816421024B984703B030BDE6
:1046700070420020D53F010000B583B001AB064A6F
:1046800092881A80054843600223C3816421044B49
:10469000984703B000BDC046148C02007042002051
:1046A000D53F0100F0B5CE4600B584B04B482E236F
:1046B00003704B4B43600223C38103AB8360012330
:1046C000838164220021474B9847002849D103ABDE
:1046D0001B78552B49D04448444B98473F48444B9E
:1046E00043600323C3816421424B9847002840D193
:1046F0003A48414B43600323C38164213D4B9847B3
:1047000000283AD135483D4B43600423C3816421DE
:10471000384B98470190002833D1FF23FF22FF2117
:104720000F20374EB047374CA047C8204000364BCB
:1047300098470023002200210F20B047A0472748B8
:104740002E230370314B43600323C38100238381F5
:104750006421284B9847002817D1002603272C4DA9
:104760001AE02C48214B9847B8E72B481F4B984735
:10477000B4E72A481D4B9847BAE729481B4B98478E
:10478000C0E72848194B9847C7E72748174B984771
:10479000E3E70136102E1BD0F2173C001440A41999
:1047A000A410E400920FB3183B409B1AE418E4B243
:1047B000012239002000A847814601220221200061
:1047C000A8474B460343E4D01748084B9847E0E717
:1047D000019804B004BC9146F0BDC0467042002070
:1047E000248D0200354001003C8C0200DD8A01006E
:1047F000348D0200D53F0100388D0200308D02005B
:104800004146010079460100657C0100288D0200C7
:10481000FD4501001C8C0200488C02005C8C0200EB
:104820007C8C0200A88C0200DC8C0200016807224C
:10483000CB691A42FCD17047F0B5D6464F46464682
:10484000C0B58AB006000F00140031600800A04B0C
:104850009847A04A116A851C0123AB400B431362A1
:1048600009A9237B0B701430C5B228009A4B9847D6
:1048700028009A4B9847207B0021994B98473B682A
:104880001C209B0705D50AB01CBC90469946A24641
:10489000F0BD3B681738DB07F5D430688C4B994680
:1048A000984705008F49904B9847AD008F4BEE50CD
:1048B00000233376737600257383B3832522B554A2
:1048C000336214333B60336898461800C84781460A
:1048D000802308AA1370557001239370D570E06986
:1048E000276A002800D1AFE008AB1870022308AA9D
:1048F0005370000CC0B211007D4B9847002F00D1BF
:10490000A7E008AB1F70022308AA53703F0CF8B24F
:104910001100774B9847A38AF380E38A3381237E83
:104920008022002B04D1734B9B789B07DB0FDA01AD
:10493000A16823690B4313432422A25C002A02D0FE
:104940008022D2051343A26A13432C22A25C002AC0
:1049500003D180229204914202D180221205134396
:104960002D22A25C002A02D08022120413432E22A0
:10497000A25C002A02D08022D2031343424612686E
:1049800013434246136080235B0053604846143053
:10499000C0B2594B98470790FA239B0022685A43AC
:1049A000914663689A46554DA847009001914B4641
:1049B0005800A84702900391208EA84704900591C3
:1049C0004F4F504A504B00980199B84702000B00D6
:1049D00004980599B8474D4E00224D4BB0470490BE
:1049E00005914846A84702000B0004980599B8476E
:1049F00002000B00474D00980199A847029A039BBB
:104A0000B0470022444BA847029A039B434DA84756
:104A1000434B9847050080239B04A2689A421ED00E
:104A200003004020FF2D00D92DE700240020FF25A2
:104A30001D40240625430004FF231B0418400543A2
:104A40004346DD6000201EE700214046354B984775
:104A50004AE701214046334B9847070051E7FA26C1
:104A6000B60053465E430098019902000B00274CA4
:104A7000A047009001913000204B984700222A4B1C
:104A8000B84702000B0000980199244CA04700226F
:104A9000214B204CA047224B9847041E0CD03100DC
:104AA0000798224B98470238001B2B00FF2D0CD88B
:104AB000FF28BCD94020E6E67100481E079B9C46B3
:104AC00060441A4B98470138EFE74020DBE6C046C8
:104AD00029D8010000040040C9EB01003DEB0100B2
:104AE00065D601001926010065D801009853002001
:104AF000F1EC010000200041E5EB0100415602000D
:104B0000AD4A020095D626E80B2E113E253E020046
:104B100000002440AD4F02000000F03F4544020079
:104B2000D9550200B1D6010000000840E53A020064
:104B3000F8B5CE46474680B5040003689946144E42
:104B4000B04725682800134B984698471F23184004
:104B500001273900814061330F4AD1502000B0470E
:104B600083232B752B762B68022293432B600B4BF0
:104B700098472068C0470A4B98470A4B984720003F
:104B8000B0474B461F600CBC90469946F8BDC046E6
:104B90002D480100A1D8010000E100E015D001007E
:104BA00019EC010055D0010003681A7E920707D561
:104BB00002221A765B8B9B074120DB171840704757
:104BC0005A8B520706D55968C02292020A435A608E
:104BD0001820F4E70020F2E730B502680023012432
:104BE0000225117E21420BD1117E294206D10133CB
:104BF0009BB201899942F4D8122002E0002000E023
:104C0000002030BD10B5046862688023DB021343C6
:104C100063606162024B98470123237610BDC04652
:104C2000D94B010070B58000164BC45823689D7B9A
:104C3000227E637E13401D40EB0706D4AB070BD4E6
:104C4000EB0610D4AB0615D470BD2000A3689847BE
:104C5000012322689373F1E72000E3689847022359
:104C600022689373ECE72000236998471023226899
:104C70009373E7E7200063699847236820229A73BB
:104C8000E2E7C0468042002010B50020014B984763
:104C900010BDC046254C010010B50120014B9847BE
:104CA00010BDC046254C010010B50220014B9847AD
:104CB00010BDC046254C010070B50A00094B1B68A9
:104CC000002B0AD0074C25682B685968064B98477B
:104CD00068682060431E984170BD0449014B19600B
:104CE000F0E7C046AC090020875B0200B800002056
:104CF00070B5051E06D008200A4B9847041E03D144
:104D000072B6FEE772B6FEE7074B984725600023B0
:104D10006360064B1A6854601C60054B984701207D
:104D200070BDC046E562010021620100B4000020B0
:104D300039620100F0B5DE4657464E464546E0B5BD
:104D400083B0060000910192394B1B68002B11D0F3
:104D50001B689B683200019900989847002802D18F
:104D60000022334B1A6003B03CBC90469946A246E1
:104D7000AB46F0BD2F4C2E4B1C602F4B9946202389
:104D800098462E4B9B462A4B9A460AE00200290081
:104D90003000D84700280DD0646853461C60002CB2
:104DA0003ED027683D682800C847335C424693439D
:104DB000F2D1EBE73F7B7FB2002F2DDB3378002B66
:104DC00028D0320000250021012408E001290AD062
:104DD00001356DB2210001321378002B05D0202B54
:104DE000F4D00100F7E72100F5E701290FD0104BBF
:104DF0001B68002B14D0AF42AAD0019A104900982A
:104E0000104B984700220A4B1A600020ABE7013D87
:104E10006DB2ECE70025EAE7054B1B68002B97D144
:104E2000019A09490098074B984700209BE7C04624
:104E3000A8090020B8000020575B0200655B020053
:104E40003C8D0200875B0200948D020010B5014B7F
:104E5000984710BDD974010010B5024B984780B235
:104E600010BDC0466181010010B5024B9847000C8F
:104E700010BDC0466181010070B504000D00044BF7
:104E80009847010C090429432000024B984770BD44
:104E9000618101006D81010070B504000D00054BBA
:104EA00098470104090C2D0429432000024B984720
:104EB00070BDC046618101006D81010010B5024BDB
:104EC000984780B210BDC046D174010010B5024BA6
:104ED0009847000C10BDC046D174010070B50400A5
:104EE0000D00044B9847010C090429432000024B94
:104EF000984770BDD1740100D574010070B50400ED
:104F00000D00054B98470104090C2D04294320008E
:104F1000024B984770BDC046D1740100D5740100A2
:104F20000D4B1B68002B0DD001230B49DA005258A2
:104F3000002A08D001330A2BF8D1084A136801333C
:104F4000136070470023044ADB009850D3180122F5
:104F500052425A60F5E7C046B8090020080A00200E
:104F6000F8B5CE46474680B51D4B1B6899460024D0
:104F70001C4E1B4D1C4B98461BE01A4FDB00D859AA
:104F80001A4B9847164B1B68DB00FB185B68FF2227
:104F900002400321EA20164FB8470134104F3B6806
:104FA000581C0A21134B98473960002C13DC8945A3
:104FB00011D02B68DB0098590028EFD0C047084B70
:104FC0001B68D900074A521852689042D5D2054A48
:104FD00052185060D1E70CBC90469946F8BDC046C7
:104FE000B4090020B8090020758101006181010029
:104FF000655D0100C53D020070B5054D054E064CCE
:1050000001E00420A047A8470028FAD0B047F8E7FD
:1050100081520100614F0100657C010010B5014B18
:10502000984710BDA181010010B582B00400124B59
:105030009847012C09D0022C0AD0002C0CD10F4B20
:105040001B68002B0CD002B010BD0D4B9847F6E743
:105050000C480D4B9847F2E70C480B4B9847EEE78E
:10506000064B0193042300930023C82208490948F2
:10507000094CA047E7E7C04695520100B00900205F
:1050800079600100509102006D540100909102007E
:10509000C4910200F94F01007576010010B52F4B45
:1050A0001B680922DA65013264215A5401315A54CD
:1050B00001315A54053201315A5462396820195469
:1050C0000130195401301954013019540130195468
:1050D0006B315A5401315A5401315A5401315A54E6
:1050E00001315A5401315A5401315A5401315A5440
:1050F00001315A5468396D32995401329954013250
:1051000099546B3A13301A54112401301C54013055
:10511000195472315A5401315A5401315A540021F0
:1051200075329952A03102329952A031023299520D
:10513000A031023299520A49023299520949023287
:1051400099520949023299520849023299525F3103
:1051500002329952064A1A6610BDC0460C0A002057
:10516000FD02000052030000A20300000104000041
:10517000BF040000174B00225A821A800A329A821A
:105180005A800A32DA829A800A321A83DA800F321F
:105190005A831A8105329A835A810532DA839A81B9
:1051A00005321A84DA8105325A841A82383A9A848E
:1051B0000A32DA840A321A850F325A8505329A8504
:1051C0000532DA8505321A8605325A8605329A8604
:1051D0007047C046280A0020082813D880000B4BCF
:1051E0001B589F460A4810E00A480EE00A480CE0A7
:1051F0000A480AE00A4808E00A4806E00A4804E0CB
:105200000A4802E00A4800E00A4870472C8E020073
:10521000988E0200E08E0200348F0200808F020020
:10522000CC8F0200189002006C900200C490020023
:1052300020910200508E020010B5002A0DD00B788C
:1052400003700B78002B08D0002301339A4204D05E
:10525000CC5CC454CC5C002CF7D110BD10B5064B0F
:105260001B68002B01D000221A63044B1B68002B23
:1052700000D0984710BDC0460C0A0020D40A002078
:10528000034B1B68002B01D0186B70470020FCE714
:105290000C0A0020F8B5DE4657464E464546E0B5B6
:1052A000514B1B68002B00D199E01B78012B00D1DA
:1052B0008FE04E4B1A684E4B1A604B4CBD252D01AA
:1052C0002A00002120684B4B984723684A4A9A815C
:1052D00005229A730022DA731D61962149009961B3
:1052E000464959659A655A63454B98472068454A2F
:1052F000454BC250C8220433C250444BC73AC25037
:10530000434A5533FF33C250424B9C4660445022BF
:105310004149424B984723684149424A99500A21E2
:10532000414A99540131414A99540131404A9954B2
:105330000131404A9954404A6431995472253F4A98
:105340009D5473263E4A9E5474273E4A9F54F12230
:1053500090463D4A41469954F22291463B4A49467D
:105360009954F32292463A4A51469954F42293466C
:10537000384A59469954384B984723685A46DA7246
:1053800052469A724A465A7242461A72DF719E71AA
:105390005D7171221A710422DA70032322689370FE
:1053A000013B22685370236801221A702B4B196845
:1053B00000290ED00C4C2368164A9446634418000A
:1053C0005022164B984722680121254BD150254B7E
:1053D00098473CBC90469946A246AB46F8BD224A47
:1053E000014B1A6065E7C0460C0A002018E000E097
:1053F0005C4E00209F570200A11A0000F0F0F0F070
:105400009D500100F1F1F1F15C0500006405000020
:10541000F2F2F2F2BC060000989302003952010049
:10542000F3F3F3F30C070000C40B0000C50B0000FE
:10543000C60B0000C70B0000C80B0000C90B000022
:10544000CA0B0000CB0B0000CC0B0000CD0B000002
:10545000CE0B0000CF0B000075510100C40A0020E4
:10546000B40600005D5201008C42002010B504001B
:105470000E4B1B68002B01D00D4B98470D4B1B6842
:10548000002B00D010BD0B4B1C60084B1868002887
:10549000F8D0094B9C46604450222100074B9847A6
:1054A000024B1A680121064BD150EBE70C0A002091
:1054B0005D520100C40A0020BC0600003952010000
:1054C000B406000010B50C4B1868036B002B10D00D
:1054D000C3692C22FF32934206D89B00E222D200FD
:1054E00094466344C01810BD0448054B98470020FB
:1054F000F9E70020F7E7C0460C0A0020AC93020051
:105500006D540100F0B5C64600B5002806D007006E
:105510000025002805D0254B98460AE02448254B55
:10552000984704BC9046F0BD012A21D00135BD4208
:10553000F7D243461C68E369EB189E00A219E221EA
:10554000C9008C466244127811006731C9B20E2935
:10555000EAD86832D2B2D318A1698B42E6D20132BE
:1055600092006346F01820180021134B9847DDE79E
:105570000133A269934208D2E223DB00F01820181D
:10558000082200210C4B9847D0E7E223DB00E0180B
:1055900004220021084B9847E223DB00F018201872
:1055A00004220021044B9847C0E7C0460C0A0020A3
:1055B000CC9102006D5401009F57020010B50B4BB7
:1055C0001B681A6B002A10D05A6901325A61DA69D5
:1055D0000132DA612C21FF318A4203D901221A6299
:1055E0000022DA610120024B984710BD0C0A00200E
:1055F0000555010070B504000D00FF2802D00D4BC9
:10560000984203D1AC4205D3280070BD0A480B4B29
:105610009847F9E70A4B9847002809D001230370FF
:105620002B00A3431A0A42701B0C4380054B98477A
:105630002540E9E7FFFF0000D09202006D54010011
:10564000C5540100BD55010010B5082914D8002823
:1056500017D00E4B1A68531864331B78834210D34B
:1056600053187C331B780138584340314900511896
:105670000B89C01880B208E00548064B9847002007
:1056800003E00548034B9847002010BD0C0A00209A
:10569000609902006D540100A099020010B50B0042
:1056A00001001800044B9847044B1B6818189C30E5
:1056B0000123037010BDC046495601000C0A0020AA
:1056C00070B5040008001500082C13D80D4B1B689A
:1056D0001B1964331B788B4210D321000A4B984767
:1056E000084B1B681C19703422781B189B189D33BB
:1056F0001D7070BD0548064B9847FAE70548044BF6
:105700009847F6E70C0A002049560100E894020089
:105710006D5401003495020010B504000800082CF7
:1057200013D80F4B1B681B1964331B788B4211D3A2
:1057300021000C4B98470A4B1B681C1970342278C7
:105740001B189B189D33187810BD0748074B9847C6
:105750000020F9E70648054B98470020F4E7C046CB
:105760000C0A0020495601000C9302006D54010000
:105770005893020070B5040008001500082C13D8D7
:105780000D4B1B681B1964331B788B4210D321000F
:105790000A4B9847084B1B681C19703422781B1859
:1057A0009B189C331D7070BD0548064B9847FAE75F
:1057B0000548044B9847F6E70C0A002049560100BB
:1057C000689402006D540100AC94020010B50B4BBC
:1057D0001A686723D35C83420CD30321084B984794
:1057E000064B1B6873229A5C1B189B189C33002283
:1057F0001A7010BD0348044B9847FAE70C0A0020C2
:1058000049560100749502006D54010070B52D4B8E
:105810001B68002B46D0082849D8EFF310840123D9
:1058200083F31088284A136801331360274A430022
:105830009B5AD21848321278002A0AD12349CD182F
:1058400048355A1C06000836760089194988521ACC
:105850002A700100103149001C4A521892889A425D
:105860002AD31A49CA184832127801339BB245002C
:105870006B52050008356D004D196D885B1B0500E6
:1058800018356D004919C9888B4203DD0F49481945
:10589000DBB2C3800C490B68013B0B6084F31088BA
:1058A000100070BD0A480B4B98470022F8E70A48E1
:1058B000084B98470022F3E7084B9847054B984759
:1058C0000022E7E70C0A0020BC0A0020280A00207A
:1058D000649A02006D54010088920200D9510100BF
:1058E00070B504000800151E12D0082C14D8002929
:1058F00016D0164B1B681B1964331B788B4213D3CD
:105900002100134B9847134B1B68002B12D070BD1E
:105910001148124B9847FAE71148104B9847F6E7A1
:1059200010480E4B9847F2E720000F4B98470B4B5F
:105930009847ECE7054B1B681C19703422789C30A3
:1059400018182900094B9847E1E7C0460C0A0020C7
:1059500049560100C40A0020D49302006D5401008E
:105960000894020038940200D95101003952010014
:1059700070B51E4B1B68012B2BD01D4B19681D4B9E
:105980001B680131C91A1C4B1B681C4A1468E2438E
:10599000DA4224D41A4A1468A142A44164421C1970
:1059A00000281FD0124D2B6801339B0863431A0057
:1059B000144E33602D68013503232B4063435B187D
:1059C0009B089B1833600C4A146003600C4B1960F1
:1059D00070BD0028FCD00B4B1B680360F8E7A342A6
:1059E000DED1D7E7044B1C60F0E7C046C80A0020B0
:1059F00014E000E018E000E0240A0020D00A0020B3
:105A00001C0A0020200A0020F0B583B00500002306
:105A10000193FF2802D0394B984235D1384B1C688E
:105A2000636A002B05D1374B1B68002B31D09B08D4
:105A3000636201A8344B9847019B344A11685C1A91
:105A400013602F4A1668776A002F32D0BC422CD9D7
:105A5000390020002E4B9847F36A9C466044F06260
:105A6000390020002B4B9847B36A9C466144B162D1
:105A7000234B1B689A6A596A8A421BD3D86A013041
:105A8000D862521A9A6215E02348244B98470020A6
:105A900014E0234B1A68234B1B689A42C9D000209C
:105AA000214B984780086062C3E7B36A1B19B36251
:105AB000DEE7B362AC4203D82000284003B0F0BD5B
:105AC0001A4B98470028F7D00C4B9D4207D0FF2D6A
:105AD0000CD01748114B9847164B9847ECE7A92371
:105AE0000370230C438000234370F5E7A823037061
:105AF000230A4380230E4370EEE7C046FFFF0000F9
:105B00000C0A0020C00A002071590100B80A0020C8
:105B1000E53A0200F13B0200249202006D540100BC
:105B200018E000E05C4E0020B1EA0100C55401001D
:105B300064920200BD55010070B5041E1DD01B4BC0
:105B40001B68002B19D00F2818D8194B1B68002B85
:105B500018D1EFF31085012383F31088144A1368DA
:105B600001331360134B1B681B6B002B0ED1104AC3
:105B70001368013B136085F3108870BD0E480F4B0E
:105B80009847FAE70E480D4B9847F6E70D480E4B3D
:105B9000984706000D4B98470028E8D00223037071
:105BA000468044700A4B9847E1E7C046CC0000208D
:105BB000BC0A00200C0A0020649802006D54010009
:105BC000A4980200FFFF0000095A0100C55401001B
:105BD000BD550100F0B583B000900C00284B1B6848
:105BE000002B1DD0D317D6185E40EFF3108501238C
:105BF00083F3108823490B6801330B60002C04D019
:105C0000214B19688C4662441A601D4B1B681B6B44
:105C1000002B07D11B4A1368013B136085F31088E2
:105C200003B0F0BDFF20194B984701903100184890
:105C3000184B98470600184B9847071EEAD06B464A
:105C40001B794370002303704680144B9847210052
:105C50000F48104B984706000F4B98470028D9D0A3
:105C60004680002343706B461C78631C03703C70B5
:105C70000A4B9847024B1B68034A12681A65C9E72A
:105C80000C0A0020BC0A0020140A0020095A010056
:105C9000FFFF0000F5550100C5540100BD5501008E
:105CA000F8B505001400FE2825D8082927D8214B6F
:105CB0001B68591864310B78934224D31E4B1B6820
:105CC000002B24D11D4B1B78002B13D0EFF3108633
:105CD000012383F31088184A136801331360154BAE
:105CE0001B681B6B002B16D1134A1368013B136012
:105CF00086F31088F8BD1248124B9847FAE712480D
:105D0000104B9847F6E711480E4B9847F2E71048BA
:105D10000C4B9847EEE70F480F4B984707000F4B87
:105D200098470028E0D04780057044700C4B984796
:105D3000DAE7C0460C0A0020BC0A0020100A002046
:105D4000BC9502006D540100F49502003C960200DF
:105D500084960200FFFF0000095A0100C5540100AB
:105D6000BD550100F0B5C64600B5060014001D0083
:105D7000FE2827D8082929D8244B1B6859186431D4
:105D80000B78934226D3224B1B68002B26D1EFF3CE
:105D90001088012383F310881D4A136801331360B0
:105DA0001A4B1B681B6B002B03D01A4B1B78002B64
:105DB00018D1174A1368013B136088F3108804BC9C
:105DC0009046F0BD1448154B9847F8E71448134B1C
:105DD0009847F4E71348114B9847F0E712480F4BE8
:105DE0009847ECE7FF20114B984707002900FF2058
:105DF0000F4B984705000F4B98470028D9D0C77024
:105E00000670447085700C4B9847D2E70C0A00204E
:105E1000BC0A0020100A00204C9702006D540100BB
:105E20008C970200DC9702002C980200095A0100AE
:105E3000F5550100C5540100BD550100F8B5040039
:105E40000D00FE281CD81C4B1B68002B1CD1EFF347
:105E50001086012383F31088174A136801331360F7
:105E6000164B1B681B6B002B03D0154B1B78002BAC
:105E70000ED1114A1368013B136086F31088F8BDF8
:105E80001048114B9847FAE710480F4B9847F6E730
:105E9000FF200F4B9847070029000E480E4B9847EC
:105EA00005000E4B98470028E3D0477004704580EA
:105EB0000B4B9847DDE7C046BC0A00200C0A0020C7
:105EC000100A0020BC9602006D54010014970200D5
:105ED000095A0100FFFF0000F5550100C5540100FB
:105EE000BD550100F8B504000F2818D8EFF3108550
:105EF000012383F31088264A136801331360254B6E
:105F00001B78834204D0244B1B681B6B002B0AD1E7
:105F10001F4A1368013B136085F31088F8BD1F48C2
:105F20001F4B9847FAE700221E4B1A601E481F4B72
:105F300098470700174B1C701D4B9847061EE7D06B
:105F4000144B1878144B1A686723D35C83420FD321
:105F50000321184B9847104B1B6873229A5C1B183F
:105F60009B189C331B78012B05D10633337004E05A
:105F700011480B4B98470623337077807470054B9C
:105F80001978012203200D4B98470D4B9847BFE726
:105F9000BC0A0020100A00200C0A0020DC98020035
:105FA0006D540100180A0020FFFF0000095A01008B
:105FB000C55401004956010024990200755701009B
:105FC000BD55010070B5204B1B68002B0AD0186B23
:105FD000012806D01D4B1B68002B08D01A4B1B68EC
:105FE000186B70BD1A481B4B98470020F9E7EFF378
:105FF0001085012282F3108817490B6801330B606A
:10600000114B1B681A63154B9847154B9847C4B240
:10601000002C09D02000134B98470F4A1368013B0E
:10602000136085F31088D9E703200F4B98470600CB
:1060300004000E4A010003200D4B98470022310056
:1060400003200C4B9847E5E70C0A0020C40A002007
:10605000E09902006D540100BC0A00201D500100AF
:10606000594E0100E55E01000D580100249A02001E
:10607000E1580100C156010010B5014B984710BD11
:10608000C55F010003000833436001225242826071
:10609000C3600361002303607047002303617047FE
:1060A00043684B609A688A609A6851609960086199
:1060B000036801330360704730B50C680200083292
:1060C000631C02D1026904E01A0053681D68AC42E7
:1060D000FAD253684B6099608A6051600861036826
:1060E0000133036030BD0369426881689160826852
:1060F000416851605A68904206D0002202611A68D5
:10610000013A1A601868704782685A60F5E7000023
:1061100082B000230193064B1B68013301D072B695
:10612000FEE772B6019B002BFCD002B07047C04660
:10613000D00000200000000000000000000000006F
:106140000B4A13681868203080F30988022080F316
:106150001488BFF36F8F3FBCAE4608BC04BC62B668
:106160001847C046C046C046C046C046C046C046A6
:10617000C039002010B5031F802464041C60043B58
:106180001960043B02491960143B1A60403810BD85
:10619000116101007047000070B5134B1968FF22B0
:1061A00012040A431A601968FF2212060A431A6091
:1061B0000E4D00242C600E4B1C6000200D4B9847A8
:1061C000FA2189000C4B984701380C4B18600723C3
:1061D0002B600B4B1C600B4B98470B4B98470B4BA2
:1061E0009847002070BDC04620ED00E010E000E0C0
:1061F00018E000E0B1EA0100E53A020014E000E036
:10620000D000002041610100057D01001161010005
:1062100080225205014B1A607047C04604ED00E031
:1062200072B6044A136801331360BFF34F8FBFF394
:106230006F8F7047D0000020064B1B68002B01D1E8
:1062400072B6FEE7013B034A1360002B00D162B631
:106250007047C046D0000020EFF3108072B6704740
:1062600080F310887047000000000000000000006C
:10627000EFF309800E4B1A6820381060F0C04446D6
:106280004D4656465F46F0C008B572B601F03AFD7D
:1062900062B60CBC116808681030F0C8A046A94668
:1062A000B246BB4680F309882038F0C81847C0467C
:1062B000C039002010B5074B98470400064B98479B
:1062C000002803D080225205044B1A602000044BA2
:1062D000984710BD59620100AD79010004ED00E05E
:1062E0006162010070B50400430702D007239C439C
:1062F0000834184B9847184B1B68002B17D0174BC6
:106300001A68A31816498B4218D89A4216D2124915
:106310000D68AD18114A1360002D0FD0220029001E
:106320009420104B9847104B9847280070BD0722C7
:106330000E4B08339343084A1360E0E72200002124
:10634000E820084B9847084B9847094B9847002589
:10635000EBE7C04691790100D80A0020BC39002043
:10636000D72E0000D55B0100397B0100DC0A00203C
:10637000BD3A0200002801D072B6FEE77047000067
:10638000024B1B680248C01A7047C046BC39002047
:10639000D82E000010B50400034B9847A46B034BA4
:1063A00098476042604110BD2162010039620100DE
:1063B00070B504001600856B026C002A0BD100201A
:1063C0002368834204D16068164B984700236360BA
:1063D0000135A56370BD002E0ED18068124B984721
:1063E000A368226C94466344A360002062689342D1
:1063F000EED32368A360EBE7C0680B4B9847236C90
:106400005B42E268D218E26021688A4203D2626885
:1064100094466344E3600020022ED9D18542D7D050
:10642000013DD5E7E582010069570200F0B5CE468F
:10643000474680B583B001900091846C002C05D054
:10644000A26BE36B9A4203D372B6FEE772B6FEE725
:10645000A26B0026934205D8300003B00CBC9046D6
:106460009946F0BD4523E55C6DB22C4B98472C4B0B
:1064700098472C4B1B8803421ED020002A4B98477C
:10648000284B1B88034217D02536009B002B06D1D2
:106490002000264B9847264B1E5C2036F6B2200083
:1064A000224B9847224B1F5C2000224B9847C2B2D8
:1064B00039003000204B984720001C4FB8471C4E35
:1064C000335C984620001B4B9847C3B29946200086
:1064D000B847335C022B19D0A26B0132D2B24946C5
:1064E0004046164B9847009A01A92000144B984744
:1064F00006006B1C0CD1636A002BADD02000243049
:10650000104B98470028A7D00126A5E70022E6E710
:1065100001356DB24523E5549EE7C0461D5001008C
:10652000694E0100C8000020CD4E01004D4E010013
:10653000C0000020BD4E0100A15C010075570100A4
:10654000B1630100E97F010010B50C00026C002A64
:106550000BD0C3689B18C36041688B4201D30368AA
:10656000C360C1682000014B984710BD6957020005
:10657000F8B50700254B98474523FC5C64B2002C16
:106580001CDD234E234D0BE07B6A002B16D0380018
:106590002430A84700280ED1013C64B2002C0DD055
:1065A000BB6C002BF0D000213800B0470028F3D09E
:1065B000194B9847F0E7184B9847EDE7FF22452322
:1065C000FA54164B9847114B98474423FC5C64B22D
:1065D000002C14DD3B69002B11D03D0010350D4E11
:1065E00006E0013C64B2002C09D03B69002B06D0C8
:1065F0002800B0470028F4D0074B9847F1E7FF2266
:106600004423FA54054B9847F8BDC0462162010067
:106610002D640100E97F010055810100396201000C
:1066200070B504000D00002821D0174B9847226850
:10663000216CE36B4B43D01860600020A063A26024
:106640005B1AD318E360FF234422A3540132A354FE
:10665000002D11D12369002B05D0200010300B4BE9
:106660009847002805D10A4B9847012070BD72B6A3
:10667000FEE7084B9847F6E720001030064DA84784
:1066800020002430A847EEE721620100E97F0100E5
:10669000396201001162010085600100F8B5060051
:1066A0000D001700002801D172B6FEE70800704304
:1066B0005430384B9847041E5BD0002D3BD12060EE
:1066C000E663256401212000334B98475023E754AB
:1066D0000023A3642000314EB047314D285C314B7C
:1066E000984781B22000304B9847304B19882000E2
:1066F0002F4B98472000B0472D5C20002D4B98472A
:10670000C1B228002C4B98472C4B98472C4B9847EC
:106710002C4B1B88034212D12000204B9847204B62
:106720001D5C2000234B9847C1B200222800264B55
:1067300098472000F8BD030054330360C0E72000F1
:10674000224B98471F4B1B880342E5D02000134F74
:10675000B847134E355C1835EDB22000B847365CAB
:106760002000144B9847C2B231002800184B9847BC
:10677000D2E7124B9847124B9847124B1B880342A3
:10678000D7D0074BD85D4030C0B20021114B98479D
:10679000CFE7C046E5620100216601004D4E0100D1
:1067A000C00000200D580100DD4E0100C600002091
:1067B000FD4E0100BD4E01009D5601001D5001001F
:1067C000694E0100C800002075570100CD4E010040
:1067D000A15C01003D5E0100F0B5CE46474680B5A4
:1067E00085B00400009101921D0000280DD0009B8F
:1067F000002B0CD0022D0FD0AB4B9847002810D1A6
:10680000019B002B10D072B6FEE772B6FEE7036C58
:10681000002BEFD072B6FEE7E36B012BECD072B623
:10682000FEE70027A14EBCE00027FBE7A04B9847FE
:10683000A04B9847A04B1B8803421DD020009F4BC4
:1068400098479D4B1B88034216D02527002D06D163
:1068500020009B4B98479B4B1F5C2037FFB22000CA
:10686000974B9847974B1E5C2000974B9847C2B2B6
:1068700031003800954B98472000914EB047914F1A
:106880003B5C98462000904B9847C3B29946200045
:10689000B0473B5C022B1FD0A26B0132D2B24946FB
:1068A00040468B4B98472A0000992000894B984717
:1068B000A36C002B12D029002000874B984700289A
:1068C00001D0864B9847864B98470123180005B0A6
:1068D0000CBC90469946F0BD0022E0E7636A002BAD
:1068E00008D0200024307F4B98470028EBD07B4B0A
:1068F0009847E8E70028E6D0784B9847E3E7784BDD
:1069000098476B4B98476B4B98476B4B1A88002303
:106910000242DBD02000694B9847674B1A8800235E
:106920000242D3D04D26002D06D12000644B98475B
:10693000644B1E5C4836F6B22000614B9847614BB1
:106940001D5C2000604B9847C2B2290030005F4BAD
:1069500098470023BAE7624B984701A902A8624B07
:10696000984700286ED1514B9847A36B9946E76B27
:106970005B4B9847B9455FD14D4B98474D4B984776
:106980004D4B1B88034234D1200010300199574BE6
:1069900098472000564B9847564B9847002848D0B8
:1069A0000127B047A36BE26B934200D23EE7022D72
:1069B00000D13BE7019B002BA1D0002F02D102A800
:1069C0004D4B9847464B98474C4B9847374B984709
:1069D0004423E35C5BB2013302D100224423E2543E
:1069E0004523E35C5BB20133B5D100224523E25479
:1069F000B1E72000314B98472F4B1B880342C3D08F
:106A00007527002D06D120002D4B98472D4B1F5C7C
:106A10007037FFB220002A4B98472A4B1B5C9946DF
:106A20002000294B9847C2B249463800274B984767
:106A3000AAE72A4B9847B3E720002D4B98472D4BE8
:106A40009847ADE720002A4B98472A4B9847184BA8
:106A50009847184B9847184B1A880023024200D1D8
:106A600034E72000154B9847134B1A880023024245
:106A700000D12BE74D26002D06D12000104B984762
:106A8000104B1E5C4836F6B220000D4B98470D4B5C
:106A90001D5C20000C4B9847C2B2290030000B4B04
:106AA0009847002312E7C046AD8101002162010032
:106AB0001D500100694E0100C8000020CD4E0100AC
:106AC0004D4E0100C0000020BD4E0100A15C010040
:106AD00075570100B16301002D64010011620100CE
:106AE00039620100E97F0100E5800100217F01009A
:106AF00071650100397B0100CD80010091790100B1
:106B000070B5020000210120064B9847041E07D0F3
:106B1000002343600360C36000220021024DA847A8
:106B2000200070BD9D660100D9670100F0B5DE460A
:106B3000474680B583B00400019116001F0000286D
:106B40002DD0019B002B2CD0022F2FD0594B9847D2
:106B50000090A36BE26B9A425AD82000564B98479C
:106B6000564B1B880025034200D19AE05D35002F6B
:106B700006D12000524B9847524B1D5C5835EDB260
:106B800020004F4B98474F4B1F5C20004E4B9847BF
:106B9000C2B2390028004D4B9847002581E072B6FB
:106BA000FEE7036C002BCFD072B6FEE7E36B012B40
:106BB00027D072B6FEE7636A0125002B71D0200052
:106BC0002430434B984700286BD0002E0AD0012375
:106BD000336066E001356DB24523E554012560E080
:106BE00001255EE001255CE04523E55C6DB22000F7
:106BF000314B9847314B1B8803422DD035239846A3
:106C00001CE02C4B98470090A36BE26B9A42EBD9A7
:106C10004523E55C6DB22000274B9847274B1B8826
:106C2000034219D035239846002F07D12000244B6A
:106C30009847244B1B5C3033DBB298462000204B36
:106C40009847204B1B5C9B4620001F4B9847C2B2C5
:106C5000594640461D4B98472000194B9847194B01
:106C60001B5C98462000184B9847A26B0132D2B2A9
:106C7000C1B24046174B98473A0001992000164B85
:106C800098476B1CA6D1A36C002B94D03900200030
:106C9000124B98470235002803D0002EA0D00123C4
:106CA000336000980E4B9847280003B00CBC904608
:106CB0009B46F0BD59620100CD4E0100C800002086
:106CC0004D4E0100C0000020BD4E0100A15C01003E
:106CD000E97F010075570100B16301002D640100D7
:106CE00061620100F0B5D646474680B583B0040026
:106CF0000F001600002804D0036C002B03D072B6DE
:106D0000FEE772B6FEE70368002B55D04A4B984762
:106D10000190A36B9846E36B984567D24523E55CE9
:106D20006DB22000454B9847454B1B88034218D055
:106D300035239A46002E07D12000424B9847424BFC
:106D40001B5C3033DBB29A4620003E4B98473E4BEB
:106D50001E5C20003D4B9847C2B2310050463C4B70
:106D600098472000374B9847374B1E5C2000374B25
:106D70009847A26B0132D2B2C1B23000354B98476E
:106D800043460133A3636B1C2AD1A36C002B18D09C
:106D900000212000304B98470235002803D0002FF7
:106DA00045D001233B6001982C4B9847280003B045
:106DB0000CBC90469A46F0BD4368002BA6D072B634
:106DC000FEE7636A0125002BEDD020002430244B20
:106DD00098470028E7D0002F2BD001233B60E2E743
:106DE00001356DB24523E5540125DCE72000134B46
:106DF0009847134B1B8800250342D4D05D35002EE5
:106E000006D120000F4B98470F4B1D5C5835EDB253
:106E100020000C4B98470C4B1F5C20000B4B9847F5
:106E2000C2B2390028000A4B98470025BBE701256C
:106E3000B9E70125B7E7C04659620100CD4E010010
:106E4000C80000204D4E0100C0000020BD4E0100D2
:106E5000A15C0100755701002D6401006162010011
:106E6000E97F010010B50022014B984710BDC046D4
:106E7000E56C0100F0B5CE46474680B585B0041EEE
:106E8000009101920BD0009B002B0AD0A44B984795
:106E900000280BD1019B002B0CD072B6FEE772B616
:106EA000FEE7036C002BF1D072B6FEE700259D4B88
:106EB0009846B4E00025FAE7009920009A4B9847DD
:106EC0009A4B98479A4B98479A4B1B88034219D084
:106ED0002000994B9847974B1B88034212D0200003
:106EE000964B98469847964F3D5C2835EDB220006A
:106EF000C0473F5C2000934B9847C2B2390028003E
:106F0000914B984720008D4FB8478D4D2B5C99468B
:106F100020008C4B9847C3B298462000B8472B5CA2
:106F2000022B1ED1814B9847884B9847C2B24146ED
:106F30004846874B9847013EA6632369002B07D03C
:106F400020001030834B9847002801D0824B98478F
:106F5000824B98470123180005B00CBC9046994617
:106F6000F0BDA26B013AD2B2E1E77C4B98476F4B80
:106F700098476F4B98476F4B1A8800230242EAD01C
:106F800020006D4B98476B4B1A8800230242E2D0D9
:106F900020006A4FB8476A4E355C5035EDB220008C
:106FA000B847365C2000674B9847C2B231002800D2
:106FB000654B98470023CEE702A8694B984738E015
:106FC00000224423E2543FE000224523E25440E003
:106FD0002000594B9847574B1B8803424ED0200046
:106FE000564FB847564E355C6835EDB22000B8476D
:106FF000365C2000534B9847C2B231002800524BF8
:1070000098473BE0200024300199564B98472000D8
:10701000554B9847554B9847002846D00125C04707
:10702000A66B002E00D047E7019B002B9DD0002DC2
:10703000C2D04A4B98474E4B98473A4B9847442307
:10704000E35C5BB20133BBD04523E35C5BB201334D
:10705000BAD0424B984701A902A8464B984700284E
:107060002CD12000444B9847002821D02F4B984723
:107070002F4B98472F4B1B880342A9D120002F4B41
:1070800098472F4B1B5C022BBCD0284B9847284BB2
:107090009847284B1B880342B4D0244B98472B4B6E
:1070A0009847C0B2354B9847ACE72B4B9847B5E7AC
:1070B00020002D4B98472D4B9847AFE720002A4BD7
:1070C00098472A4B984720002B4B98470028A5D07B
:1070D000164B9847164B9847164B1A8800230242C6
:1070E00000D138E72000144B9847124B1A88002330
:1070F000024200D12FE72000104FB847104E355CF8
:107100005035EDB22000B847365C20000D4B984753
:10711000C2B2310028000C4B984700231BE7C04641
:10712000AD81010021620100496501001D5001008F
:10713000694E0100C8000020CD4E01004D4E0100F7
:10714000C0000020BD4E0100A15C0100594E0100AD
:1071500075570100E97F01001162010039620100E9
:10716000CD800100217F010071650100397B0100A4
:1071700091790100E580010095630100CD57010080
:10718000F0B5CE46474680B585B0041E019104D0C7
:10719000036C002B03D072B6FEE772B6FEE7B24B6B
:1071A0009847002804D1019B002B06D072B6FEE759
:1071B00000250027AD4B9846BDE000250027F9E7E4
:1071C000AB4B9847AB4B9847AB4B1B88034219D04E
:1071D0002000AA4B9847A84B1B88034212D02000DE
:1071E000A74B98469847A74F3D5C2835EDB2200045
:1071F000C0473F5C2000A44B9847C2B2390028002A
:10720000A24B984720009E4FB8479E4D2B5C994655
:1072100020009D4B9847C3B298462000B8472B5C8E
:10722000022B24D1924B9847994B9847C2B24146C2
:107230004846984B9847013EA6632368002B02D12D
:10724000954B984760602369002B07D020001030D1
:10725000924B9847002801D0914B9847914B984703
:107260000125280005B00CBC90469946F0BDA26BE4
:10727000013AD2B2DBE7002D01D072B6FEE7894BAE
:1072800098477B4B98477B4B98477B4B1B88034227
:10729000E7D02000794B9847774B1B880342E0D01A
:1072A0002000774B98469847764F3E5C5036F6B2B2
:1072B0002000C0473F5C2000734B9847C2B23900A2
:1072C0003000724B9847CCE702A8774B98473CE0D8
:1072D00000224423E25443E000224523E25444E0E8
:1072E0002000664B9847644B1B88034252D0200015
:1072F000634B99469847634F3E5C6836F6B2200070
:10730000C8473F5C2000604B9847C2B2390030004C
:107310005E4B98473EE02368002B52D0200024307B
:107320000199624B98472000614B9847614B984701
:1073300000284FD00127C047A66B002E00D03FE7A2
:10734000019B002B97D0002FBED0564B98475A4B2D
:107350009847464B98474423E35C5BB20133B7D070
:107360004523E35C5BB20133B6D04E4B984701A98D
:1073700002A8524B9847002835D12000504B98471F
:1073800000282AD03A4B98473A4B98473A4B1B88EB
:107390000342A5D120003A4B98473A4B1B5C022B85
:1073A000B9D0334B9847334B9847334B1B88034234
:1073B000B1D02F4B9847364B9847C0B2414B9847B6
:1073C000A9E72A4B984760683F4B98470500354B23
:1073D0009847A3E7324B9847ACE72000344B9847D7
:1073E000344B9847A6E72000314B9847314B9847DC
:1073F0002000334B984700289CD0002D0ED01B4B0B
:107400009847636A0021002B03D0236B1B6805316A
:10741000C91A60682D4B9847224B9847144B9847E0
:10742000144B9847144B1B880025034200D118E7E2
:107430002000124B9847104B1B88034200D110E7E5
:1074400020000F4FB8470F4E355C5035EDB220008D
:10745000B847365C20000C4B9847C2B23100280078
:107460000A4B98470025FCE6AD810100216201002E
:107470001D500100694E0100C8000020CD4E0100E2
:107480004D4E0100C0000020BD4E0100A15C010076
:10749000594E010075570100DD840100E97F0100AC
:1074A0001162010039620100CD800100217F0100DD
:1074B00071650100397B010091790100E5800100CF
:1074C00095630100CD570100CD810100D9830100F2
:1074D000C06C7047C16470475023C05C70470000A7
:1074E00070B504000D001600114B98474423E35C6F
:1074F0005BB201330DD04523E35C5BB201330CD0AA
:107500000C4B9847A36B002B0BD020000A4B9847DD
:1075100070BD00224423E254EDE700224523E254EB
:10752000EEE72000243032002900044B9847ECE7B6
:107530002162010039620100716501004D7F010087
:10754000084B1B681B68002B07D0064B1B68DB68C9
:10755000DB685A68044B1A60704701225242024BA2
:107560001A60F9E7C4390020743A0020F0B5D64615
:107570004F464646C0B5144B9946144B9846144F97
:10758000144B9A464B461B68002B16D0C047FB682D
:10759000DD68281DD047104A1368013B13600A4C70
:1075A0002368013B23600D4B9847286B0C4EB04776
:1075B0002800B0472368002BE8D10A4B1B68012B39
:1075C000E0D9094B9847DDE7343A002021620100F9
:1075D000A83A0020E7600100303A0020396201003B
:1075E00075630100CC3900201162010070B5040000
:1075F0000D00174B1E68174B18680430164B984740
:10760000631C13D03419134B1B685C60A64216D858
:10761000124B18680F4B19680431114B9847114BE6
:107620001B689C4212D20F4B1C600FE0002DE9D06A
:10763000084B196804310C480C4B984706E00C4B7A
:107640001868044B19680431054B984770BDC04653
:10765000BC3A0020C0390020E7600100C439002096
:10766000B9600100743A0020943A0020A160010042
:10767000C8390020F0B5C64600B584B001900D00B1
:10768000029397003800824B9847061E00D1B9E05C
:1076900054207F4B9847041E00D1B0E006633A00A7
:1076A000A52130007B4B98473A1F236B9C466244D0
:1076B00007239A4390462A782D33E2542B78002BE7
:1076C0000DD001352300353320003C302A781A7064
:1076D0002A78002A03D0013501338342F6D10022F3
:1076E0003B23E2540A9F042F00D90427E762676412
:1076F0000026A664231D03931800674DA8472000A9
:107700001830A84724610523DB1BA3616462E6648B
:107710005023E654029A01994046604B98472060F6
:107720000B9B002B00D01C605D4B98475D4A136893
:10773000013313605C4B1B68002B66D05B4B1B68EE
:10774000002B07D1584B1B68DB6AE26A934201D8D1
:10775000554B1C60564A136801331360E3630320E2
:10776000544B984781B22000534B9847534B19888C
:107770002000534B98472000524EB047220034322D
:10778000C1B20320504B98472000B0472C23E31888
:107790001A78C1B203204D4B98474D4B98474D4B3B
:1077A00098474D4B1B88034257D120004B4B9847BD
:1077B0002000484B9847484B1B8803425DD1E36A41
:1077C000474A1268934201D9454A13609800C0188D
:1077D0008000444B18180399434B9847434B9847F4
:1077E000324B1B680120002B05D02F4B1B68DA6A37
:1077F000E36A9A4248D304B004BC9046F0BD30001E
:107800003B4B984701204042F5E7274B1C6013682B
:10781000012B9FD1334F3800364EB047380014301B
:10782000B04738002830B04738003C30B047380007
:107830005030B047304B98461800B0472F4F3800B3
:10784000B0472F48B0472F48B0472F48B0472F4B7D
:1078500042461A602E4B1F607CE720001D4B984764
:107860001D4B1B880342A0D02000164B9847C2B284
:1078700003211B20274B984797E72000114B98477F
:10788000C0B2254B98479AE7244B98470120B2E7AE
:10789000E56201009F5702009B60010075610100D5
:1078A00021620100303A0020C0390020903A0020C7
:1078B000403A00200D580100794E0100C60000201A
:1078C000994E0100594E0100E1580100C1560100D6
:1078D0001D500100694E0100C8000020214F010029
:1078E000443A0020CC390020A16001003962010037
:1078F0007563010085600100483A00205C3A002071
:107900007C3A0020A83A0020943A0020C439002094
:10791000C8390020A15C0100395B0100116201003F
:1079200010B582B0114B01930023009364221049DB
:107930001048114CA047012803D0431C13D002B0BB
:1079400010BD0E4B98470128F7D172B60122524262
:107950000B4B1A6002320B4B1A6000220A4B1A6062
:107960000A4B9847EBE772B6FEE7C046703A002034
:10797000A89A02006D75010075760100A1850100CD
:10798000743A0020903A0020BC3A0020996101002E
:10799000024A1368013313607047C0463C3A002026
:1079A000014B18687047C046BC3A0020F0B583B060
:1079B0004C4B1B68012B03D04B4B1B68002B06D193
:1079C0004A4A1368013313600020494B9847454BDE
:1079D0001B68002B10D0434B1B68002B75D1454B07
:1079E0001E6801361E60002E19D1434B1B681B68B0
:1079F000002B08D072B6FEE73E4B19680131032018
:107A00003E4B9847E7E73C4A11683D4B18681060C9
:107A100019603C4A1368013313603B4B98473B4B5A
:107A20001B6800259E423AD30025334F3B681B68F4
:107A3000002B30D0304B1B68DB68DC6863689E42EB
:107A400039D3231D01931800314B9847A36A002BAB
:107A500003D0200018302E4B984720002D4B98471C
:107A60002D4B1B88034229D1E36A2C4A12689342AA
:107A700001D92A4A13609800C0188000284B1818B2
:107A80000199284B9847284B1B68E26ADB6A9A42A7
:107A9000CCD30125CAE7012252421C4B1A60224B6B
:107AA0001B68DA6A93009B189B001D4A9B58012BA8
:107AB00010D901250EE0154A1360F0E720001B4B9A
:107AC0009847C0B21A4B9847CEE7074A136801336C
:107AD00013600025174B1B68002B00D001252800E0
